:1040000000800020AD9C0000959C0000015B00003A
:1040100000000000000000000000000000000000A0
:10402000000000000000000000000000959C00005F
:104030000000000000000000959C0000119D0000A1
:10404000959C0000959C0000959C0000959C0000AC
:10405000D9950000959C0000959C0000999C00005B
:10406000959C00001D6F0000959C00000D570000FE
:1040700085600000959C00002D6F0000A1470000A6
:10408000959C0000959C0000959C0000959C00006C
:1040900000000000959C0000959C0000959C00008D
:1040A000F5440000959C0000959C0000959C000044
:1040B0000000000010B5064C2378002B07D1054BFB
:1040C000002B02D0044800E000BF0123237010BD84
:1040D0004C02002000000000C0210100044B10B57C
:1040E000002B03D00349044800E000BF10BDC046C8
:1040F0000000000050020020C0210100014B0122FD
:104100005A707047680200200023037043707047A4
:1041100010B5012809D1054B994206D14821044820
:1041200002F0AAF90348FFF7EFFF10BDFFFF000000
:104130006C0200206802002010B5114C200002F033
:1041400011FB8021C900200002F068FA8021C9011A
:10415000200002F097FB0021200002F025FAE02168
:10416000200002F031FA200002F0E1F902210820DB
:1041700006F05AF903220349082005F099F910BD09
:104180006C020020FD40000070B5040004310903FA
:1041900089B2084D280002F075FB280002F090FB60
:1041A0006378002BFCD000236370024802F0EAFB26
:1041B00070BDC0466C020020F0B583B005000378E6
:1041C000002B57D0002303702B4C2C49200005F006
:1041D000C7FA01212800FFF7D7FF0AF0BDFD020052
:1041E0000B0005270097200005F0F8FB244E310056
:1041F000200005F0B5FA2349200005F0B1FA0021AE
:104200002800FFF7C1FF0AF0A7FD02000B0000978E
:10421000200005F0E3FB3100200005F0A1FA1A4967
:10422000200005F09DFA03212800FFF7ADFF0AF0FA
:1042300093FD02000B000097200005F0CFFB31003A
:10424000200005F08DFA1149200005F089FA0221BD
:104250002800FFF799FF0AF07FFD02000B0000978E
:10426000200005F0BBFB3100200005F079FA2000AA
:1042700005F08CFA03B0F0BDBC0900204C11010020
:104280005411010058110100641101006C1101006A
:1042900010B502490120FFF73BFF10BDFFFF0000F2
:1042A000002303707047000010B5012805D1034BAF
:1042B000994202D10248FFF7F3FF10BDFFFF000053
:1042C0007C02002010B50F4A137802218B43137033
:1042D0000C4B5B7EDB09FBD10A4B8022D2009A801B
:1042E00000229A70DA701A7802210A431A70054B7C
:1042F0005B7EDB09FBD10C2005F092FF052005F069
:10430000BDFF10BD00400042F0B583B00191161E04
:104310000CD010000AF0EEFC02000B0000201E4939
:1043200006F03EFD08F07EF887B200E00127002489
:104330000025A74206D9019805F0ECFF2D1801349D
:10434000A4B2F6E7F54030000C300AF099FC020008
:104350000B0000208021C90506F022FD00220F4B32
:104360000AF0F4F808F05EF8060028000AF0C2FC33
:104370000B4A0C4B09F078FE04000D0030000AF0E7
:10438000B9FC02000B002000290009F063FA0AF0D2
:1043900035FD03B0F0BDC046000010400000F03F06
:1043A000D7A3703D0AD70140F0B583B0050003786C
:1043B000002B70D000230370384C3949200005F0E1
:1043C000CFF9022218212800FFF79EFF0AF0C4FC53
:1043D00002000B0005270097200005F0FFFA314E80
:1043E0003100200005F0BCF92F49200005F0B8F994
:1043F000022219212800FFF787FF0AF0ADFC020016
:104400000B000097200005F0E9FA3100200005F0CC
:10441000A7F92649200005F0A3F902221C21280053
:10442000FFF772FF0AF098FC02000B0000972000D3
:1044300005F0D4FA3100200005F092F91C49200063
:1044400005F08EF902221D212800FFF75DFF0AF01A
:1044500083FC02000B000097200005F0BFFA31003A
:10446000200005F07DF91349200005F079F90222BA
:104470001A212800FFF748FF0AF06EFC02000B002B
:104480000097200005F0AAFA3100200005F068F935
:10449000200005F07BF903B0F0BDC046BC09002048
:1044A0004C11010054110100581101006411010068
:1044B0006C1101008011010010B502490120FFF7C5
:1044C000F3FE10BDFFFF00000023037070470000E3
:1044D00010B5012805D1034B994202D10248FFF7DC
:1044E000F3FF10BDFFFF00008002002001230370D6
:1044F0007047000010B5054B9B79DB0705D5034BD2
:1045000001229A710248FFF7F1FF10BD00440042FA
:10451000800200200378002B01D0002202701800D6
:104520007047000010B5214B0121322299544420DC
:104530001A5C032422431A541D4A106A80239B02EA
:10454000034313621B4B1C4A5A801C4A5A801C4B63
:1045500019701B4B1B78DB07FBD4194B80225200D0
:104560005A80174B5B7ADB09FBD1154B154A1A6150
:10457000134B5B7ADB09FBD1114A20332821D1543C
:104580000F4B5B7ADB09FBD10D4B5A7901210A43B2
:104590005A710D4A8021490411601A7802210A4398
:1045A0001A70074B5B7ADB09FBD110BD0044004158
:1045B00000040040000C0040204000001F400000AC
:1045C000004400422505090000E100E010B5FFF7B6
:1045D000A1FF002803D0024A13880133138010BDC5
:1045E0008202002010B502490120FFF771FF10BDC3
:1045F000FFFF000000B585B0012819D10D4B99428D
:1046000016D10D4802F098FB0C4802F0C4FB0023C1
:1046100003930B4B1B6802930A4B1B6801930A4BD5
:104620001B680093094B0A4A0A490B4802F05CFBDD
:1046300005B000BDFFFF0000140300203C03002074
:1046400004000020080000200C000020340300209B
:1046500090020020380300209C02002030B583B077
:10466000FE24A4053C4D221C0021280002F0AEFAD5
:104670000121280002F0FAFA384B9A69384B01936D
:10468000384B0093384B3949394802F056FB394BC7
:104690001968394808F07EF8211C08F085FB07F0FE
:1046A000A9FE80235B04984200D91800334B1A6896
:1046B00053009B181A01324B1A60801A314B186054
:1046C000314B324A5A60304B5B78DB09FBD12E4BC1
:1046D000822252009A602C4B5B78DB09FBD12A4B7B
:1046E0002B4A5A80284B5B78DB09FBD1294B1A688F
:1046F0001A600222DA63274B9B685B06FBD4214BCE
:104700001A68244B1A64234B9B681B06FBD4214B6D
:104710000022DA641F4B9B685B05FBD41E4B802292
:1047200052029A605A6150215A5C012002435A5445
:1047300038224B399954174B343A9A62174A8021E0
:10474000090211601A6802210A431A60114B9B6822
:104750009B07FBD403B030BD9C0200205003002017
:1047600000E076453313954300401C4633335340F5
:104770001403002010000020001B374C18000020FC
:104780002C03002028030020000C00400407030035
:104790001A440000002000420044004100E100E013
:1047A00010B5384BDB6A5B076BD5364AD16A0423F8
:1047B0000B43D362344B1B78002B1DD1334B1B684A
:1047C000002B02D0324B01221A702F4B01221A709B
:1047D0000121092005F0A6FE2E4B1A68294BDA6646
:1047E000284B9B685B03FBD4264B00229A67254B22
:1047F0009B689B02FBD444E0274B01221A70224B9A
:1048000000221A700021092005F08CFE234B1C6841
:104810001C4BDC66224B1868FE21890507F0D6FD8B
:10482000002803D01E4BFE2292051A601C4B18680C
:10483000002107F0B7FD002802D0194B00221A60B2
:10484000184B1B78012B02D0154B00221A60164B17
:104850001A6853009B181801201A08F09FFC104B8F
:10486000196808F06FF907F0C5FD084B1860054B93
:104870009B685B03FBD4034B9867024B9B689B02CE
:10488000FBD410BD002000428C02002088020020D2
:104890008E0200202C0300208D020020280300201F
:1048A00090020020500300201400002010B50021C9
:1048B0000548FFF769FC054CE16807F06BFF216ACA
:1048C00008F072FA10BDC0466802002050030020B4
:1048D00010B503210348FFF757FC034B996807F015
:1048E00059FF10BD6802002050030020F0B5DE46DD
:1048F0004F464646C0B5394CA544394B1B78002B72
:104900001BD0FA20400005F081FA354B00221A70C6
:10491000FFF7DEFF334B186002213348FFF734FC0A
:10492000324C216907F036FF616907F033FF304BE5
:1049300018601D212F4800F0D8FE2F4B1B78002B4C
:1049400000D1E8E32C4B00221A7005F0EFF9834602
:10495000254D01212800FFF717FC041CFFF7B8FFC5
:10496000264B186002212800FFF70EFC1F4E31690C
:1049700007F010FF716907F00DFF214B186000224E
:104980001A212048FFF7C0FC0390FFF78FFF071C98
:1049900005F0CCF98046391C1B4802F0FDF9029065
:1049A000211C1A4802F0D1F9051C194B186019494D
:1049B000029808F0C7F8011C281C07F051FD164B9F
:1049C00018601E210B4800F090FE3378012B27D190
:1049D000064B5A68114B1A6025E0C04690FCFFFF59
:1049E0008E020020440300206802002050030020B3
:1049F00098020020880300208D0200204003002040
:104A0000940200207C0200203C03002014030020BC
:104A10003003002085EB513F380300203403002091
:104A2000FE4B00221A60FE4801F0B6FFFD4D290042
:104A300007A805F02CF807A904A805F04BF80322F5
:104A4000211C0AA805F0CAF80AA904A805F09EF8D6
:104A50000400F5490DA805F01AF80DA9200005F08D
:104A600095F80100F14C200004F09AFE0DA804F026
:104A7000BDFF0AA804F0BAFF04A804F0B7FF07A816
:104A800004F0B4FF290013A805F001F813A910A839
:104A900005F020F8E64E0322316816A805F09EF8CE
:104AA00016A910A805F072F80290E24919AB180097
:104AB00004F0EDFF19A9029805F068F80100200044
:104AC00004F06EFE19A804F091FF16A804F08EFF02
:104AD00010A804F08BFF13A804F088FF29001FA87A
:104AE00004F0D5FF1FA91CA804F0F4FF30680AF0F9
:104AF00033F9D14AD14B09F029FD02000B00032103
:104B0000009122A805F090F822A91CA805F03EF813
:104B10000600CB4925A804F0BAFF25A9300005F00E
:104B200035F80100200004F03BFE25A804F05EFFEC
:104B300022A804F05BFF1CA804F058FF1FA804F093
:104B400055FFC0492BA804F0A2FF2BA928A804F008
:104B5000C1FFBD4DBD49286A07F0F4FF011C0322C7
:104B60002EA805F03BF82EA928A805F00FF8029012
:104B7000B74E310031AB180004F089FF31A902981B
:104B800005F004F80100200004F00AFE31A804F04A
:104B90002DFF2EA804F02AFF28A804F027FF2BA839
:104BA00004F024FFAB4937A804F071FF37A934A8FB
:104BB00004F090FFA549381C07F0C4FF011C032234
:104BC0003AA805F00BF83AA934A804F0DFFF070073
:104BD00031003DA804F05BFF3DA9380004F0D6FF8A
:104BE0000100200004F0DCFD3DA804F0FFFE3AA81F
:104BF00004F0FCFE34A804F0F9FE37A804F0F6FE39
:104C0000954943A804F043FF43A940A804F062FF7C
:104C1000924B18680AF0A0F8874A884B09F096FC76
:104C200002000B000227009746A804F0FDFF46A9EA
:104C300040A804F0ABFF0600814949A804F027FF13
:104C400049A9300004F0A2FF0100200004F0A8FDF3
:104C500049A804F0CBFE46A804F0C8FE40A804F022
:104C6000C5FE43A804F0C2FE7D494FA804F00FFF23
:104C70004FA94CA804F02EFF68680AF06DF86E4A40
:104C80006E4B09F063FC02000B00009752A804F081
:104C9000CBFF52A94CA804F079FF0600684955A83B
:104CA00004F0F5FE55A9300004F070FF010020006B
:104CB00004F076FD55A804F099FE52A804F096FE83
:104CC0004CA804F093FE4FA804F090FE65495BA841
:104CD00004F0DDFE5BA958A804F0FCFE624E012240
:104CE00031685EA804F07AFF5EA958A804F04EFF70
:104CF00005004D4961A804F0CAFE61A9280004F02E
:104D000045FF0100200004F04BFD61A804F06EFE99
:104D10005EA804F06BFE58A804F068FE5BA804F0DF
:104D200065FE524967A804F0B2FE67A964A804F0C2
:104D3000D1FE4F4B9946012219686AA804F04EFF34
:104D40006AA964A804F022FF050037496DA804F0A1
:104D50009EFE6DA9280004F019FF0100200004F058
:104D60001FFD6DA804F042FE6AA804F03FFE64A88F
:104D700004F03CFE67A804F039FE3E4973A804F035
:104D800086FE73A970A804F0A5FE3B4B19680222A9
:104D900076A804F023FF76A970A804F0F7FE0700B8
:104DA000364D290079A804F072FE79A9380004F084
:104DB000EDFE0100200004F0F3FC79A804F016FEDB
:104DC00076A804F013FE70A804F010FE73A804F097
:104DD0000DFE2B497FA804F05AFE7FA97CA804F0A1
:104DE00079FE284F0222396882A804F0F7FE82A9D2
:104DF0007CA804F0CBFE0290290085AB180004F0DB
:104E000046FE85A9029804F0C1FE0100200004F0CE
:104E1000C7FC85A804F0EAFD36E0C0463403002054
:104E20009C0200204C11010054110100BC0900201B
:104E300030030020901101006666666666127140BC
:104E400094110100981101005003002000007A44E1
:104E5000B0110100B4110100C41101003803002099
:104E6000D8110100F01101004003002000120100E0
:104E700044030020101201009402002024120100BB
:104E8000281201009802002082A804F0AFFD7CA83F
:104E900004F0ACFD7FA804F0A9FDA3498BA804F0A1
:104EA000F6FD8BA988A804F015FE032203998EA8AD
:104EB00004F094FE8EA988A804F068FE05009B49C2
:104EC00091A804F0E4FD91A9280004F05FFE010020
:104ED000200004F065FC91A804F088FD8EA804F081
:104EE00085FD88A804F082FD8BA804F07FFD904921
:104EF00097A804F0CCFD97A994A804F0EBFD3968BD
:104F00004B46186807F046FC011C02229AA804F0E0
:104F100065FE9AA994A804F039FE0290854D2900F7
:104F20009DAB180004F0B3FD9DA9029804F02EFE7D
:104F30000100200004F034FC9DA804F057FD9AA85D
:104F400004F054FD94A804F051FD97A804F04EFD20
:104F50007949A3A804F09BFDA3A9A0A804F0BAFD79
:104F60004B461968306807F01FFF396807F012FCDC
:104F7000011C0222A6A804F031FEA6A9A0A804F0F4
:104F800005FE06002900A9A804F081FDA9A93000AA
:104F900004F0FCFD0100200004F002FCA9A804F0CC
:104FA00025FDA6A804F022FDA0A804F01FFDA3A8DB
:104FB00004F01CFD6149AFA804F069FDAFA9ACA8DD
:104FC00004F088FD43465A46991A0A22B2A804F012
:104FD000AEFDB2A9ACA804F0D9FD05005849B5A8AA
:104FE00004F055FDB5A9280004F0D0FD0100200013
:104FF00004F0D6FBB5A804F0F9FCB2A804F0F6FC66
:10500000ACA804F0F3FCAFA804F0F0FC4D49BBA839
:1050100004F03DFD4C4B19680522BEA804F0DEFDEE
:10502000BEA9BBA804F0B2FD0100B8A804F052FD6F
:10503000B8A9200004F0B4FBB8A804F0D7FCBEA8BF
:1050400004F0D4FCBBA804F0D1FC4049C4A804F08F
:105050001EFDC4A9C1A804F03DFD3D4801F05CFE61
:10506000011C0522C7A804F0B9FDC7A9C1A804F016
:105070008DFD0100200004F093FBC7A804F0B6FCEE
:10508000C1A804F0B3FCC4A804F0B0FC3149CDA819
:1050900004F0FDFCCDA9CAA804F01CFD2C4801F0C9
:1050A00042FE011C0522D0A804F098FDD0A9CAA890
:1050B00004F06CFD0100200004F072FBD0A804F0A5
:1050C00095FCCAA804F092FCCDA804F08FFC2249FC
:1050D000D6A804F0DCFCD6A9D3A804F0FBFC1C483D
:1050E00001F023FE011C0522D9A804F077FDD9A9FF
:1050F000D3A804F04BFD0100200004F051FBD9A817
:1051000004F074FCD3A804F071FCD6A804F06EFC83
:10511000200004F03BFBDC239B009D441CBC90461C
:105120009946A346F0BDC0463C120100541101004F
:10513000441201004C120100501201005C120100E7
:10514000701201007412010090020020841201000C
:105150009C0200208C1201009412010010B502493B
:105160000120FFF747FA10BDFFFF000070B50500F2
:105170000C1E08D00021072005F056F90021072059
:1051800005F0D0F907E00121072005F04DF90021D5
:10519000072005F0C7F92C7070BD0078704770B516
:1051A00005000C00032911D0042902D0022923D1C3
:1051B00019E00021052005F037F90121062005F04E
:1051C00033F90021062005F0ADF921E00121052089
:1051D00005F02AF90021062005F026F90021052016
:1051E00005F0A0F914E00021052005F01DF90021CB
:1051F000062005F019F90BE00121052005F014F94E
:105200000021062005F010F90121052005F08AF99A
:105210006C7070BD10B504000021FFF7A7FF034BB1
:10522000197F2000FFF7BBFF10BDC04650030020D0
:105230004078704710B50548FFF744F80448FEF77A
:105240007BFF0448FFF76EF910BDC0467C020020CA
:10525000680200208002002010B50548FFF7A4F87E
:105260000448FEF7A9FF0448FFF7B0F910BDC04697
:105270007C0200206802002080020020704742105B
:105280005523134040005522904340B20343DBB204
:105290009A10332010409B00332293435BB20343A8
:1052A000DBB218011B091843C0B2704742080F4B0C
:1052B0001A4040000E4B1840104382080D4B1A4014
:1052C00080000D4B1840024313090C4803401201A3
:1052D0000B4802401343180A0A4A10401B020A4AAC
:1052E000134018431022D0417047C04655555555BC
:1052F000AAAAAAAA33333333CCCCCCCC0F0F0F0FCE
:10530000F0F0F0F0FF00FF0000FF00FFF0B5D64620
:105310004F464646C0B516001C0008AB04CB92466B
:105320001B7898460AAB1B78994601E029003800A3
:105330004D1EEDB2002914D0471C00784346002BC7
:1053400001D0FFF79CFF000644400822002AEDD060
:10535000002C02DA6400744000E06400013AD2B22A
:10536000F4E7504660404B46002B01D0FFF79EFF0C
:105370001CBC90469946A246F0BD0023037024222F
:105380008354704710B5012812D10A4B99420FD1AE
:10539000094C0A4B1B6820225021200000F088FE97
:1053A000074A0849200005F052FC0748FFF7E5FFCF
:1053B00010BDC046FFFF00007C0300201C00002041
:1053C000000000207D520000500300202423012211
:1053D000C254704730B595B0040005AD23220021BA
:1053E000280009F027FE2B216944636800220B7016
:1053F000180A4870180C88701B0ECB70272169445E
:10540000A3680B70180A4870180C88701B0ECB70BC
:1054100023216944E3680B70180A4870180C8870DF
:105420001B0ECB701E20684423691904090C0180EF
:105430001B0C43802F21694463690B70180A487064
:10544000180C88701B0ECB701A206844A3691904CD
:10545000090C01801B0C4380237FAB7323232B801B
:105460000292019200920023174A23212800FFF79D
:105470004DFF16226A4403041B0C1380000C50805D
:10548000802123232A00C900104800F04EFF104954
:105490000EA804F0FCFA29880A2211A804F035FBB2
:1054A00011A90EA804F072FB0A4904F07DFB01006B
:1054B000094804F075F911A804F098FA0EA804F050
:1054C00095FA15B030BDC046B71DC1047C0300205D
:1054D0009C120100A4120100BC09002010B50400B8
:1054E0002423C35C002B08D024230022C25404F0E0
:1054F0001DFCF530FF30094B1860084B1B68002B72
:105500000BD004F013FC054B1B68984205D9034BE4
:1055100000221A602000FFF75DFF10BD7803002015
:1055200033223321C17560310176273141767739D5
:1055300081769421C1744A310175A73941750631CC
:105540008175C2730274D4224274923A82749A2290
:105550008272013AC272503A0273422242730A22A4
:10556000C276CD320277343A4277683A82770022A7
:1055700082714032C271243A02722A32427202238C
:10558000837303001F33AC22C27719325A709E3ADC
:105590009A701132DA707047F0B599B004000D00BE
:1055A000010004A8FFF7BCFF232204A90FA809F0FB
:1055B00025FD8021C9002B4800F0D1FD40BA80B202
:1055C000002D27D1232825D8C5B280220FAF2B006C
:1055D000D2003900234800F072FE7B88BE88360472
:1055E0001E433E226A440023002111805180029311
:1055F000019300931C4A29003800FFF787FE86427A
:1056000008D0210004A8FFF78BFF232204A90FA8CC
:1056100009F0F4FC0FABD97D159A12020A436260BF
:10562000D97C149A12020A43A260D97B139A1202FF
:105630000A43E26059899A8912040A432261D97E99
:10564000169A12020A436261D9881A8912040A431F
:10565000A2619A7B2277DA7F179B1B021343236296
:1056600019B0F0BD7C030020B71DC10410B50021A6
:10567000FFF792FF10BD10B5040004F087FC200076
:1056800010BD000010B502490120FFF77BFE10BDE0
:10569000FFFF000010B50400002303704370837205
:1056A000C3600374143003330222024900F02AFB62
:1056B000200010BDAC09002010B5012805D1034B16
:1056C000994202D10248FFF7E5FF10BDFFFF00003D
:1056D0008803002010B5037C002B05D00023037441
:1056E0000121042004F01EFF10BD4B1EDBB21E2B57
:1056F00006D8012213008B40C1680B43C3600274BB
:10570000704710B5143000F032FC10BD10B50248DF
:10571000FFF7F7FF10BDC0468803002010B502490F
:105720000120FFF7C9FF10BDFFFF000070B50500A5
:105730000400143400222A21200000F0ABFA0C49A6
:10574000200000F06DFA0B49200000F065FA0321FB
:10575000022004F021FF0321032004F01DFF01219A
:10576000042004F061FE1F212800FFF7BEFF70BD7A
:1057700029590000F15A000070B58CB0050043783B
:10578000102B16D1C36803930893002B04D1012179
:105790000D2004F0C7FE03E000210D2004F0C2FE3E
:1057A0000023EB602B740021042004F0BBFE0426D0
:1057B00096E0012B15D1514B1B680493504B1B688D
:1057C000019305934F4B1B68019306934E4B1B6847
:1057D00001930793102204A908A809F00FFC1026D2
:1057E0007EE0802B05D1494B5B6803930893042628
:1057F00076E0402B05D1464B1B68039308930426A3
:105800006EE0412B05D1434B1B680393089304269C
:1058100066E0F12B06D14048FFF7BFFC08AB1870DB
:1058200001265DE0F02B06D13B48FFF701FD08ABF8
:105830001870012654E0002B11D104AA1388DB0A4A
:10584000DB0213803549049B194080231B010B4365
:1058500004930823D370049B0893042640E0F82B9C
:1058600006D12F4B02AA138008AA1380022637E024
:10587000F92B04D12B4B03930893042630E0112B12
:1058800005D1224B1A7808AB1A70012628E0A02B0C
:1058900005D11E4B9B6803930893042620E0A12B9F
:1058A00005D11A4BDB6803930893042618E0A22B5A
:1058B00005D1164B1B6903930893042610E0902B27
:1058C00005D1124B9B6903930893042608E0912BA2
:1058D00005D10E4B5B6903930893042600E0042670
:1058E0000024A64208D908AB195D2800143000F046
:1058F000D4FA0134E4B2F4E70CB070BD0CA080001F
:1059000040A0800044A0800048A0800050030020F8
:10591000380300203003002048030020FF0700FC6C
:1059200034120000DB0F494010B50248FFF724FF96
:1059300010BDC0468803002070B506000400143472
:10594000200000F025FA002803D0200000F00AFB18
:1059500070700023B3720725200000F019FA0028A8
:105960000DD0200000F0FEFAC0B2002DF4D0731963
:105970009870013DEDB2B37A0133B372ECE7B17ABE
:10598000002900D1ACE0002D14D00023994208D9A1
:10599000EA180132B2189078F21890700133DBB235
:1059A000F4E70B00072B05D8F218002090700133A4
:1059B000DBB2F7E77378112B05D1012903D1B27857
:1059C000484B1A708CE0802B17D1042915D1B07880
:1059D000F3781B0203433079000403437079000617
:1059E00018430400404906F0F1FC002800D03E4C6A
:1059F0003C484460FFF7EAFC72E0A02B10D1042978
:105A00000ED1B378F27812021A4333791B041A4389
:105A100073791B06134333488360FFF7D7FC5FE0BD
:105A2000A12B10D104290ED1B378F27812021A43B7
:105A300033791B041A4373791B0613432948C36047
:105A4000FFF7C4FC4CE0A22B10D104290ED1B3788F
:105A5000F27812021A4333791B041A4373791B0636
:105A6000134320480361FFF7B1FC39E0902B10D1BC
:105A700004290ED1B378F27812021A4333791B0449
:105A80001A4373791B06134316488361FFF79EFC84
:105A900026E0912B10D104290ED1B378F2781202AE
:105AA0001A4333791B041A4373791B0613430D48B9
:105AB0004361FFF78BFC13E0F02B06D1012904D1E1
:105AC000B1780A48FFF76BFB0AE0F12B08D10129F6
:105AD00006D1B1784B1E9941C9B20448FFF746FB85
:105AE00070BDC046500300200040354448030020EC
:105AF00010B501000148FFF71FFF10BD880300200B
:105B0000BFF34F8F034B044ADA60BFF34F8FC04699
:105B1000FDE7C04600ED00E00400FA0510B50648B8
:105B2000FEF7E4FE0548FFF797FB0548FFF7D6FCB4
:105B30000448FFF7CFFD10BD840200204C03002075
:105B4000500300208803002010B50121002004F03C
:105B50006BFC0121012004F067FC0121092004F005
:105B600063FC01210A2004F05FFC01210D2004F0F8
:105B70005BFC00210D2004F0D5FCE12149020D4819
:105B800001F07AFE0C4C200000F04EF80B4920008A
:105B900000F06CF80A48FFF7C9FD0A48FFF766FDF8
:105BA0000948FFF737FB0948FFF744FB0848FEF7B1
:105BB00055FD10BDBC090020D8050020A0860100BD
:105BC0008803002050030020480300204C030020DD
:105BD000840200200020704710B503689C6B0123ED
:105BE000A04710BD10B503681B6B0121984710BD7D
:105BF000F8B505000F0016000024B44209D22B6846
:105C00001B68395D28009847002801D00134F4E76B
:105C100026003000F8BD70478E239B00C1507047AE
:105C20008D239B00C150704770B505000D49006978
:105C300001F00CFC286901F024FA287D0A4C42008E
:105C40001218D300E3180821595604F0A5FC687D0A
:105C500043001B18DA00A4180821615604F09CFCCC
:105C600070BDC046A0860100D416010070B50400C6
:105C70000D00006901F019FA2900206901F0E6FB26
:105C8000206901F0FEF970BD10B5006901F00DFA50
:105C900010BD000070B50500006901F0B3FB286974
:105CA00001F0EFF9287D094C42001218D300E318E7
:105CB0000821595604F070FC687D43001B18DA0077
:105CC000A4180821615604F067FC70BDD4160100C9
:105CD00010B50022FFF7DEFF10BD00238022520026
:105CE00083500432835004328350704710B504004F
:105CF00080225200002109F09DF92000FFF7EDFFFE
:105D0000200010BDF0B5C64600B504008846170057
:105D10001E0000254560FA239B008360094B083371
:105D200003601830FFF7E2FF20002530FF30FFF757
:105D3000DDFF4346236127756675A575200004BC09
:105D40009046F0BDB812010010B5012808D1054BEE
:105D5000994205D11123102203490448FFF7D2FFCD
:105D600010BDC046FFFF0000B0090020D80500208C
:105D700010B504008C239B00C1542530FF30FFF781
:105D8000ACFF0123A37510BD84235B00C05870478E
:105D900010B51830FFF7F8FF10BD84235B00C05822
:105DA0000138FF3843425841C0B2704784235B003A
:105DB000C358002B04D082235B00C358C05C01E0B1
:105DC00001204042704710B51830FFF7EFFF10BDBB
:105DD0000131FF200840704770B504000E00FFF746
:105DE000DCFF00280DD180256D006359E654615910
:105DF0002000FFF7EDFF605184225200A3580133C9
:105E0000A35070BDF0B583B004000E00171E0193BF
:105E100040D018239C468444634600936046FFF7B5
:105E20005CFF01223100206901F0E9F900282ED041
:105E3000206901F044FA01000098FFF7CDFF012628
:105E4000BE4214D2206901F0C3F9051E0FD02069AB
:105E500001F076F90221206901F086F9206901F04C
:105E60002EFA01000098FFF7B7FF0136E8E7206936
:105E700001F052F9019B002B05D0002D03D02069C1
:105E8000032101F071F9002D03D1771E02E00027F4
:105E900000E03700380003B0F0BD70B50D00837D21
:105EA000002B0CD02530FF300400FFF776FF0028D0
:105EB00007D129002000FFF78FFF012002E000201A
:105EC00000E0002070BD70B5040084235B00C3585F
:105ED000002B0ED0822676008359C55C8159FFF7CE
:105EE00077FFA05184225200A358013BA350280001
:105EF00001E00120404270BDF8B506000D0000230E
:105F000083758C239B00C15C0022006901F077F946
:105F1000002805D13069032101F026F9022020E094
:105F200034002534FF342000FFF72EFF00280FD067
:105F300037692000FFF7C7FFC1B2380001F0BFF892
:105F40000028EDD13069032101F00EF9032008E0AB
:105F5000002D05D03069032101F006F9002000E092
:105F60000020F8BD10B51830FFF7ADFF10BD70B5BB
:105F70000400006901F01AF9002800D180E02069CE
:105F800001F089F900280ED1206901F08EF900286E
:105F900016D0206901F084F9002811D0206901F0A1
:105FA00089F900280CD1206901F0CAF80321206981
:105FB00001F0DAF88E239B00E558002D06D10AE0A7
:105FC000206901F072F900280AD123E023681B69D7
:105FD00020009847A84720001830FFF77EFE4FE0CA
:105FE000206901F0ADF80321206901F0BDF82069B6
:105FF00001F060F9002843D020002530FF30FFF782
:106000006CFE0123A3758D239B00E358002B37D032
:10601000984735E0206901F039F9002830D020692F
:1060200001F048F9002812D025002535FF35280059
:10603000FFF7AAFE002804D02800FFF744FFC1B2F2
:1060400000E0FF21206901F04EF8A07518E025005E
:1060500018352800FFF7A1FE002803D0206901F0C1
:106060005BF809E0206901F02AF901002800FFF738
:10607000B3FE206901F064F82069032101F074F88F
:1060800070BD000010B50248FFF771FF10BDC0469B
:10609000D805002010B502490120FFF755FE10BDBC
:1060A000FFFF00000300807A00229A727047000010
:1060B00010B5044C0834046043600172427200233E
:1060C000837210BD0813010070B58CB0050010007C
:1060D0001C00202B02DD0123AB721EE00A1203AB71
:1060E0001A705970002807D0002C05DD220001002D
:1060F0000E20684408F082FFAE7A002E0CD1297A77
:10610000A31C012201926332009203AA686800F086
:1061100071F9002800D10136AE720CB070BD30B5F7
:1061200083B0040000230022FFF7CEFF6B4600225D
:10613000DA71A57A002D09D1217A01236A46073246
:10614000606800F02BF9002800D10135A5726B467C
:10615000D87903B030BD10B5FFF7E1FF10BD70B5C1
:1061600005004E1CB6B2FFF7DAFF80B2000284B21F
:1061700031002800FFF7D3FF204380B270BDF0B597
:1061800083B00C004D1CADB20190FFF7C8FF0606AE
:10619000A71CBFB22900019D2800FFF7C0FF000423
:1061A00006430334A4B239002800FFF7B8FF000209
:1061B000064321002800FFF7B2FF304303B0F0BDD3
:1061C00000B583B0130001AA13700123FFF77CFF11
:1061D00003B000BD70B504000D0016000368DB6855
:1061E0009847B04204D0320029002000FFF7E8FFB2
:1061F00070BD70B506000C00150003685B69984718
:10620000A8420BD02A0AEDB221003000FFF7D8FFD8
:106210000134A1B22A003000FFF7D2FF70BDF0B503
:10622000C64600B506000C0015000368DB699847F8
:10623000A8421CD0631C9BB298462A0E2100300055
:10624000FFF7BEFFA71CBFB22A0CD2B241463000F6
:10625000FFF7B6FF0334A4B22A0AD2B239003000E5
:10626000FFF7AEFFEAB221003000FFF7A9FF04BC40
:106270009046F0BD0A8803889A4200D20800704711
:1062800070B582B00B001500467A3100180006F098
:1062900033F88CB26B46981C0680651901A90D80F5
:1062A000FFF7E8FF01880C1B6B461C80991D1E231D
:1062B0000B806846FFF7DEFF007802B070BDF0B5D6
:1062C000D6464F464646C0B504008A4691461F0052
:1062D00000239846002F23D0A37A002B20D14E46CE
:1062E0004644B6B23A0031002000FFF7C9FF05006E
:1062F0000023002231002000FFF7E6FEA67A002EE0
:1063000009D1217A524642442B00606800F046F8D9
:10631000002800D10136A672A8447F1BFFB2D9E73E
:106320001CBC90469946A246F0BDF0B5D6464F46F5
:1063300080B583B007008A4691461D000026002DD7
:1063400016DDBB7A002B13D153469C19A3B2EAB2D7
:10635000019319003800FFF793FF04004A46921991
:10636000030001993800FFF7AFFE2D1B3619E6E751
:1063700003B00CBC91469A46F0BD0000012807D13D
:10638000044B994204D1044B00221A601A715A71CD
:106390007047C046FFFF000014080020F8B5050054
:1063A00017001E000368DB6BC9B232009847002853
:1063B00015D000242B681B6928009847002809D0B5
:1063C000B44207D22B685B692800984738550134DE
:1063D000E4B2EFE7A41B60426041C0B200E00020DD
:1063E000F8BD000010B502490120FFF7C7FF10BD3E
:1063F000FFFF0000F0B585B0060001910292039303
:106400000AAB20CB1F786C426C41E4B20123002D13
:1064100017D0002C15D1002B03D13221154804F0E0
:1064200039FB3368DB6A6A46117930009847336874
:106430005B6B3000984743425841013D2300040004
:10644000E5E7002C13D03368DB6A6A461179300027
:10645000984733685B68039A02993000984733681D
:106460001B6B39003000984744424441E4B220009D
:1064700005B0F0BD84100020014B036081607047BF
:10648000D805002010B560291ED006D8202913D0C9
:10649000402915D000292AD10AE0A0291CD002D811
:1064A000802915D023E0C0291AD0E0291CD01EE095
:1064B000822003F085FC1AE0412003F081FC16E005
:1064C000202003F07DFC12E0102003F079FC0EE0A8
:1064D000082003F075FC0AE0042003F071FC06E0DC
:1064E000032003F06DFC02E0022003F069FC10BD04
:1064F000F8B504000E00150000680368DB6A217A15
:106500009847EFB22D0A206803681B68310098474E
:10651000206803681B6829009847206803681B6887
:1065200039009847206803685B6B9847F8BD10B541
:10653000040000220221FFF7DBFF80221202032168
:106540002000FFF7D5FF10BD70B504000D000068F6
:106550000368DB6A217A9847206803681B68290072
:106560009847206803681B6B0021984720680368E0
:10657000DB6B217A02229847206803681B699847E1
:1065800000280AD0206803685B699847C5B2206874
:1065900003685B699847C0B201E0002000252D0226
:1065A000401980B270BD000070B504000D000121DB
:1065B000FFF7CAFF034A02402A4301212000FFF7E8
:1065C00097FF70BDFC7F000070B504000D00012135
:1065D000FFF7BAFF034A02402A4301212000FFF7D8
:1065E00087FF70BD1F7F000010B50121FFF7ACFFD2
:1065F000C0B21F23984310BD70B505000C000121E7
:10660000FFF7A2FFEC80044A024022430121280048
:10661000FFF76EFF70BDC046FF7E0000F0B5CE46AE
:10662000474680B585B004000D0083889846012157
:10663000FFF78AFF0700461207231E40043B034072
:106640009946802149002000FFF7D6FF8023DB0018
:106650009D421CD006D8002D11D080239B009D4266
:1066600011D023E080231B019D4218D0A0231B01E1
:106670009D4218D0C023DB009D4217D10BE0C02300
:106680005B01A38012E080235B01A3800EE08023E6
:106690001B01A3800AE08023DB00A38006E08023A7
:1066A0009B00A38002E080235B00A380AE4243D026
:1066B0004B46032B40D003212000FFF745FF06B2D5
:1066C000404608F0DDFA00900191A08808F0D8FA61
:1066D00002000B000098019907F0BCF802900391AA
:1066E000300008F0CDFA029A039B07F0BDFC08F0D9
:1066F00091FA82B203212000FFF7FAFE0221200066
:10670000FFF722FF06B2A08808F0BAFA02000B00D9
:106710000098019907F09EF800900191300008F070
:10672000AFFA009A019B07F09FFC08F073FA82B25F
:1067300002212000FFF7DCFE094A3A402A430121EA
:106740002000FFF7D5FE2000FFF74EFF01002000DC
:10675000FFF798FE05B00CBC90469946F0BDC046C8
:10676000FF71000010B5040000680368DB6A217A3D
:106770009847206803685B6B984700281BD10F4A35
:1067800001212000FFF7B4FE8021C9002000FFF79F
:1067900045FF8022120202212000FFF7A9FE084ACD
:1067A00003212000FFF7A4FE80235B00E380002389
:1067B0002373012000E0002010BDC0468385000047
:1067C000FF7F000070B504000121FFF7BDFE05004A
:1067D00000212000FFF722FFE28880235B009A421D
:1067E0000AD100212000FFF707FF2000FFF7FCFE81
:1067F00001002000FFF746FE00212000FFF7A4FE65
:10680000002805D000212000FFF79EFE00B205E021
:1068100000212000FFF798FE404200B2144B98423E
:106820000DDD144B98420DDD134B98420DDD134BDB
:1068300098420DDD124B98420DDD00260DE0A0269A
:1068400036010AE08026360107E0C026F60004E0A3
:106850008026F60001E08026B6002A0001212000F3
:10686000FFF746FE31002000FFF7D8FE70BDC0469E
:1068700044040000880800001111000021220000DB
:106880004344000070B505000E000121FFF75CFED7
:106890000405240D3443220001212800FFF728FEBF
:1068A000E3050BD42800FFF79FFE04000100280039
:1068B000FFF7E8FD21002800FFF7E4FD70BD0000B0
:1068C00010B504000121FFF73FFE044A024392B2D3
:1068D00001212000FFF70CFE10BDC0460080FFFF25
:1068E00010B504000021FFF72FFE030000B2227B49
:1068F000002A27D0C11742184A4013498A420DDDA9
:10690000A188C0225201914208D02000FFF75AFF0F
:1069100000212000FFF718FE00B213E00B4A944656
:1069200063449BB20A4A93420CD8A28880235B003E
:106930009A4207D02000FFF745FF00212000FFF713
:1069400003FE00B210BDC046666600004726000088
:106950008E4C0000D0B50400FFF7C2FF08F090F99C
:106960000022FC239B0507F07FFB06000F00A08898
:1069700008F086F932003B0007F076FB08F03EFA9B
:10698000D0BD000010B5FFF7E5FF024905F002FF9A
:1069900010BDC04600007A44F0B5D6464F4680B5DB
:1069A00085B007005423C35C002B00D1B2E003F094
:1069B000C3F98246FA6D831A5422BA5C022A03D0C4
:1069C000BA6D9A4200D9A7E0BB6C1B689946396F33
:1069D000181C06F0E9F9061C3B6D1868494606F0DC
:1069E000E3F9F8665523FB5C012B05D180231B06D8
:1069F0009C466044F8666644311CF86B06F0A2F8C9
:106A000000907861FD6E291CB86B06F09BF8019030
:106A10003861396B281C06F095F8041CB861311CEC
:106A2000786C06F08FF802903862396C281C06F0FA
:106A300089F80390F861396E201C05F011FD041CE3
:106A40003866BE6E311C05F0C1FC002809D0311C2F
:106A5000201C06F0A9F9011C201C06F0A5F93866D7
:106A60000FE07D6E291C201C05F09CFC002808D03E
:106A7000211C281C06F098F9011C201C05F0F0FCD4
:106A800038663D6E7C6E211C281C05F08BFC0028AE
:106A900007D1291C301C05F085FC002802D0351CCC
:106AA00000E0251C0099281C06F07EF9051C011C3D
:106AB000201C05F08BFC002807D1291C301C05F098
:106AC00071FC002802D0351C00E0251C3D66291C05
:106AD000019805F0C5FC029906F066F9011C0398BF
:106AE00005F0BEFC051C011C201C05F06FFC0028F5
:106AF00008D1291C301C05F055FC002801D0341C9D
:106B000000E02C1CFB6C1C604B463B675346FB654E
:106B1000012002E0002000E0002005B00CBC9146FE
:106B20009A46F0BDF0B583B007000C1C151C1E1C66
:106B30000021201C05F036FC002842D10021281C31
:106B400005F030FC00283CD10021301C05F02AFC67
:106B5000002836D1089B7B62099BBB627C60BD60CC
:106B6000FE60B86D06F01AFB174905F013FEFC62D3
:106B70000190011C281C05F0E5FF38630199301CC9
:106B800005F008FE051C78630899201C05F0DAFF63
:106B9000B8630899FE20800506F006F9211C05F06F
:106BA000D1FFF8630999281C05F0CCFF38640999D6
:106BB000FE20800506F0F8F8011C281C05F0C2FF35
:106BC000786403B0F0BDC04600247449F0B583B0CA
:106BD00004000D1C161C111C281C05F001FC0028CB
:106BE00029D16566A6665423E35C002B23D0E76CAD
:106BF0003B68291C0193181C05F0D4FB002808D120
:106C0000311C019805F0E2FB002801D0351C00E0A2
:106C1000019D3D60266E656E291C301C05F0C2FB8F
:106C2000002807D1A56E291C301C05F0CFFB0028D9
:106C300000D1351C256603B0F0BD70B50400C36CEF
:106C40001E680666836C1B680367456E291C301C32
:106C500005F0A8FB002807D1A56E291C301C05F003
:106C6000B5FB002800D1351C256670BD70B5040049
:106C70000D005423C35C002B03D1002901D0FFF782
:106C8000DCFF5423E55470BD5523C1547047000008
:106C900070B582B004000BA8057854200026265455
:106CA000E264A16423650E4A00212000FFF78EFFF5
:106CB0000C4BA36529002000FFF7E6FF0A9B019318
:106CC000099B0093089B079A06992000FFF72AFF6B
:106CD00003F032F8A36DC01AE065200002B070BD69
:106CE00000007F43A086010070B586B00400FE203E
:106CF000800560620025A562002605960495039034
:106D00000C9802900B9801900A9800902000FFF7D1
:106D1000BFFF200006B070BD10B5030000695969BF
:106D200005F09EFB10BD8069704710B50300C06977
:106D3000196A05F095FB10BD7047016042608360E1
:106D4000009BC360019B0361704770B504000E1C7B
:106D5000006806F029F86568291C05F01BFD011C78
:106D6000301C05F017FD291C05F014FD03F076FF1B
:106D7000216905F00FFD051CE168FE20800505F086
:106D800009FD011C281C05F06BFB011CFE20800581
:106D900005F000FD70BD7047F0B58BB00C1C32499A
:106DA000201C05F0CFFE06900021201C05F004FBFE
:106DB000002852D10027002500230893722F15D8F0
:106DC000FB002A4A9C580699201C05F0FFFA00286F
:106DD00004D0FE00254B9E19B68809E0FA00234B2B
:106DE0009B189D880137BFB20894E7E7002600246E
:106DF000211C089F381C05F0E9FA00282FD100213A
:106E0000201C05F0C9FA002805D00021381C05F027
:106E1000C3FA002825D1089807F09EFF0890099131
:106E2000069807F099FF06900791300007F062FF7F
:106E300004900591280007F05DFF02900391201C4B
:106E400007F08AFF00900191089A099B069807991C
:106E500003F0D7FE07F0D2FF04E0002002E0044870
:106E600000E003480BB0F0BD00007A443C13010081
:106E7000F0237449F0B583B001282ED1184B994204
:106E80002BD1184F1849380000F060F817491848FE
:106E900000F05CF81749184800F058F817491848EE
:106EA00000F054F81749184800F050F8174D1849E9
:106EB000280000F04BF801240194032600962300DB
:106EC00000223900134802F085F90194009623232B
:106ED00024222900104802F07DF903B0F0BDC0461D
:106EE000FFFF0000A409002000080042000C00423F
:106EF000A809002000100042AC0900200014004244
:106F0000B009002000180042B4090020B809002090
:106F1000001C0042E00800201C08002010B50248B8
:106F200002F0CBF910BDC046E008002010B50248C1
:106F300002F0C3F910BDC0461C08002010B502497C
:106F40000120FFF797FF10BDFFFF000001607047B1
:106F5000F0B5944605AC257807683E689C1E621E15
:106F60009441240662469207224332433A60046801
:106F7000606807221140AD012943022B01D05B0359
:106F800000E000230B4303436360F0BD70B5056868
:106F90002C680904C0239B0219401205C026B603C1
:106FA0003240114321432960026851680B4353600A
:106FB00070BD0268116801230B43136003681A68EF
:106FC000D207FBD4DB69DB07F8D47047026811688D
:106FD00002230B4313600368DB699B07FBD47047F4
:106FE00003681B7E9B07FBD57047036800225A830A
:106FF00070470368187E4007C00F70470368187E0B
:10700000C00970470268117E80235B420B431376F0
:1070100070470368588B8007C00F70470268538B16
:1070200002210B43538370470368187EC007C00FCB
:1070300070470368188DC005C00DC0B2704770B5A9
:1070400004000D002000FFF7EFFF0028FAD02368AE
:10705000ADB21D85012070BD036801229A7570478D
:10706000036801221A7570470268116801230B43F7
:10707000136003681A68D207FBD4DB69DB07F8D416
:1070800070470268116802230B4313600368DA69D2
:107090009207FBD45A8B30218A4310210A435A832A
:1070A0000368DB695B07FBD4704703681968022239
:1070B000914319600368DB699B07FBD47047282361
:1070C0000268D15403681A7ED20703D45B8BDB07B6
:1070D000F8D504E05B8B5B0703D5002002E00020BD
:1070E00000E00120704728230268D15403681A7E0B
:1070F000520704D55B8B5B0703D5002002E000201C
:1071000000E00120704703681868C006400F05388A
:1071100043425841C0B2704710B50400FFF7F3FF77
:10712000002806D0226851688023DB020B4353609D
:1071300005E0226851688023DB020B43536010BDD9
:1071400010B50400FFF7DFFF002805D02268516862
:10715000044B0B40536004E022685168014B0B4024
:10716000536010BDFFFFFBFF70B504000D00FFF77B
:10717000CAFF00280DD02268536803212940090462
:1071800009480340194351602368DB695B07FBD45E
:1071900008E022685368032129400904024803409B
:1071A0001943516070BDC046FFFFFCFF03681868BB
:1071B000C006400F043843425841C0B270470368CC
:1071C000588B8006800F013843425841C0B2704747
:1071D0000368588B8006800F023843425841C0B282
:1071E00070470368588B8007C00F70470368588B3F
:1071F0008006800F033843425841C0B27047F8B54B
:107200000400170049001143CDB2FFF7E1FF061E4D
:107210000ED12000FFF7EAFF002835D12000FFF74C
:10722000E0FF002804D02000FFF7C9FF061E2BD086
:107230002268536ADB0ADB022B435362002F0ED114
:1072400023681B7EDB07FBD52000FFF7C1FF00286A
:1072500013D169083A002000FFF7D1FF0DE0236841
:107260001A7E920709D41A7ED207F8D55968C0222F
:1072700092020A435A60002606E023685B8B5B0794
:1072800001D5002600E001263000F8BD0368187E15
:107290004007C00F70470368187EC007C00F7047D3
:1072A0000368588BC006C00F70470368187E8007BC
:1072B000C00F70470368588B0007C00F704710B5A8
:1072C0000400FFF720FF00280AD023681A7E9207E7
:1072D00002D41A7ED207F8D52822985CC0B203E007
:1072E00022682823D05CC0B210BD000030B503680E
:1072F000204A934211D0204A934211D01F4A934210
:1073000011D01F4A934211D01E4A934211D01E4AF7
:1073100093422DD10E2419250DE0092414250AE0ED
:107320000A24152507E00B24162504E00C24172554
:1073300001E00D2418250123A34014480360A3088D
:10734000C0339B00195803222240D200FF249440EE
:10735000A143C024944022000A431A508023DB0139
:107360002B430B4A53800A4B5B785BB2002BFADB52
:1073700030BDC04600080042000C00420010004230
:107380000014004200180042001C004200E100E02E
:10739000000C0040F8B505000E0017001C00FFF7B8
:1073A000A5FF2800FFF705FEB2001C2313407A0753
:1073B000120C296813430B6084232A689375012EED
:1073C0001CD1012F01D1102100E008210C4B1868BD
:1073D000C000614304F020FE2968072202408B8927
:1073E0005203DB04DB0C13438B81C0082A689389AA
:1073F000C004C00C5B0B5B0318439081F8BDC04612
:107400003000002070B504000E001500FFF76EFF7D
:107410002000FFF729FE21680A681C239A430C3BD1
:1074200013430B6076002368FF2131405962002D21
:1074300004D02268536A01210B4353620723226858
:1074400093752368DB695B07FBD470BD70B50500DD
:107450000C00FFF74BFF2800FFF706FE2B681422F5
:107460001A600E4B1E686100300004F0D5FD040068
:107470000B49300004F0D0FD43011B1A9B00181883
:10748000FA21C90004F0C8FD2A68201A0538D3681B
:10749000FF2108408B431843D06070BD30000020AE
:1074A00040420F000020704708B4024B9C46103841
:1074B00008BC6047A574000010B50022072A0CDC48
:1074C0000F2303400009092B01DD373300E030337F
:1074D0000724A41A0B550132F0E710BD10B50C00BB
:1074E0000B4B1868FFF7E8FF0A4B186821000831BA
:1074F000FFF7E2FF084B186821001031FFF7DCFFAF
:10750000064B186821001831FFF7D6FF202010BD68
:107510000CA0800040A0800044A0800048A0800013
:1075200008B4024B9C46103808BC6047DD7400006C
:107530003F20704710B5064B1B685A1C05D10368E5
:107540005B6998470300024A1060180010BDC046EE
:107550002C00002010B582B06B46D9710733026849
:10756000546801221900A04702B010BDF0B5CE4604
:10757000474680B593B006000B7802330B7001AC20
:107580000225402200216B46981D07F053FD082379
:10759000237003336370E57025716571023B994672
:1075A000237204206072012121736573A573052382
:1075B00063742422A2741027BC4627756175A075D8
:1075C000E275257606276776A376E2762777E37756
:1075D0002027E2550137E1550137E1550137E155E3
:1075E0000631A1540132A3540232203FA75462460F
:1075F00022852A226746A75401324F46A7540132FA
:10760000A0540332A55401320630A0540432A154D0
:107610000132A3540232A55409322287053AA154FB
:107620000132A3543933E55405336B4404321A70E4
:1076300000225A70337DA370A37263770133DBB2EB
:10764000A377727D87390D0015431C302554073010
:107650002354501C3623E054023252B20A430733FB
:10766000E25442222100044800F03EFD13B00CBC5D
:1076700090469946F0BDC046180A002008B4024B57
:107680009C46103808BC60476D75000070B50C0052
:10769000097865782379027D9A423ED1A12908D1E3
:1076A000212D06D107222049204800F01DFD012090
:1076B00038E0212933D1202D04D107221A491B4853
:1076C00000F034FC222D02D1A278174BDA71202D64
:1076D00001D0222D13D1144B1A689623DB009A4255
:1076E00007D1114BDB79DB0703D4FA2002F0D4FF7A
:1076F00001E002F0DBFF00210C4800F031FE232DF9
:107700000FD1E3781B02A2781343094A13600021CA
:10771000064800F025FE012004E0002002E00020E1
:1077200000E0012070BDC04624000020180A00209F
:107730002000002008B4024B9C46103808BC60476B
:107740008D76000010B50300006A597D013100F00C
:1077500003FB034B1B6801335A1E9341C01810BD35
:107760002C00002010B50200074B1868431C04D001
:10777000054B012252421A6004E0106A517D01312A
:1077800000F08AFB10BDC0462C00002010B503009D
:10779000006A597D023100F0F7FA10BD10B5030000
:1077A000006A597D023100F0AFFA10BD10B5040037
:1077B00008001300617D02310200206A00F0CAFB5C
:1077C000002801D10123636010BD7047704700009D
:1077D00070B5040000224260FA239B00836005001C
:1077E0001035030028330320A0750138E075A3612C
:1077F000E2610A4B1E000836266040332361216295
:107800002423E2545F33A362E062013B236301F06F
:1078100079FF290001F044FF200070BD541B0100D6
:1078200010B5012806D1044B994203D103490448FD
:10783000FFF7CEFF10BDC046FFFF0000180A002072
:10784000BC09002010B5437D0A4A12685B01D318B9
:107850000933FF335978022421435970437D0133A2
:10786000DBB25B01D3180933FF335A7801210A4395
:107870005A7010BDD40E00207047000010B50249A8
:107880000120FFF7CDFF10BDFFFF0000704782B061
:10789000836D002B1FD1A833C25CD2B2EFF31083EB
:1078A00000930123019372B6019B591E0191002B95
:1078B00003D0A823C25CD2B2F6E70099002902D116
:1078C00062B6BFF36F8F002A22D0A423C358A02230
:1078D00080581B1A1CE0EFF31083009301230193DF
:1078E00072B60022019B591E0191002B03D0F42394
:1078F000C25CD2B2F6E70099002902D162B6BFF3AA
:107900006F8F002A04D0F023C358EC2280581B1A32
:10791000180002B07047000030B583B041680C68B1
:10792000FF23426D13401A0008325201A218D27987
:10793000D20700D4A5E05A018A1892689204920CEA
:1079400014D15A0189188D684F4A1540802252037C
:107950002A438A608A68920B95038D6008335B0125
:10796000E418237940221343237180E0C46D002C76
:107970003ED1A4340251A33CC4650200AC325B0189
:10798000C9184A60EFF310830093019472B6019B0B
:107990005A1E0192002B24D0A8230122C2544C333A
:1079A000C35CDBB2F4328354835C002BEFD14568B7
:1079B000FF33426D13405A01AA18946832490C40B3
:1079C00080214903214391609168890B8C03946065
:1079D0002A6808335B01D3181A7940210A431A71C7
:1079E000D5E7009B002B42D162B6BFF36F8F3EE01C
:1079F000F02402510022C265020060325B01CB1804
:107A00005A60EFF3108300930123019372B6019B38
:107A10005A1E0192002B24D0F4230122C2544C3B65
:107A2000C35CDBB2F4328354835C002BEFD1456836
:107A3000FF33426D13405A01AA18946812490C4052
:107A400080214903214391609168890B8C039460E4
:107A50002A6808335B01D3181A7940210A431A7146
:107A6000D5E7009B002B02D162B6BFF36F8F43684E
:107A7000416D1A68FF230B4008335B01D3187F2246
:107A8000DA7103B030BDC046FF3F00F001280AD1D3
:107A9000054B994207D1054B054A1A600723002B75
:107AA00001DB013BFBE77047FFFF0000D40E002025
:107AB0000050004110B5040002F068FA200010BD2B
:107AC00030B583B00D006B46DC1D0023237001F040
:107AD00019FE210001F0A0FD2B689C46604428603F
:107AE000207803B030BD0000F8B504000025564BE7
:107AF0001D7001211F2002F097FC01211F2002F0C0
:107B000011FD524B1D7001211E2002F08DFC012140
:107B10001E2002F007FD4E4AD36920210B43D3619A
:107B20004C4B38315A5C01252A435A543C22985C0C
:107B3000493988439854985C062108439854592041
:107B4000195C29431954995C4A3801409954995C4D
:107B5000602001439954404B404A5A803E4B5B7829
:107B6000DB09FBD13E4802F0DBF83E4804C813783D
:107B700001210B43137080225200002107F05AFAB2
:107B8000384B1B689A78D207FAD4374A5A62374B77
:107B900019684A0B1F2002408B0C1840C90D07239F
:107BA00019401F2A00D11A3A1F2800D1023807298C
:107BB00000D104392B4B1F273A401D682E8D9201AE
:107BC0002B4D2E4032431D682A851D682A8D0740A3
:107BD0001F2082431000384328851D682A8D080322
:107BE00024491140014329851868C2780C218A4331
:107BF00008252A43C2701D68EA78032082430220C8
:107C00000243EA701D682E787F2232402A701D6878
:107C10002A78042632432A701D682A898A432A81D9
:107C20001549C125AD004A591202120A4A51802253
:107C30000A601A681378034313700123237000212C
:107C40000E48FFF719FEF8BD390A0020380A002057
:107C50000004004000440041000C004006400000C9
:107C6000F5880000D40E0020D80E0020246080008B
:107C70003FF8FFFFFF8FFFFF00E100E0BC0900209D
:107C80000078002810D0094B1B681A8901218A430B
:107C90001A811A8B08210A431A831A8B04210A437A
:107CA0001A83034B00221A607047C046D40E00208E
:107CB000CC0E002010B5124A93699B0B980390617B
:107CC00012680823FF330220D0540624FF34105DCD
:107CD000883BFF3B034313550823FF33D35C9B07CB
:107CE000FAD5084A937A7F2008407F218B431900F8
:107CF00001439172917A80235B420B43937210BDD2
:107D0000D40E00200050004110B58A010B4BD21850
:107D1000FF2319400A484B01C3185A619A69920B14
:107D200094039C6103680831490159180223CB71FF
:107D30004A79823B13434B7110BDC046440A002070
:107D4000D40E002008314901024B9C466144202397
:107D50004B7170470050004110B58A00084BD05855
:107D6000002803D003689B68984707E0FF23194069
:107D70004901044B591888688004800C10BDC04626
:107D80001C0A0020D40E002010B50C00FFF7E4FF01
:107D900000280DD0074B1B68FF2121400831490105
:107DA00059184A7980235B4213434B710223CB71EC
:107DB00010BDC046D40E0020F0B583B001900F0076
:107DC00000921C002F4B1B68002B55D02E4B1B78AC
:107DD000002B03D100211E2002F0A4FB2A4B6422B9
:107DE0001A70BB00294A9858002806D003685B68BF
:107DF000220000999847040040E039000198FFF7FD
:107E0000ABFFA04204D239000198FFF7A5FF0400A0
:107E1000FF263E401E4B710158188268920B950355
:107E200085601B685B180933FF331A7801210A4308
:107E30001A70BB01174959182200009807F0DEF8A4
:107E4000002C1BD039000198FFF786FF002815D1C0
:107E50000F4B1A68330008335B01D318197940209F
:107E6000014319710121D9717301D3180933FF330B
:107E70005A780A435A7001E001246442200003B09A
:107E8000F0BDC046CC0E0020380A00201C0A00209D
:107E9000D40E0020040C002000B583B001236A46F4
:107EA0000732FFF789FF012802D16B46D87901E03C
:107EB0000120404203B000BD10B58A01184BD21812
:107EC000FF231940174C4B01E3185A609868164A73
:107ED00010408022520302439A609A68920B9003EA
:107EE000986022680B0008335B01D318187940248E
:107EF000204318710B0008335B01D3189B795B0694
:107F0000F8D50B0008335B01D318DB79DB07F8D514
:107F10004901044B591888688004800CC0B210BD18
:107F2000040C0020D40E0020FF3F00F070B50D00BF
:107F300014000021FFF7C0FFA04200D92000002359
:107F4000A34204D2024AD25CEA540133F8E770BD7E
:107F5000040C0020F8B5DE4657464E464546E0B5CF
:107F60000E0091461F00464B1B68002B7AD08023E1
:107F7000DB019F427AD8434B1B78002B03D10021B1
:107F80001F2002F0CFFA3F4B64221A70002398465C
:107F9000002F6ED03C4B1D68FF2434402300083373
:107FA0005B01EB189B79DB0927D0384B18683849FF
:107FB00004F032F8374B5843172104F02DF800E055
:107FC0001800230008335B01EB18DB799B0714D4FE
:107FD000314B9B5D002B02D1431E0028F0D12E4B6C
:107FE00001229A556401284B1C19A3699B0B9A0323
:107FF000A26101235B4298463BE0274B00229A5541
:108000003F2F0AD96201204B9B18996980221206E2
:108010000A439A6140239A4600E0BA46B3011F4AD8
:108020009B46934452464946584606F0E7FF620194
:10803000154B9B185A465A61996952469204920C04
:10804000890B89030A439A61083464012D190223BC
:10805000EB716A79823B13436B71D0445346FF1A2C
:10806000D14495E701235B42984602E001235B423D
:10807000984640463CBC90469946A246AB46F8BD61
:10808000CC0E0020390A0020D40E00203000002041
:1080900040420F00701101003C0A0020440A0020F9
:1080A00070B50E0011001C00B5010C4BED1822003C
:1080B000280006F0A3FFFF2131404B010849C918F1
:1080C0004D618A69074B13408B618A69A3049B0C3D
:1080D000920B920313438B61200070BD440A002071
:1080E000D40E0020FF3F00F0F0B583B001900E00E9
:1080F0001700104B1B78002B19D10F4B1B78002B4E
:1081000008D00E4D2C880E48201806F077FFE41991
:108110002C800CE014000025002C08D072192300DC
:1081200000210198FFF7BCFF2D18241AF4E738004E
:1081300003B0F0BDC40D0020C80E0020CA0E002000
:10814000C80D002070B50C001500012A29D91000B7
:1081500006F02EFF0600200007F0BEFC01304000B4
:108160003070032373700222AA420FD221780029B3
:108170000CD00134531CDBB2B154AB4205D0F31820
:10818000002119700232D2B2EEE71A00310006481F
:10819000FFF7AAFF441EA041C4B2300006F012FF50
:1081A00000E00024200070BD180A002010B500294E
:1081B00006D0084B01221A70074B00221A8007E0F4
:1081C000044B00221A70044B1A880449FFF78CFFF5
:1081D00010BDC046C80E0020CA0E0020C80D0020E9
:1081E000F0B587B001900C00002505951B4E0127C6
:1081F000377005A9FFF764FC02AB9D71092302AA41
:108200001370073B53705771A023D3715A33137205
:10821000059B09335380130010713570092C05D16B
:10822000092219000198FFF75FFF13E0002305936F
:108230000121019C2000FFF7B9FF092202A92000BB
:10824000FFF752FF05A92000FFF73AFC00212000AC
:10825000FFF7ACFF012007B0F0BDC046C40D002001
:1082600070B592B006000C00CD78022D0AD18B7942
:10827000C979090219433548FFF7B2FF431E9841F7
:10828000C0B261E001F03EFA210001F0D9F9002806
:1082900003D0C317181AC00F56E0012D08D1A379D7
:1082A000E27912021A43112A3DD8D2B228493CE0A1
:1082B000032D44D1A278002A07D1A179E3791B02CA
:1082C0000B43032B2CD923492FE0022A08D1A37991
:1082D000E27912021A4320493000FFF733FF33E0FE
:1082E000012A08D1A379E27912021A431B4930000E
:1082F000FFF728FF28E0032A23D13E32002101A8FE
:1083000006F098FE01F0FEF901A901F0A9F9A379A0
:10831000E27912021A4301A93000FFF713FF13E0BC
:10832000DAB20C4901E00A49002200290BD0002AE8
:1083300000D10A783000FFF7D7FE012004E00020CA
:1083400002E0002000E0002012B070BD180A0020FA
:10835000101C0100041C0100F81B0100081C010096
:10836000FF230B405B010349C9188B699B0B9A03E0
:108370008A617047D40E002070B505000C0001F032
:10838000C1F9210001F07CF9041E03D1002128006D
:10839000FFF7E6FF200070BD00230370012242704A
:1083A000436007330372704783000148C018704769
:1083B000F0090020836C4020C01A7047806C704721
:1083C000836C002B02D0436CC05C01E00120404272
:1083D00070470023036443648364704710B504004E
:1083E0004022002106F026FE2000FFF7F2FF2000C9
:1083F00010BD0000F8B50C00832A19D1FF230B40F3
:10840000714E5A01B218906970490840C02189051F
:1084100001439161A4016E496418546131680833C5
:108420005B015A5C70208243402002435A54CAE0E8
:10843000022A6FD18B00674A9858002802D003683F
:108440005B699847F82001F09DFD0500624B0360D1
:108450005D4B43600830FFF7C1FF6C650023AB65DF
:10846000EB65A022AB500432AB500432AB54443223
:10847000AB500432AB500432AB540132AB54FF3337
:108480001A002240520169688C46624490684F4944
:108490000840C0218905014391606A6810686A6DCF
:1084A0001A4008325201115C0726B14303263143BA
:1084B0001154290060316A6D1A405201686884467F
:1084C000624451606A681268696D19404901521826
:1084D0000932FF3251780120014351706E686A6D94
:1084E00013405A01B21890683C4908408021490362
:1084F000014391609168890B88039060326808336A
:108500005B01D3181A7940210A431A71A400314B38
:10851000E55058E0822A19D1FF230B402A4D5A0119
:10852000AA18906929490840C02189050143916131
:10853000A401274964185461296808335B015A5C17
:1085400070208243302002435A543CE0002A3AD142
:10855000FF320A401C48510141188B681B4F3B40B9
:10856000C026B60533438B60A4011D4BE3184B6056
:108570000068130008335B011D5C0722954301224C
:1085800015431D54102294468C44624695683D4024
:108590002E4396600E4AA4184C611A5C7024A243C4
:1085A000102422431A548C680C4A1440802252032F
:1085B00022438A608A68920B94038C60C3181A79EC
:1085C00040210A431A71F8BDD40E0020FFFFFF8F2F
:1085D000440A00201C0A0020DC1B0100FF3F00F0C1
:1085E000040C002070B505000124092C0BD8A30051
:1085F000054A9A58002A06D021002800FFF7FAFE03
:108600000134E4B2F1E770BDF009002030B583B069
:1086100005000C004B780B2B00D98AE09B00484AE0
:10862000D3589F46002089E00B78002B08D101AA7F
:108630001370537002330021FFF732FD01207DE0FB
:1086400001AB00221A705A703E4B1B78012B02D1ED
:1086500001AB01321A70022301AA00212800FFF7A2
:108660001FFD01206AE08B78012B12D101AB0022A3
:108670001A705A70344B1B78012B02D101AB0132B6
:108680001A70022301AA00212800FFF709FD01202A
:1086900054E02C4B00221A700021FFF761FE0120EC
:1086A0004CE08B78012B0BD1274B01221A7001AAC9
:1086B0000023137001330021FFF7F2FC01203DE09D
:1086C000002B38D11F4B01221A700021FFF748FE02
:1086D000012033E08978FFF7EDFA01202EE0FFF763
:1086E000BFFD2BE00123194A0021FFF7D9FC01202F
:1086F00024E00B78DB0620D1FFF774FFA278134B40
:108700001A601348FFF79EF800212800FFF728FEA3
:10871000012013E001230F4A0021FFF7C1FC0120D3
:108720000CE08A780B4B1A600021FFF719FE01203C
:1087300004E0012002E0012000E0002003B030BD91
:10874000A41B01003A0A0020430A0020CC0E00209E
:10875000BC090020D00E002070B582B004005D4B33
:108760001B78002B00D0B2E05B4B1B689A8B120782
:1087700010D508229A8300220021FFF73BFE564BBA
:1087800019680A22FF328B5C102003438B54534B31
:1087900000221A60504B1B689A8B520721D5042285
:1087A0009A834F4B1B78002B0BD04D4A1378013B1B
:1087B000DBB213701378002B03D101211F2001F0CD
:1087C000B1FE484B1B78002B0BD0464A1378013B77
:1087D000DBB213701378002B03D101211E2001F0AE
:1087E000A1FE3D4B1B680822FF329A5C920605D51C
:1087F000842149005A5C202002435A540822FF3247
:108800009A5CD20639D56A463749100060C960C003
:1088100031488168890B8D03856082204000195C96
:10882000402529431954137860221A4204D169461D
:108830002000FFF7EBFE03E069462000FFF79CFDF8
:10884000002809D0244B19680622FF32885C802357
:108850005B4203438B5403E000212000FFF772FAD0
:108860001D4B1B680822FF329A5C520605D58421F5
:1088700049005A5C402002435A54174B1A68082397
:10888000FF337F21D1540124072C20DC124B1B68BD
:10889000FF2525402A00083252019B18DB79002B66
:1088A00013D0A300114A9858002803D003681B680E
:1088B00098470AE021000E48FEF788FF064B1B6828
:1088C00008356D015D197F23EB710134DCE702B0DF
:1088D00070BDC046C80E0020D40E0020CC0E002073
:1088E000390A0020380A0020040C00201C0A00204D
:1088F000BC09002010B50248FFF72EFF10BDC0468E
:10890000180A0020806C403843425841C0B270477A
:1089100001313F200840704770B504000D00FFF79B
:10892000F1FF002809D1236CE554216C2000FFF7EA
:10893000EFFF2064A36C0133A36470BD70B582B0F7
:108940000400EFF3108300930123019372B6002516
:10895000019B5A1E0192002B05D020000830FFF722
:1089600029FD0500F4E7009B002B02D162B6BFF39E
:108970006F8FA36D002B72D1EFF31083009301234F
:10898000019372B6019B5A1E0192002B0BD0A823B3
:10899000E35C002BF6D1009B002B00D0D0E062B648
:1089A000BFF36F8FCCE0009B002B02D162B6BFF308
:1089B0006F8F0026AE4212D2A023E358A422A25801
:1089C00093420CD2591CA022A150E31860331978AD
:1089D000C9B220000830FFF79FFF0136EAE7A02365
:1089E000E2580433E3589A4200D0A9E0A0230022C1
:1089F000E2509F3BA365EFF310820092019372B6A1
:108A0000019B5A1E0192002B22D0A8230022E2547F
:108A10004D33E35C002BF3D0F523E25465680A3351
:108A2000626D13405A01AA18906848490840802195
:108A30004903014391609168890B880390602A681B
:108A400008335B01D3181A7940210A431A71D7E71A
:108A5000009B002B74D162B6BFF36F8F70E0EFF311
:108A6000108300930123019372B6019B5A1E019259
:108A7000002B0AD0F423E35C002BF6D1009B002BE3
:108A80005ED162B6BFF36F8F5AE0009B002B02D11C
:108A900062B6BFF36F8F0026B54205D9EC23E358C9
:108AA000F022A258934206D3EC23E2580433E35851
:108AB0009A4245D10CE0591CEC22A150E318AC338A
:108AC0001978C9B220000830FFF726FF0136E3E726
:108AD0000023EC22A350A365EFF31083009301233E
:108AE000019372B6019B5A1E0192002B22D0F423EF
:108AF0000022E2540133E35C002BF3D0F523E2546F
:108B000065680A33626D13405A01AA1890680F49CC
:108B1000084080214903014391609168890B8803D3
:108B200090602A6808335B01D3181A7940210A4300
:108B30001A71D7E7009B002B02D162B6BFF36F8F8B
:108B400020000830FFF73AFC02B070BDFF3F00F094
:108B500070B582B00400EFF31083009301230193FA
:108B600072B60025019B5A1E0192002B05D02000F1
:108B70000830FFF71FFC0500F4E7009B002B02D133
:108B800062B6BFF36F8FA36D002B72D1EFF310832A
:108B900000930123019372B6019B5A1E0192002B90
:108BA0000BD0A823E35C002BF6D1009B002B00D058
:108BB000D0E062B6BFF36F8FCCE0009B002B02D1F8
:108BC00062B6BFF36F8F0026AE4212D2A023E358E5
:108BD000A422A25893420CD2591CA022A150E318FF
:108BE00060331978C9B220000830FFF795FE0136CE
:108BF000EAE7A023E2580433E3589A4200D0A9E000
:108C0000A0230022E2509F3BA365EFF31082009265
:108C1000019372B6019B5A1E0192002B22D0A82309
:108C20000022E2544D33E35C002BF3D0F523E254F1
:108C300065680A33626D13405A01AA189068484962
:108C4000084080214903014391609168890B8803A2
:108C500090602A6808335B01D3181A7940210A43CF
:108C60001A71D7E7009B002B74D162B6BFF36F8FE8
:108C700070E0EFF3108300930123019372B6019B20
:108C80005A1E0192002B0AD0F423E35C002BF6D18C
:108C9000009B002B5ED162B6BFF36F8F5AE0009B42
:108CA000002B02D162B6BFF36F8F0026B54205D903
:108CB000EC23E358F022A258934206D3EC23E25867
:108CC0000433E3589A4245D10CE0591CEC22A150E0
:108CD000E318AC331978C9B220000830FFF71CFE46
:108CE0000136E3E70023EC22A350A365EFF31083E2
:108CF00000930123019372B6019B5A1E0192002B2F
:108D000022D0F4230022E2540133E35C002BF3D0A1
:108D1000F523E25465680A33626D13405A01AA18BC
:108D200090680F4908408021490301439160916890
:108D3000890B880390602A6808335B01D3181A797D
:108D400040210A431A71D7E7009B002B02D162B67B
:108D5000BFF36F8F20000830FFF732FB02B070BD09
:108D6000FF3F00F070B50400836C002B0AD0436C09
:108D7000C55C416CFFF7CCFD6064A36C013BA36450
:108D8000280001E00120404270BD0000F0B5C64659
:108D900000B582B0060088461700EFF310830093F9
:108DA0000123019372B60024019B5A1E0192002BED
:108DB00005D030000830FFF7FDFA0400F4E7009B0F
:108DC000002B02D162B6BFF36F8FB36D002B72D14F
:108DD000EFF3108300930123019372B6019B5A1E97
:108DE0000192002B0BD0A823F35C002BF6D1009B43
:108DF000002B00D0D0E062B6BFF36F8FCCE0009BB9
:108E0000002B02D162B6BFF36F8F0025A54212D2AC
:108E1000A023F358A422B25893420CD2591CA0228A
:108E2000B150F31860331978C9B230000830FFF739
:108E300073FD0135EAE7A023F2580433F3589A4250
:108E400000D0A9E0A0230022F2509F3BB365EFF3CE
:108E500010820092019372B6019B5A1E0192002B60
:108E600022D0A8230022F2544D33F35C002BF3D020
:108E7000F523F25474680A33726D13405A01A21834
:108E800090685949084080214903014391609168E5
:108E9000890B88039060226808335B01D3181A7924
:108EA00040210A431A71D7E7009B002B74D162B6A8
:108EB000BFF36F8F70E0EFF31083009301230193F2
:108EC00072B6019B5A1E0192002B0AD0F423F35C68
:108ED000002BF6D1009B002B5ED162B6BFF36F8FE3
:108EE0005AE0009B002B02D162B6BFF36F8F0025C2
:108EF000AC4205D9EC23F358F022B258934206D382
:108F0000EC23F2580433F3589A4245D10CE0591C33
:108F1000EC22B150F318AC331978C9B230000830E4
:108F2000FFF7FAFC0135E3E70023EC22B350B36509
:108F3000EFF3108300930123019372B6019B5A1E35
:108F40000192002B22D0F4230022F2540133F35C6F
:108F5000002BF3D0F523F25474680A33726D13407A
:108F60005A01A21890682049084080214903014312
:108F700091609168890B88039060226808335B01D7
:108F8000D3181A7940210A431A71D7E7009B002BA6
:108F900002D162B6BFF36F8FEFF31083009301230A
:108FA000019372B60024019B5A1E0192002B0FD030
:108FB000BC42F8D2350008352800FFF7FFF9002839
:108FC000F1D02800FFF7CEFE434618550134EFE7F5
:108FD000009B002B02D162B6BFF36F8F200002B05E
:108FE00004BC9046F0BDC046FF3F00F010B50249FA
:108FF0000120FEF74BFD10BDFFFF00000120704770
:1090000010B503681B6A014A984710BD130400009D
:10901000F0231940302901D0002000E001207047E2
:10902000F0231B01194080239B0099420DD001338E
:10903000FF33994205D080235B00994203D105207C
:1090400004E0072002E0002000E0062070470F2324
:109050001940012905D0022901D0022002E0012097
:1090600000E0002070470000F0B585B004000391D7
:109070001600AC23C05C364D42001218D300EB182A
:109080000821595601F088FAAD23E05C43001B1813
:10909000DA00AD180821695601F07EFAAF23E35CCF
:1090A000022B0CD1BE33E05CFF2808D043001B1814
:1090B000DA00274B9B180821595601F06DFAB023AE
:1090C000E05CFF281CD0012101F0AEF9B023E05C88
:1090D0001F4942001518EB005B56DB011D4D5F195F
:1090E000B42567511C4DAC466344B8256351121832
:1090F000D0000918496801228A40BC2162501A60D8
:10910000039B012201212069FEF744F92569310002
:109110002000FFF785FF039031002000FFF797FF45
:10912000070031002000FFF773FF00903B00012291
:1091300003992800FDF70CFFAE23E25C0133E15CEC
:109140002069FDF723FF2069FDF740FF05B0F0BD62
:10915000D41601001844004114440041F8B5DE461D
:1091600057464E464546E0B504008B469246994622
:109170000AAB1B7898460BAB1F780CAB1E780DAB77
:109180001D7800234360FA239B008360104B083353
:1091900003601430FFF722F920006030FFF71EF95A
:1091A0005B462361AC235246E25401334A46E25403
:1091B00001334246E2540133E7540133E65410339D
:1091C000E55420003CBC90469946A246AB46F8BD0B
:1091D000241C010070B584B0040008A8057809A813
:1091E0000678FF2003900290019600952000FFF77B
:1091F000B5FF200004B070BD10B504000069FDF794
:10920000D8FE20001430FFF7E4F820006030FFF7AC
:10921000E0F810BD10B5040020006030FFF7CEF874
:109220000028F9D12069FDF7DBFE10BD10B5143020
:10923000FFF7C4F810BD10B56030FFF7BBF810BDE4
:1092400010B51430FFF7BCF810BD30B583B0050081
:109250000C00EFF3108300930123019372B6019B7E
:109260005A1E0192002B04D021002800FFF754FB66
:10927000F5E7009B002B02D162B6BFF36F8F03B0FE
:1092800030BD00B583B0EFF3108300930123019349
:1092900072B6019B002B08D0FFF764FD009B002BEA
:1092A00009D162B6BFF36F8F05E0009B002B02D19E
:1092B00062B6BFF36F8F03B000BD10B50400006944
:1092C000FDF7A7FE002805D02069FDF7B2FE206952
:1092D000FDF7A4FE2069FDF78CFE002817D0206959
:1092E000FDF7A7FE0100230014331800FFF7ADFFC0
:1092F000B023E35CFF2B0AD020001430FFF75AF8AC
:10930000092804DCB423E358BC22A2581A6020695F
:10931000FDF78AFE002811D020006030FFF74EF8DC
:10932000002808D020006030FFF7ABFFC1B22069F1
:10933000FDF785FE02E02069FDF792FE2069FDF74A
:109340005DFE002805D02069FDF75CFE2069FDF771
:109350004CFE10BD70B505000C000069FDF764FE01
:1093600000280AD028006030FFF728F8002804D130
:1093700028692100FDF763FE43E028006030FFF715
:10938000C1FA002835D0EFF31083DB0728D41E4B39
:109390005B68DB05DB0DF0D0103B5BB2002B11DA14
:1093A0000F221A40083A92080632920016498C465B
:1093B0006244526803210B40DB00DA409209032328
:1093C00013400BE09A08C032920010495258032112
:1093D0000B40DB00DA40930903221340032BCCD867
:1093E0002869FDF721FE0028C7D02800FFF765FF98
:1093F000C3E7280060302100FFF727FF2869FDF749
:109400002BFE012070BDC04600ED00E000E100E051
:1094100070B504001430FFF734FF0500B023E35C9F
:10942000FF2B0AD020001430FEF7C4FF0A2804DD09
:10943000B823E358BC22A2581A60280070BD00006F
:1094400010B544220021134805F0F4FD4422002108
:10945000114805F0EFFD114B00221A60104B10323D
:1094600080215A500131FF315A50C12080001958D3
:10947000FF24A14319501A600A4B0B4A5A800B4A29
:10948000137802210B431370084B5B78DB09012B27
:10949000FAD010BD1C100020D80F0020641000204E
:1094A00000E100E0000C0040054000000018004012
:1094B000F0B583B004000F00019243001B18DA00DE
:1094C0003E4B9B1816269E57731C74D0102E72D0DC
:1094D0003B4B1B68002B04D1FFF7B2FF384B012236
:1094E0001A600125B540374A53692B435361002167
:1094F000200001F051F8002F07D158E09A003248BF
:109500001258AA4206D0013300E000232F4A116806
:109510009942F3D8994202D101312C4A11609B0043
:10952000294A9D502A4A9F50072E03DD083EB60067
:10953000012301E0B6000023224F9A1D9200D15969
:109540000720B0408143D151019A042A2FD89400BA
:10955000204A125997461B4806339B001A5805218A
:10956000B1400A431A5022E0164806339B001A58AD
:109570000421B1400A431A5019E0124806339B00F7
:109580001A580321B1400A431A5010E00D4806331F
:109590009B001A580221B1400A431A5007E00948BB
:1095A00006339B001A580121B1400A431A502D047A
:1095B0002D0C044BDD6003B0F0BDC046D416010095
:1095C00060100020001800401C10002064100020D3
:1095D000D80F0020581C010070B500240FE00A4B82
:1095E0001A69A30009495B58134207D0A500084B2C
:1095F000EB589847054BEA58034B1A610134054B69
:109600001B68A342EBD870BD001800401C1000205E
:10961000D80F00206410002070B50E0044680025AB
:10962000002C0BD023685B6831002000984700288D
:1096300002DB2D18E468F3E701256D42280070BDB8
:1096400070B50D004468002C08D023689B68290081
:1096500020009847002802D1E468F4E7002070BD9C
:1096600070B50D004468002C07D02368DB68290022
:10967000200098472D18E468F5E700232B7070BD93
:1096800070B50D004468002C08D023681B682900C1
:1096900020009847002802D1E468F4E7002070BD5C
:1096A000F8B505000F0043788A799B18027A934237
:1096B00024DC4268002A02D1696004E01A00D36801
:1096C000002BFBD1D7602B783B716B787B71FB79DA
:1096D0002A789B182B700024BB79A34210D9A600CE
:1096E000BB689C4666446878FEF75EFE336803609C
:1096F0006B7801336B700134E4B2EDE7002000E0D9
:109700000120F8BD10B5064B1B68DB0705D40548E2
:10971000FEF742FE024B01221A60024810BDC0460D
:10972000681000206C100020F8B505000024561EBB
:10973000002A0BD02B681B684F1C0978280098471B
:10974000002803D0013432003900F0E72000F8BDD2
:1097500010B50B0009689A6803685B68984710BDEC
:1097600070B505000C1E09D0080006F0B5F902001E
:109770002B685B6821002800984700E0002070BD3E
:1097800010B503681B68984710BD000010B503684A
:109790005B6802220149984710BDC046781C010051
:1097A00070B50500FFF7D4FF04002800FFF7EEFFB7
:1097B000201870BDF0B5C64600B58AB080460D00D1
:1097C000160001AA20230021D154012E00D80A2618
:1097D00009AF3100280002F0A5FCCCB2310028000E
:1097E00002F01AFC0500092C02D83034E4B201E082
:1097F0003734E4B2013F3C70002DEAD1002F0AD08B
:10980000380006F069F9020043461B685B683900BE
:109810004046984700E000200AB004BC9046F0BDE6
:1098200010B5002A04D1C9B203681B68984702E04A
:10983000D2B2FFF7BFFF10BD10B5FFF7F1FF10BDAB
:10984000F0B5C64600B584B0039016001D000A9C12
:10985000002C00DA022432002B003000290005F031
:10986000BDF9002805D054490398FFF779FF060099
:109870009CE06F007F0801225242504B30003900BB
:1098800005F0ACF900280ED1012252424B4B3000BA
:10989000390002F057FD002805D149490398FFF728
:1098A0005FFF060082E0E0221206464B30002900EE
:1098B00002F052FD002805D043490398FFF750FFFE
:1098C000060073E0E0221206404B3000290002F04F
:1098D0002FFD002805D03C490398FFF741FF060003
:1098E00064E0002200233000290002F021FD00285E
:1098F00009D02D210398FFF743FF804680231B06E4
:109900009C46654401E0002398460027002030492A
:10991000A74206DA00222F4B03F09CFF0137FFB26B
:10992000F6E702000B003000290003F077FC050089
:109930000E0002F077FD070005F0DCF902000B00D5
:109940002800310004F002FE009001910A22390043
:10995000039D2800FFF764FF40440600002C04DD4F
:109960001D492800FFF7FCFE3618651E002C1DDD82
:109970000022184B0098019904F076FB00900191A9
:1099800002F050FD07000A2201000398FFF754FF80
:109990003618380005F0AEF902000B000098019966
:1099A00004F0D4FD009001912C00DEE7300004B0FB
:1099B00004BC9046F0BDC0466C1C0100FFFFEF7F69
:1099C000701C0100FFFFEF41741C0100FFFFEFC19D
:1099D0000000E03F00002440B412010000B583B055
:1099E00004990091FFF72CFF03B000BD10B50400EF
:1099F0000068002801D005F0E5FA200010BD10B580
:109A000004000068002801D005F0DCFA0023236080
:109A1000A360636010BD70B504000D0001310068E3
:109A200006F016F8002803D020606560012000E0F1
:109A3000002070BD10B504000368002B02D04368FD
:109A40008B420CD22000FFF7E6FF00280AD0A36863
:109A5000002B06D1236800221A70012002E00120A9
:109A600000E0012010BD70B504000E0015001100CB
:109A7000FFF7E0FF002803D12000FFF7C0FF04E05C
:109A8000A5603100206806F01FF8200070BD70B599
:109A900004000D000023036043608360002907D0A9
:109AA000080006F019F8020029002000FFF7DBFF8C
:109AB000200070BD10B50400884209D00B68002B4F
:109AC00004D08A681900FFF7CEFF01E0FFF797FF87
:109AD000200010BD10B504000023036043608360C4
