:1040000000800020E9A00000D1A00000755A000047
:1040100000000000000000000000000000000000A0
:10402000000000000000000000000000D1A000001F
:104030000000000000000000D1A000004DA1000021
:10404000D1A00000D1A00000D1A00000D1A00000AC
:10405000E5990000D1A00000D1A00000D5A000008B
:10406000D1A0000069720000D1A0000081560000BC
:10407000F95F0000D1A0000079720000BD47000088
:10408000D1A00000D1A00000D1A00000D1A000006C
:1040900000000000D1A00000D1A00000D1A00000CD
:1040A00011450000D1A00000D1A00000D1A0000067
:1040B0000000000010B5064C2378002B07D1054BFB
:1040C000002B02D0044800E000BF0123237010BD84
:1040D0004402002000000000C0250100044B10B580
:1040E000002B03D00349044800E000BF10BDC046C8
:1040F0000000000048020020C0250100014B012201
:104100005A707047600200200023037043707047AC
:1041100010B501280AD1064B994207D1054B064A32
:104120001A6048229A720548FFF7EEFF10BDC0469C
:10413000FFFF000064020020B005002060020020A4
:1041400010B5124C0021200002F05CFB8021890098
:10415000200002F0B3FA8021C901200002F0E6FB42
:104160000021200002F070FAE021200002F07CFA29
:10417000200002F02DFA0221082006F073FB032232
:104180000349082005F09AFB10BDC04664020020D8
:10419000FD400000012303707047000070B504006B
:1041A0000431090389B2084D280002F0BFFB280042
:1041B00002F0DAFB6378002BFCD000236370024826
:1041C00002F038FC70BDC04664020020F0B583B038
:1041D00005000378002B57D0002303702B4C2C498B
:1041E000200005F0C3FC01212800FFF7D7FF0AF0EB
:1041F00087FF02000B0005270097200005F0F4FD63
:10420000244E3100200005F0B1FC2349200005F0C8
:10421000ADFC00212800FFF7C1FF0AF071FF02008A
:104220000B000097200005F0DFFD3100200005F0B5
:104230009DFC1A49200005F099FC03212800FFF796
:10424000ADFF0AF05DFF02000B000097200005F0B3
:10425000CBFD3100200005F089FC1149200005F05C
:1042600085FC02212800FFF799FF0AF049FF0200B0
:104270000B000097200005F0B7FD3100200005F08D
:1042800075FC200005F088FC03B0F0BDAC0C0020EC
:10429000E4140100EC140100F0140100FC1401000E
:1042A0000415010010B502490120FFF731FF10BDD0
:1042B000FFFF0000002303707047000010B50128C5
:1042C00005D1034B994202D10248FFF7F3FF10BD1D
:1042D000FFFF00007002002010B50F4A1378022182
:1042E0008B4313700C4B5B7EDB09FBD10A4B8022A6
:1042F000D2009A8000229A70DA701A7802210A435A
:104300001A70054B5B7EDB09FBD10C2006F0A6F989
:10431000052006F0D1F910BD0040004201230370D2
:1043200070470000F0B583B00191161E0CD010004C
:104330000AF0B4FE02000B0000201E4906F004FF44
:1043400008F044FA87B200E0012700240025A742C4
:1043500006D9019806F0FCF92D180134A4B2F6E74D
:10436000F54030000C300AF05FFE02000B00002028
:104370008021C90506F0E8FE00220F4B0AF0BAFAC8
:1043800008F024FA060028000AF088FE0B4A0C4BBD
:104390000AF03EF804000D0030000AF07FFE020033
:1043A0000B002000290009F029FC0AF0FBFE03B0F5
:1043B000F0BDC046000010400000F03FD7A3703DA4
:1043C0000AD70140F0B583B005000378002B70D008
:1043D00000230370384C3949200005F0C7FB022246
:1043E00018212800FFF79EFF0AF08AFE02000B004A
:1043F00005270097200005F0F7FC314E3100200022
:1044000005F0B4FB2F49200005F0B0FB0222192172
:104410002800FFF787FF0AF073FE02000B000097E9
:10442000200005F0E1FC3100200005F09FFB26494B
:10443000200005F09BFB02221C212800FFF772FFE1
:104440000AF05EFE02000B000097200005F0CCFC95
:104450003100200005F08AFB1C49200005F086FB96
:1044600002221D212800FFF75DFF0AF049FE02002D
:104470000B000097200005F0B7FC3100200005F08C
:1044800075FB1349200005F071FB02221A21280058
:10449000FFF748FF0AF034FE02000B0000972000EF
:1044A00005F0A2FC3100200005F060FB200005F0C3
:1044B00073FB03B0F0BDC046AC0C0020E414010057
:1044C000EC140100F0140100FC14010004150100BB
:1044D0001815010010B502490120FFF7EFFE10BDCD
:1044E000FFFF0000002303707047000010B5012893
:1044F00005D1034B994202D10248FFF7F3FF10BDEB
:10450000FFFF0000740200200123037070470000C9
:1045100010B5054B9B79DB0705D5034B01229A713A
:104520000248FFF7F1FF10BD004400427402002072
:104530000378002B01D000220270180070470000A1
:1045400010B5214B01213222995444201A5C0324D6
:1045500022431A541D4A106A80239B0203431362AC
:104560001B4B1C4A5A801C4A5A801C4B19701B4B0F
:104570001B78DB07FBD4194B802252005A80174B63
:104580005B7ADB09FBD1154B154A1A61134B5B7A39
:10459000DB09FBD1114A20332821D1540F4B5B7A20
:1045A000DB09FBD10D4B5A7901210A435A710D4A9F
:1045B0008021490411601A7802210A431A70074BBE
:1045C0005B7ADB09FBD110BD0044004100040040D0
:1045D000000C0040204000001F400000004400424A
:1045E0002505090000E100E010B5FFF7A1FF002854
:1045F00003D0024A13880133138010BD76020020D5
:1046000010B502490120FFF771FF10BDFFFF000048
:1046100000B585B0012819D10D4B994216D10D482E
:1046200002F02FFD0C4802F05BFD002303930B4BBF
:104630001B6802930A4B1B6801930A4B1B6800938B
:10464000094B0A4A0A490B4802F0F6FC05B000BDC6
:10465000FFFF0000E80200201003002004000020FB
:10466000080000200C000020080300208402002025
:104670000C0300209002002030B583B0FE24A40576
:104680003C4D221C0021280002F016FC01212800CC
:1046900002F062FC384B9A69384B0193384B009317
:1046A000384B3949394802F0EDFC394B1968394823
:1046B00008F044FA211C08F04BFD08F06FF8802345
:1046C0005B04984200D91800334B1A6853009B18BA
:1046D0001A01324B1A60801A314B1860314B324A42
:1046E0005A60304B5B78DB09FBD12E4B82225200A3
:1046F0009A602C4B5B78DB09FBD12A4B2B4A5A8002
:10470000284B5B78DB09FBD1294B1A681A6002221F
:10471000DA63274B9B685B06FBD4214B1A68244B5A
:104720001A64234B9B681B06FBD4214B0022DA64DE
:104730001F4B9B685B05FBD41E4B802252029A6084
:104740005A6150215A5C012002435A5438224B3995
:104750009954174B343A9A62174A80210902116022
:104760001A6802210A431A60114B9B689B07FBD40D
:1047700003B030BD900200202403002000E0764505
:104780003313954300401C4633335340E802002066
:1047900010000020001B374C1800002000030020F0
:1047A000FC020020000C0040040703001A44000033
:1047B000002000420044004100E100E010B5384B09
:1047C000DB6A5B076BD5364AD16A04230B43D3629D
:1047D000344B1B78002B1DD1334B1B68002B02D0B0
:1047E000324B01221A702F4B01221A70012109202D
:1047F00006F0B6F82E4B1A68294BDA66284B9B68F0
:104800005B03FBD4264B00229A67254B9B689B02D7
:10481000FBD444E0274B01221A70224B00221A706D
:104820000021092006F09CF8234B1C681C4BDC6619
:10483000224B1868FE21890507F09CFF002803D051
:104840001E4BFE2292051A601C4B1868002107F0CF
:104850007DFF002802D0194B00221A60184B1B78EC
:10486000012B02D0154B00221A60164B1A68530018
:104870009B181801201A08F065FE104B196808F003
:1048800035FB07F08BFF084B1860054B9B685B03FB
:10489000FBD4034B9867024B9B689B02FBD410BD73
:1048A00000200042800200207C02002082020020C2
:1048B0000003002081020020FC020020840200206E
:1048C000240300201400002010B500210548FFF744
:1048D00065FC054CE16808F031F9216A08F038FC04
:1048E00010BDC046600200202403002010B5032143
:1048F0000348FFF753FC034B996808F01FF910BDFC
:104900006002002024030020F0B5DE4657464646EC
:10491000C0B54B4CA5444B4B1B78002B25D0494BC5
:1049200000221A70484B18680AF0EAFB474A484BC5
:1049300007F0E6FE002818D0FA20400005F084FCBD
:10494000FFF7D4FF434B186002214348FFF726FCD2
:10495000424C216908F0F2F8616908F0EFF8404B29
:1049600018601D213F4800F07AFE3F4B1B78002B5A
:1049700001D100F006FC3C4B00221A7005F0F4FB5C
:104980008246354C01212000FFF708FC0290FFF71A
:10499000ADFF364B186002212000FFF7FFFB2F4FC1
:1049A000396908F0CBF8796908F0C8F8304B18601D
:1049B000304D00221A212800FFF7B4FC0390FFF7C6
:1049C00083FF061C049005F0CFFB8046311C2A486B
:1049D00002F088FB05900299284802F05BFB061C58
:1049E000274B18602749059808F080FA011C301CF5
:1049F00007F00AFF244B18601E211A4800F02FFE12
:104A00002800FFF78BFC2000FFF7C4FB3B78012B4D
:104A100004D1124B5A681D4B1A6002E01B4B002256
:104A20001A60174B1868011C08F056FD00282FD09B
:104A3000054B00221A60094B00221A702BE0C04679
:104A400088FCFFFF82020020840200209A99999935
:104A50009999C93F18030020600200202403002018
:104A60008C0200206003002081020020140300203B
:104A7000880200207002002010030020E8020020BD
:104A80000403002085EB513F0C03002008030020A5
:104A9000FE4802F0B9F8FE4E310009A805F001FA0F
:104AA00009A906A805F020FA032202990CA805F02E
:104AB000B3FA0CA906A805F08DFA0400F54D2900FB
:104AC0000FA805F0EEF90FA9200005F083FA010008
:104AD000F14C200005F06AF80FA805F08DF90CA83C
:104AE00005F08AF906A805F087F909A805F084F908
:104AF000310015A805F0D5F915A912A805F0F4F9AB
:104B0000E64F0322396818A805F086FA18A912A8FA
:104B100005F060FA0290E2491BAB180005F0C1F9FC
:104B20001BA9029805F056FA0100200005F03EF896
:104B30001BA805F061F918A805F05EF912A805F0A8
:104B40005BF915A805F058F9310021A805F0A9F97D
:104B500021A91EA805F0C8F938680AF0D1FAD14A8F
:104B6000D14B09F0C7FE02000B000321009124A8DD
:104B700005F078FA24A91EA805F02CFA0700CB4905
:104B800027A805F08EF927A9380005F023FA0100BF
:104B9000200005F00BF827A805F02EF924A805F051
:104BA0002BF91EA805F028F921A805F025F9C04920
:104BB0002DA805F076F92DA92AA805F095F9BD4E86
:104BC000BD49306A08F092F9011C032230A805F0B3
:104BD00023FA30A92AA805F0FDF90290B74F390051
:104BE00033AB180005F05DF933A9029805F0F2F92E
:104BF0000100200004F0DAFF33A805F0FDF830A82A
:104C000005F0FAF82AA805F0F7F82DA805F0F4F851
:104C1000AB4939A805F045F939A936A805F064F97A
:104C2000A549049808F062F9011C03223CA805F08C
:104C3000F3F93CA936A805F0CDF9029039003FAB55
:104C4000180005F02EF93FA9029805F0C3F90100FC
:104C5000200004F0ABFF3FA805F0CEF83CA805F01B
:104C6000CBF836A805F0C8F839A805F0C5F895497D
:104C700045A805F016F945A942A805F035F9924B6B
:104C800018680AF03DFA874A874B09F033FE0200A4
:104C90000B000227009748A805F0E4F948A942A8AC
:104CA00005F098F9029081494BAB180005F0F9F82E
:104CB0004BA9029805F08EF90100200004F076FF60
:104CC0004BA805F099F848A805F096F842A805F019
:104CD00093F845A805F090F87C4951A805F0E1F853
:104CE00051A94EA805F000F970680AF009FA6D4A5A
:104CF0006D4B09F0FFFD02000B00009754A805F072
:104D0000B1F954A94EA805F065F90700674957A8FD
:104D100005F0C7F857A9380005F05CF9010020003C
:104D200004F044FF57A805F067F854A805F064F8AC
:104D30004EA805F061F851A805F05EF864495DA839
:104D400005F0AFF85DA95AA805F0CEF8614B9B4677
:104D50000122196860A805F05FF960A95AA805F05A
:104D600039F90600290063A805F09BF863A9300013
:104D700005F030F90100200004F018FF63A805F0E9
:104D80003BF860A805F038F85AA805F035F85DA89A
:104D900005F032F8504969A805F083F869A966A8BA
:104DA00005F0A2F84D4E012231686CA805F034F9E7
:104DB0006CA966A805F00EF9070029006FA805F098
:104DC00070F86FA9380005F005F90100200004F023
:104DD000EDFE6FA805F010F86CA805F00DF866A8B8
:104DE00005F00AF869A805F007F83D4975A805F02F
:104DF00058F875A972A805F077F83A4B196802229D
:104E000078A805F009F978A972A805F0E3F8070079
:104E100035497BA805F045F87BA9380005F0DAF89C
:104E20000100200004F0C2FE7BA804F0E5FF78A892
:104E300004F0E2FF72A804F0DFFF75A804F0DCFFC5
:104E40002A4981A805F02DF881A97EA805F04CF823
:104E5000274F0222396884A805F0DEF884A97EA8CD
:104E600005F0B8F80290204987AB180005F019F852
:104E700087A9029805F0AEF80100200004F096FE24
:104E800087A804F0B9FF84A834E0C046900200204F
:104E9000E4140100EC140100AC0C00200403002019
:104EA0002815010066666666661271402C150100C1
:104EB000301501002403002000007A444815010049
:104EC0004C1501005C1501000C0300207015010059
:104ED0008815010014030020981501001803002014
:104EE000A815010088020020BC150100C0150100B2
:104EF0008C02002004F080FF7EA804F07DFF81A8D2
:104F000004F07AFFA3498DA804F0CBFF8DA98AA8ED
:104F100004F0EAFF0322039990A805F07DF890A918
:104F20008AA805F057F80290290093AB180004F006
:104F3000B8FF93A9029805F04DF80100200004F095
:104F400035FE93A804F058FF90A804F055FF8AA8F6
:104F500004F052FF8DA804F04FFF8F4999A804F088
:104F6000A0FF99A996A804F0BFFF3968306807F040
:104F7000E5FD011C02229CA805F04EF89CA996A80C
:104F800005F028F80290854D29009FAB180004F029
:104F900088FF9FA9029805F01DF80100200004F089
:104FA00005FE9FA804F028FF9CA804F025FF96A802
:104FB00004F022FF99A804F01FFF7949A5A804F086
:104FC00070FFA5A9A2A804F08FFF31685B4618689E
:104FD00008F0BEF8396807F0B1FD011C0222A8A84C
:104FE00005F01AF8A8A9A2A804F0F4FF0600290009
:104FF000ABA804F056FFABA9300004F0EBFF0100B2
:10500000200004F0D3FDABA804F0F6FEA8A804F03D
:10501000F3FEA2A804F0F0FEA5A804F0EDFE61499D
:10502000B1A804F03EFFB1A9AEA804F05DFF43466D
:105030005246991A0A22B4A804F083FFB4A9AEA874
:1050400004F0C8FF05005849B7A804F02AFFB7A923
:10505000280004F0BFFF0100200004F0A7FDB7A85E
:1050600004F0CAFEB4A804F0C7FEAEA804F0C4FE63
:10507000B1A804F0C1FE4D49BDA804F012FF4C4B8D
:1050800019680522C0A804F0C7FFC0A9BDA804F094
:10509000A1FF0100BAA804F027FFBAA9200004F07C
:1050A00085FDBAA804F0A8FEC0A804F0A5FEBDA81E
:1050B00004F0A2FE3F49C6A804F0F3FEC6A9C3A8A7
:1050C00004F012FF3C4D280001F0D5FF011C052221
:1050D000C9A804F0A1FFC9A9C3A804F07BFF01007F
:1050E000200004F063FDC9A804F086FEC3A804F004
:1050F00083FEC6A804F080FE3049CFA804F0D1FE9C
:10510000CFA9CCA804F0F0FE280001F0B6FF011CE6
:105110000522D2A804F080FFD2A9CCA804F05AFF3F
:105120000100200004F042FDD2A804F065FECCA8E6
:1051300004F062FECFA804F05FFE2149D8A804F075
:10514000B0FED8A9D5A804F0CFFE280001F097FF43
:10515000011C0522DBA804F05FFFDBA9D5A804F041
:1051600039FF0100200004F021FDDBA804F044FE1B
:10517000D5A804F041FED8A804F03EFE200004F0BB
:105180000BFDDE239B009D441CBC90469A46A34623
:10519000F0BDC046D4150100DC150100E415010086
:1051A000E8150100F4150100081601000C160100B5
:1051B000840200201C160100900200202416010029
:1051C0002C16010010B502490120FFF721FA10BD8D
:1051D000FFFF000070B505000C1E08D0002107205D
:1051E00005F040FB0021072005F0BAFB07E0012194
:1051F000072005F037FB0021072005F0B1FB2C70DC
:1052000070BD0078704770B505000C00032911D0FF
:10521000042902D0022923D119E00021052005F03C
:1052200021FB0121062005F01DFB0021062005F0D1
:1052300097FB21E00121052005F014FB0021062049
:1052400005F010FB0021052005F08AFB14E0002189
:10525000052005F007FB0021062005F003FB0BE00D
:105260000121052005F0FEFA0021062005F0FAFADA
:105270000121052005F074FB6C7070BD10B50400B1
:105280000021FFF7A7FF034B197F2000FFF7BBFFAB
:1052900010BDC046240300204078704710B5054873
:1052A000FFF71AF80448FEF74BFF0448FFF748F9E8
:1052B00010BDC04670020020600200207402002071
:1052C00010B50548FFF77EF80448FEF77FFF044855
:1052D000FFF78AF910BDC04670020020600200206E
:1052E0007402002070470023037024228354704707
:1052F00010B5012812D10A4B99420FD1094C0A4B23
:105300001B6805225021200000F0CCFE074A084906
:10531000200005F070FE0748FFF7E5FF10BDC0460E
:10532000FFFF0000500300201C00002000000020B0
:10533000E55200002403002024230122C2547047B8
:1053400030B595B0050005AC2322002120000AF0FD
:1053500045F82B226A446B681370190A5170190CB6
:1053600091701B0ED37027226A44AB681370190A20
:105370005170190C91701B0ED37023226A44EB6894
:105380001370190A5170190C91701B0ED3701E21E5
:1053900069442B691A04120C0A801B0C4B802F22C3
:1053A0006A446B691370190A5170190C91701B0EC5
:1053B000D3701A216944AB691A04120C0A801B0CC1
:1053C0004B802B7FA37323232380243B0022039253
:1053D0000132029201920093174A2321200001F02A
:1053E00057FB16226A4403041B0C1380000C5080E8
:1053F000237880212200C900104800F0A4FF104942
:105400000EA804F04EFD21880A2211A804F087FDA1
:1054100011A90EA804F0DEFD0A4904F0E9FD01001F
:10542000094804F0C3FB11A804F0E6FC0EA804F040
:10543000E3FC15B030BDC046B71DC10450030020C9
:10544000341601003C160100AC0C002010B504001D
:105450002423C35C002B08D024230022C25404F070
:1054600083FEF530FF30094B1860084B1B68002B9A
:105470000BD004F079FE054B1B68984205D9034B0D
:1054800000221A602000FFF75BFF10BD4C030020D4
:1054900033223321C1756031017627314176773966
:1054A00081769421C1744A310175A739417506315D
:1054B0008175C2730274D4224274923A82749A2221
:1054C0008272013AC272503A0273422242730A2235
:1054D000C276CD320277343A4277683A8277002238
:1054E00082714032C271243A02722A32427202231D
:1054F000837303001F33AC22C27719325A709E3A6D
:105500009A701132DA707047F0B599B004000E004D
:10551000010004A8FFF7BCFF232204A90FA809F08B
:1055200041FF8021C9002C4800F04CFE40BA85B2F2
:10553000002E29D1232D27D8EBB280220FAFD20025
:105540003900254800F0C9FE7B88BE8836041E431A
:105550003E236B4400221A805A8001235B4203924F
:1055600001320292019200931C4A2900380001F096
:105570008FFA864208D0210004A8FFF789FF232272
:1055800004A90FA809F00EFF0FABD97D159A1202DE
:105590000A436260D97C149A12020A43A260D97B42
:1055A000139A12020A43E26059899A8912040A4343
:1055B0002261D97E169A12020A436261D9881A8939
:1055C00012040A43A2619A7B2277DA7F179B1B029F
:1055D0001343236219B0F0BD50030020B71DC1046E
:1055E00010B50021FFF790FF10BD10B5040004F0C6
:1055F000EBFE200010BD000010B502490120FFF7AE
:1056000077FE10BDFFFF000010B5040000230370FB
:1056100043708372C360037414300333022202495F
:1056200000F02AFB200010BD8C0C002010B50128D2
:1056300005D1034B994202D10248FFF7E5FF10BDA7
:10564000FFFF00006003002010B5037C002B05D095
:10565000002303740121042005F082F910BD4B1EC4
:10566000DBB21E2B06D8012213008B40C1680B430E
:10567000C3600274704710B5143000F032FC10BDE6
:1056800010B50248FFF7F7FF10BDC04660030020C9
:1056900010B502490120FFF7C9FF10BDFFFF000050
:1056A00070B505000400143400222A21200000F007
:1056B000ABFA0C49200000F06DFA0B49200000F015
:1056C00065FA0321022005F085F90321032005F086
:1056D00081F90121042005F0C5F81F212800FFF7FA
:1056E000BEFF70BD9D580000655A000070B58CB0BB
:1056F00005004378102B16D1C36803930893002B41
:1057000004D101210D2005F02BF903E000210D202B
:1057100005F026F90023EB602B740021042005F02E
:105720001FF9042696E0012B15D1514B1B680493F9
:10573000504B1B68019305934F4B1B6801930693D5
:105740004E4B1B6801930793102204A908A809F087
:1057500029FE10267EE0802B05D1494B5B68039320
:105760000893042676E0402B05D1464B1B68039333
:10577000089304266EE0412B05D1434B1B6803932D
:105780000893042666E0F12B06D14048FFF739FD67
:1057900008AB187001265DE0F02B06D13B48FFF7FF
:1057A0007BFD08AB1870012654E0002B11D104AA30
:1057B0001388DB0ADB0213803549049B19408023E0
:1057C0001B010B4304930823D370049B0893042606
:1057D00040E0F82B06D12F4B02AA138008AA1380B1
:1057E000022637E0F92B04D12B4B039308930426B0
:1057F00030E0112B05D1224B1A7808AB1A70012624
:1058000028E0A02B05D11E4B9B6803930893042628
:1058100020E0A12B05D11A4BDB68039308930426E3
:1058200018E0A22B05D1164B1B690393089304269D
:1058300010E0902B05D1124B9B690393089304262B
:1058400008E0912B05D10E4B5B6903930893042666
:1058500000E004260024A64208D908AB195D280000
:10586000143000F0D4FA0134E4B2F4E70CB070BDA7
:105870000CA0800040A0800044A0800048A08000D0
:10588000240300200C030020040300201C0300203C
:10589000FF0700FC34120000DB0F494010B502483E
:1058A000FFF724FF10BDC0466003002070B506005E
:1058B00004001434200000F025FA002803D0200052
:1058C00000F00AFB70700023B3720725200000F07F
:1058D00019FA00280DD0200000F0FEFAC0B2002D09
:1058E000F4D073199870013DEDB2B37A0133B372FD
:1058F000ECE7B17A002900D1ACE0002D14D00023F0
:10590000994208D9EA180132B2189078F2189070CA
:105910000133DBB2F4E70B00072B05D8F2180020A7
:1059200090700133DBB2F7E77378112B05D10129B1
:1059300003D1B278484B1A708CE0802B17D1042920
:1059400015D1B078F3781B02034330790004034388
:105950007079000618430400404906F00BFF002848
:1059600000D03E4C3C484460FFF7E6FC72E0A02BC0
:1059700010D104290ED1B378F27812021A43337988
:105980001B041A4373791B06134333488360FFF7E4
:10599000D3FC5FE0A12B10D104290ED1B378F278AB
:1059A00012021A4333791B041A4373791B061343FB
:1059B0002948C360FFF7C0FC4CE0A22B10D104299A
:1059C0000ED1B378F27812021A4333791B041A43CA
:1059D00073791B06134320480361FFF7ADFC39E0E0
:1059E000902B10D104290ED1B378F27812021A4309
:1059F00033791B041A4373791B06134316488361DA
:105A0000FFF79AFC26E0912B10D104290ED1B37830
:105A1000F27812021A4333791B041A4373791B0676
:105A200013430D484361FFF787FC13E0F02B06D1C9
:105A3000012904D1B1780A48FFF7E5FB0AE0F12B10
:105A400008D1012906D1B1784B1E9941C9B2044849
:105A5000FFF7C0FB70BDC046240300200040354462
:105A60001C03002010B501000148FFF71FFF10BD07
:105A700060030020BFF34F8F034B044ADA60BFF38B
:105A80004F8FC046FDE7C04600ED00E00400FA0578
:105A900010B50648FEF738FF0548FFF711FC05482A
:105AA000FFF7D4FC0448FFF7CFFD10BD78020020BB
:105AB00020030020240300206003002010B50121F2
:105AC000002004F0CFFE0121012004F0CBFE0121D3
:105AD000092004F0C7FE01210A2004F0C3FE0121C1
:105AE0000D2004F0BFFE00210D2004F039FFE1215C
:105AF00049020D4801F0D0FE0C4C200000F04EF899
:105B00000B49200000F06CF80A48FFF7C9FD0A486D
:105B1000FFF766FD0948FFF7B1FB0948FFF7BEFB39
:105B20000848FEF7A9FD10BDAC0C0020B005002010
:105B3000A086010060030020240300201C03002035
:105B400020030020780200200020704710B5036871
:105B50009C6B0123A04710BD10B503681B6B01218E
:105B6000984710BDF8B505000F0016000024B44298
:105B700009D22B681B68395D28009847002801D09E
:105B80000134F4E726003000F8BD70478E239B00F7
:105B9000C15070478D239B00C150704770B5050000
:105BA0000D49006901F006FE286901F019FC287D05
:105BB0000A4C42001218D300E3180821595604F089
:105BC00009FF687D43001B18DA00A41808216156FC
:105BD00004F000FF70BDC046A0860100BC1A0100A1
:105BE00070B504000D00006901F00EFC2900206969
:105BF00001F0E0FD206901F0F3FB70BD10B5006914
:105C000001F002FC10BD000070B50500006901F054
:105C1000ADFD286901F0E4FB287D094C4200121813
:105C2000D300E3180821595604F0D4FE687D4300E0
:105C30001B18DA00A4180821615604F0CBFE70BDD1
:105C4000BC1A010010B50022FFF7DEFF10BD0023D3
:105C500080225200835004328350043283507047B4
:105C600010B5040080225200002109F0B7FB20008B
:105C7000FFF7EDFF200010BDF0B5C64600B50400EB
:105C8000884617001E0000254560FA239B008360AC
:105C9000094B083303601830FFF7E2FF200025307E
:105CA000FF30FFF7DDFF4346236127756675A57555
:105CB000200004BC9046F0BD5016010010B501282C
:105CC00008D1054B994205D11123102203490448FC
:105CD000FFF7D2FF10BDC046FFFF0000940C00206C
:105CE000B005002010B504008C239B00C154253062
:105CF000FF30FFF7ACFF0123A37510BD84235B00C9
:105D0000C058704710B51830FFF7F8FF10BD842356
:105D10005B00C0580138FF3843425841C0B2704759
:105D200084235B00C358002B04D082235B00C3583C
:105D3000C05C01E001204042704710B51830FFF709
:105D4000EFFF10BD0131FF200840704770B504001F
:105D50000E00FFF7DCFF00280DD180256D00635990
:105D6000E65461592000FFF7EDFF60518422520094
:105D7000A3580133A35070BDF0B583B004000E00EA
:105D8000171E019340D018239C4684446346009319
:105D90006046FFF75CFF01223100206901F0E3FB60
:105DA00000282ED0206901F03EFC01000098FFF78A
:105DB000CDFF0126BE4214D2206901F0BDFB051EB5
:105DC0000FD0206901F070FB0221206901F080FBF7
:105DD000206901F028FC01000098FFF7B7FF0136A9
:105DE000E8E7206901F04CFB019B002B05D0002D5A
:105DF00003D02069032101F06BFB002D03D1771E36
:105E000002E0002700E03700380003B0F0BD70B5B5
:105E10000D00837D002B0CD02530FF300400FFF7F0
:105E200076FF002807D129002000FFF78FFF01200F
:105E300002E0002000E0002070BD70B50400842363
:105E40005B00C358002B0ED0822676008359C55CB8
:105E50008159FFF777FFA05184225200A358013BDC
:105E6000A350280001E00120404270BDF8B50600B3
:105E70000D00002383758C239B00C15C0022006908
:105E800001F071FB002805D13069032101F020FBEE
:105E9000022020E034002534FF342000FFF72EFFDD
:105EA00000280FD037692000FFF7C7FFC1B23800C4
:105EB00001F0B4FA0028EDD13069032101F008FBAC
:105EC000032008E0002D05D03069032101F000FB1C
:105ED000002000E00020F8BD10B51830FFF7ADFF3E
:105EE00010BD70B50400006901F014FB002800D15A
:105EF00080E0206901F083FB00280ED1206901F0C9
:105F000088FB002816D0206901F07EFB002811D004
:105F1000206901F083FB00280CD1206901F0C4FA4C
:105F20000321206901F0D4FA8E239B00E558002D4F
:105F300006D10AE0206901F06CFB00280AD123E0B9
:105F400023681B6920009847A84720001830FFF7F6
:105F50007EFE4FE0206901F0A7FA0321206901F0DD
:105F6000B7FA206901F05AFB002843D02000253001
:105F7000FF30FFF76CFE0123A3758D239B00E358D0
:105F8000002B37D0984735E0206901F033FB00281B
:105F900030D0206901F042FB002812D025002535C1
:105FA000FF352800FFF7AAFE002804D02800FFF7DD
:105FB00044FFC1B200E0FF21206901F048FAA0755A
:105FC00018E0250018352800FFF7A1FE002803D0AF
:105FD000206901F055FA09E0206901F024FB010075
:105FE0002800FFF7B3FE206901F05EFA2069032163
:105FF00001F06EFA70BD000010B50248FFF771FFA6
:1060000010BDC046B005002010B502490120FFF7C1
:1060100055FE10BDFFFF00000300407A00225A72B7
:1060200070470000092809D88000064B1B589F467E
:10603000082006E0202004E0802002E0402000E06C
:1060400010207047A0160100092815D880000C4BBD
:106050001B589F467F2012E00A4810E00A480EE0D5
:106060000A480CE00A480AE00A4808E00A4806E044
:106070000A4804E00A4802E0402000E0FF207047A0
:10608000C8160100FF010000FF030000FF07000029
:10609000FF0F0000FF1F0000FF3F0000FF7F000018
:1060A000FFFF000070B504001500084A08320260C6
:1060B000436001722800FFF7B5FFA0722800FFF7C8
:1060C000C3FFE06000236372200070BDF016010082
:1060D00070B50B001400857A2900180006F0E0FA6C
:1060E00088B2ADB20419A4B22B1CA54200D9231C5E
:1060F00099B2091A89B2081C1E2900D91E20C0B203
:1061000070BDF0B5C64600B58CB0040016001D0089
:10611000202B03DCCB18C268934202D9012363729F
:106120002CE0077A837A102B06D90A1203AB1A7077
:1061300059700223984605E003AB197009120F430A
:1061400001239846002E07D0002D05DD03A840440A
:106150002A00310009F026F9667A002E0DD12B00B5
:106160004344012201926332009203AA390060681D
:1061700000F04EF9002800D1013666720CB004BC64
:106180009046F0BD30B583B0040000230022FFF735
:10619000B8FF6B460022DA71657A002D09D1217AA9
:1061A00001236A460732606800F006F9002800D132
:1061B000013565726B46D87903B030BD10B5FFF775
:1061C000E1FF10BD70B505004E1CB6B2FFF7DAFF57
:1061D00080B2000284B231002800FFF7D3FF2043D1
:1061E00080B270BDF0B583B00C004D1CADB2019013
:1061F000FFF7C8FF0606A71CBFB22900019D2800B3
:10620000FFF7C0FF000406430334A4B2390028009E
:10621000FFF7B8FF0002064321002800FFF7B2FF96
:10622000304303B0F0BD00B583B0130001AA137072
:106230000123FFF766FF03B000BD70B504000D0039
:1062400016000368DB689847B04204D0320029008A
:106250002000FFF7E8FF70BD70B506000C001500C8
:1062600003685B699847A8420BD02A0AEDB2210067
:106270003000FFF7D8FF0134A1B22A003000FFF749
:10628000D2FF70BDF0B5C64600B506000C00150083
:106290000368DB699847A8421CD0631C9BB29846F0
:1062A0002A0E21003000FFF7BEFFA71CBFB22A0C48
:1062B000D2B241463000FFF7B6FF0334A4B22A0A37
:1062C000D2B239003000FFF7AEFFEAB22100300051
:1062D000FFF7A9FF04BC9046F0BDF0B5D6464F4687
:1062E0004646C0B504008A4691461F0000239846E2
:1062F000002F23D0637A002B20D14E464644B6B2FD
:106300003A0031002000FFF7E3FE050000230022E1
:1063100031002000FFF7F5FE667A002E09D1217AC0
:10632000524642442B00606800F046F8002800D135
:1063300001366672A8447F1BFFB2D9E71CBC9046A9
:106340009946A246F0BDF0B5D6464F4680B583B01B
:1063500007008A4691461D000026002D16DD7B7A37
:10636000002B13D153469C19A3B2EAB20193190032
:106370003800FFF7ADFE04004A4692190300019968
:106380003800FFF7BEFE2D1B3619E6E703B00CBC44
:1063900091469A46F0BD0000012807D1044B99426E
:1063A00004D1044B00221A601A715A717047C0461A
:1063B000FFFF0000EC070020F8B5050017001E00E5
:1063C0000368DB6BC9B232009847002815D000245F
:1063D0002B681B6928009847002809D0B44207D2CF
:1063E0002B685B692800984738550134E4B2EFE721
:1063F000A41B60426041C0B200E00020F8BD000074
:1064000010B502490120FFF7C7FF10BDFFFF0000D4
:10641000F0B585B006000191029203930AAB20CB40
:106420001F786C426C41E4B20123002D17D0002C80
:1064300015D1002B03D13221154804F0F8FC336844
:10644000DB6A6A4611793000984733685B6B30002D
:10645000984743425841013D23000400E5E7002CE2
:1064600013D03368DB6A6A46117930009847336885
:106470005B68039A02993000984733681B6B3900B8
:106480003000984744424441E4B2200005B0F0BDDA
:106490007813002010B5040000680368DB6AA17A55
:1064A0009847206803685B6B984710BD10B5037967
:1064B000002B34D160291ED006D8202913D04029C2
:1064C00015D0002962D10AE0A0291CD002D8802969
:1064D00015D05BE0C0291AD0E0291CD056E08220FC
:1064E00003F08CFE52E0412003F088FE4EE02020B5
:1064F00003F084FE4AE0102003F080FE46E008200E
:1065000003F07CFE42E0042003F078FE3EE003202E
:1065100003F074FE3AE0022003F070FE36E06029DA
:106520001ED006D8202913D0402915D000292DD1FE
:106530000AE0A0291CD002D8802915D026E0C02965
:106540001BD0E0291ED021E0082003F057FE1DE0FB
:10655000052003F053FE19E0022003F04FFE15E082
:10656000012003F04BFE11E0094803F06DFE0DE041
:10657000E120400003F068FE08E0A520400003F0A1
:1065800063FE03E0A520400003F05EFE10BDC046A0
:10659000A3020000F8B504000D00D6B2170A006887
:1065A0000368DB6AA17A9847206803681B682900A2
:1065B0009847206803681B6839009847206803687B
:1065C0001B6831009847206803685B6B9847F8BDEB
:1065D00010B5040000220221FFF7DCFF8022120226
:1065E00003212000FFF7D6FF10BD70B504000D0099
:1065F00000680368DB6AA17A9847206803681B6813
:1066000029009847206803681B6B00219847206881
:106610000368DB6BA17A02229847206803681B6934
:10662000984700280AD0206803685B699847C5B27C
:10663000206803685B699847C0B201E0002000252C
:106640002D02401980B270BD70B504000D0001210B
:10665000FFF7CBFF034A02402A4301212000FFF746
:1066600099FF70BDFC7F000070B504000D00012192
:10667000FFF7BBFF034A02402A4301212000FFF736
:1066800089FF70BD1F7F000010B50121FFF7ADFF2E
:10669000C0B21F23984310BD70B505000C00012146
:1066A000FFF7A3FF2C81044A024022430121280066
:1066B000FFF770FF70BDC046FF7E0000F0B5CE460C
:1066C000474680B585B004000D00C3889846012177
:1066D000FFF78BFF0700461207231E40043B0340D1
:1066E0009946802149002000FFF7D6FF8023DB0078
:1066F0009D421CD006D8002D11D080239B009D42C6
:1067000011D023E080231B019D4218D0A0231B0140
:106710009D4218D0C023DB009D4217D10BE0C0235F
:106720005B01E38012E080235B01E3800EE08023C5
:106730001B01E3800AE08023DB00E38006E0802386
:106740009B00E38002E080235B00E380AE4243D005
:106750004B46032B40D003212000FFF746FF06B233
:10676000404608F061FC00900191E08808F05CFC74
:1067700002000B000098019907F040FA0290039183
:10678000300008F051FC029A039B07F041FE08F02C
:1067900015FC82B203212000FFF7FCFE022120003D
:1067A000FFF723FF06B2E08808F03EFC02000B0072
:1067B0000098019907F022FA00900191300008F04A
:1067C00033FC009A019B07F023FE08F0F7FB82B22E
:1067D00002212000FFF7DEFE094A3A402A43012148
:1067E0002000FFF7D7FE2000FFF74EFF010020003A
:1067F000FFF75CFE05B00CBC90469946F0BDC04664
:10680000FF71000010B504000171FFF743FE00287E
:106810001BD10F4A01212000FFF7BCFE8021C900D7
:106820002000FFF74BFF8022120202212000FFF719
:10683000B1FE084A03212000FFF7ACFE80235B0075
:1068400023810023E372012000E0002010BDC04638
:1068500083850000FF7F000070B504000121FFF771
:10686000C4FE050000212000FFF728FF22898023B5
:106870005B009A420AD100212000FFF70DFF2000A3
:10688000FFF702FF01002000FFF710FE00212000AB
:10689000FFF7ABFE002805D000212000FFF7A5FE82
:1068A00000B205E000212000FFF79FFE404200B249
:1068B000184B984201D1013000B2C317C01858409C
:1068C00000B2154B98420DDD144B98420DDD144B70
:1068D00098420DDD134B98420DDD134B98420DDDB0
:1068E00000260DE0A02636010AE08026360107E0EA
:1068F000C026F60004E08026F60001E08026B600FF
:106900002A0001212000FFF745FE31002000FFF79B
:10691000D5FE70BD0080FFFF440400008808000021
:1069200011110000212200004344000070B5050051
:106930000E000121FFF759FE0405240D3443220007
:1069400001212800FFF726FEE3050CD42800FFF7FD
:106950009BFE06000024012C05DC31002800FFF717
:10696000A5FD0134F7E770BD10B504000121FFF764
:106970003CFE044A024392B201212000FFF70AFEC6
:1069800010BDC0460080FFFF10B504000021FFF7D6
:106990002CFE030000B2E27A002A2BD0164A904265
:1069A00002D101331BB200E00300DA179B185340F9
:1069B0001BB2124A93420DDDE188C022520191427E
:1069C00008D02000FFF748FF00212000FFF70DFE50
:1069D00000B20FE00A4A93420CDCE28880235B009D
:1069E0009A4207D02000FFF737FF00212000FFF771
:1069F000FCFD00B210BDC0460080FFFF66660000CF
:106A000047260000D0B50400FFF7BEFF08F00CFBDE
:106A10000022FC239B0507F0FBFC06000F00E0882A
:106A200008F002FB32003B0007F0F2FC08F0BAFB72
:106A3000D0BD000010B5FFF7E5FF024906F07EF873
:106A400010BDC04600007A4470B588B004000D0047
:106A500011001A000CA808C800780EAE367801960E
:106A6000009002A800F024F80F9B002B05D12A000B
:106A7000210002A800F053F805E00F9B2A00210036
:106A800002A800F05DF802A800F020F808B070BD80
:106A9000F0B585B00AAC20CC24780CAE36780D9FCA
:106AA0000397029601940095FFF7CEFF05B0F0BD65
:106AB00030B503AC257804AC247801604260836073
:106AC0000573447302610023436130BD10B50400B7
:106AD0000069637B002B01D000F066F8A368584082
:106AE00010BD10B50400037B002B03D0080000F09C
:106AF00043F8010009062369594021610822002A50
:106B00000CD02369002B04DA5B0021684B40236121
:106B100001E05B002361013AD2B2F0E710BD70B52D
:106B2000060043699B184361541E002A07D04D1C80
:106B300009783000FFF7D5FF22002900F4E770BD87
:106B4000F0B583B005001C00019343699B184361B5
:106B500001E032003900561E002A0BD04F1C097884
:106B60002800FFF7BEFF013C002CF2D103F079FBB7
:106B7000019CEEE703B0F0BD4210552313404000E6
:106B80005522904340B20343DBB29A1033201040A9
:106B90009B00332293435BB20343DBB218011B0912
:106BA0001843C0B27047000042080F4B1A40400023
:106BB0000E4B1840104382080D4B1A4080000D4BBD
:106BC0001840024313090C48034012010B480240CD
:106BD0001343180A0A4A10401B020A4A134018437A
:106BE0001022D0417047C04655555555AAAAAAAAA9
:106BF00033333333CCCCCCCC0F0F0F0FF0F0F0F09D
:106C0000FF00FF0000FF00FFF0B5D6464F4680B5FD
:106C100087B007003423C35C002B00D1F5E003F0FC
:106C2000A9FA82463A6C831A3422BA5C022A03D04B
:106C3000FA6B9A4200D9EAE0BB6A1B689946796D03
:106C4000181C06F085FA051C3523FC5C012C03D1C9
:106C500080231B069C4665443B6B1868494606F03A
:106C600077FAF864012C04D180231B069C4660440B
:106C7000F864FC6C396D201C06F06AFA0390FE691A
:106C8000311C201C06F032F90190291C301C06F042
:106C90002DF9061C02903623FB5C002B0ED0012B35
:106CA0000FD0FC218905019806F020F90190FC2104
:106CB0008905301C06F01AF9029004E000230293C3
:106CC00001E0002301930299019806F041FA049033
:106CD00038613E6A311C201C06F008F90590786185
:106CE0003723FB5C002B05D10399786A06F0FEF888
:106CF000B86109E07B6A802212069446634418005A
:106D0000291C06F0F3F8B8613823FD5C002D3DD155
:106D10000599201C05F078FD011C301C06F0E6F8F2
:106D2000011C049805F070FD011C0490BC6C201C33
:106D300005F00CFD002805D00021039805F01AFD90
:106D400000280BD10499786C05F014FD00281DD0A3
:106D50000021039805F0FAFC002817D00021301C10
:106D600005F0EEFC002811D180231B06E6180499DB
:106D7000301C05F0FFFC002807D1049E311C201CAC
:106D800005F0E4FC002800D0261C7E613968786993
:106D900005F03AFD3860022D04D1029906F0D8F9C9
:106DA000386012E0029906F0D3F9041C7E6C311CA5
:106DB00005F0CCFC002807D1BE6C311C201C05F06E
:106DC000D9FC002800D1261C3E600199386805F0E6
:106DD0001BFDB96905F018FD041C7D6C291C05F02C
:106DE000B5FC002807D1BD6C291C201C05F0C2FC95
:106DF000002800D1251CFB6A1D60FB6C3B654B46DF
:106E00007B6553463B64012002E0002000E0002047
:106E100007B00CBC91469A46F0BD0000F0B5CE46D6
:106E200000B582B006000C1C0092019308AB1F78DD
:106E300009AB197889460AAB1D780021201C05F0A2
:106E400085FC002831D10021009805F07FFC002846
:106E50002BD10021019805F079FC002825D10021D3
:106E6000009805F06DFC002801D000233360362324
:106E7000F75401334A46F2540133F5547460009DCF
:106E8000B560019BF360F06B06F05CFB094905F00F
:106E900055FE071CF461011C281C06F027F830621F
:106EA000391C019805F04AFE706202B004BC91469C
:106EB000F0BDC04600247449F0B583B004000D1C39
:106EC000161C111C281C05F05FFC002829D16564E4
:106ED000A6643423E35C002B23D0E76A3B68291CBB
:106EE0000193181C05F032FC002808D1311C0198D0
:106EF00005F040FC002801D0351C00E0019D3D60FC
:106F00002668656C291C301C05F020FC002807D180
:106F1000A56C291C301C05F02DFC002800D1351C67
:106F2000256003B0F0BD70B50400C36A1E6806603A
:106F3000836A1B684365456C291C301C05F006FC00
:106F4000002807D1A56C291C301C05F013FC002873
:106F500000D1351C256070BD70B504000D003423D0
:106F6000C35C002B03D1002901D0FFF7DCFF032D08
:106F700009D13423E35C002B01D1012200E000227F
:106F80003423E25401E03423E55470BD3523C15469
:106F900070470000F0B5DE4657464E464546E0B520
:106FA00087B004008C469346059313A90D7814A965
:106FB0000E7815A90F7816A9097888460021416036
:106FC0008160C16000203423E0540133E054013378
:106FD000E05401339946363B9A464B465246E254BA
:106FE0000133E0545A46E2626346A362059B236381
:106FF0000F4A2000FFF760FF0E4BE363414620007D
:10700000FFF7C4FF029701960095129B119A109901
:107010002000FFF703FF03F0ADF8E36BC01A206414
:10702000200007B03CBC90469946A246AB46F0BD56
:1070300000007F43A0860100F0B589B0040011A8CC
:107040000678002036256055353D3727E555013750
:10705000E055033FE6550696059004950390109879
:1070600002900F9801900E9800902000FFF792FF79
:10707000200009B0F0BD0069704740697047806921
:1070800070477047016042608360009BC360019B52
:107090000361704770B504000E1C006806F058F8D4
:1070A0006568291C05F04AFD011C301C05F046FDF1
:1070B000291C05F043FD03F0A5FF216905F03EFD05
:1070C000051CE168FE20800505F038FD011C281C28
:1070D00005F09AFB011CFE20800505F02FFD70BD18
:1070E00070470000F0B58BB00C1C3249201C05F035
:1070F000FDFE06900021201C05F032FB002852D135
:107100000027002500230893722F15D8FB002A4A78
:107110009C580699201C05F02DFB002804D0FE0089
:10712000254B9E19B68809E0FA00234B9B189D88D1
:107130000137BFB20894E7E700260024211C089F0E
:10714000381C05F017FB00282FD10021201C05F06A
:10715000F7FA002805D00021381C05F0F1FA0028C4
:1071600025D1089807F0CCFF08900991069807F000
:10717000C7FF06900791300007F090FF049005913B
:10718000280007F08BFF02900391201C07F0B8FF46
:1071900000900191089A099B0698079903F005FF52
:1071A00008F000F804E0002002E0044800E0034892
:1071B0000BB0F0BD00007A4424170100F02374499D
:1071C000F0B583B001282ED1184B99422BD1184F1E
:1071D0001849380000F060F81749184800F05CF8CA
:1071E0001749184800F058F81749184800F054F8A3
:1071F0001749184800F050F8174D1849280000F0BA
:107200004BF8012401940326009623000022390044
:10721000134802F0CFF90194009623232422290079
:10722000104802F0C7F903B0F0BDC046FFFF0000F0
:107230007C0C002000080042000C0042840C00205E
:10724000001000428C0C002000140042940C00201E
:10725000001800429C0C0020A40C0020001C0042DE
:10726000380A0020F407002010B5024802F021FA85
:1072700010BDC046380A002010B5024802F019FAC5
:1072800010BDC046F407002010B502490120FFF7E9
:1072900097FF10BDFFFF00000023037101607047DE
:1072A000F0B5944605AC257807683E689C1E621EC2
:1072B0009441240662469207224332433A600468AE
:1072C000606807221140AD012943022B01D05B0306
:1072D00000E000230B4303436360F0BD70B5056815
:1072E0002C680904C0239B0219401205C026B6036E
:1072F0003240114321432960026851680B435360B7
:1073000070BD0268116801230B43136003681A689B
:10731000D207FBD4DB69DB07F8D470470268116839
:1073200002230B4313600368DB699B07FBD47047A0
:1073300003681B7E9B0702D40379002BF8D100233E
:1073400003717047036800225A8370470368187EF0
:107350004007C00F70470368187EC0097047026875
:10736000117E80235B420B43137670470368588B72
:107370008007C00F70470268538B02210B43538371
:1073800070470368187EC007C00F70470368188DE8
:10739000C005C00DC0B2704770B504000D002000DC
:1073A000FFF7EFFF0028FAD0ADB223681D85012357
:1073B0002371012070BD036801229A75704703682C
:1073C00001221A7570470268116801230B4313608C
:1073D00003681A68D207FBD4DB69DB07F8D470476F
:1073E0000268116802230B4313600368DA6992078D
:1073F000FBD45A8B30218A4310210A435A830368F5
:10740000DB695B07FBD4704703681968022291436C
:1074100019600368DB699B07FBD470472823026867
:10742000D15403681A7ED20706D45A8BD20708D4E7
:107430005B8B9B07F5D506E05B8B5B0705D50020D2
:1074400004E0002002E0002000E001207047282333
:107450000268D15403681A7E520704D55B8B5B0720
:1074600003D5002002E0002000E0012070470368FF
:107470001868C006400F053843425841C0B27047F3
:1074800010B50400FFF7F3FF002806D0226851680A
:107490008023DB020B43536005E0226851688023A0
:1074A000DB020B43536010BD10B50400FFF7DFFF94
:1074B000002805D022685168044B0B40536004E05B
:1074C00022685168014B0B40536010BDFFFFFBFF6A
:1074D00070B504000D00FFF7CAFF00280DD0226828
:1074E00053680321294009040948034019435160A6
:1074F0002368DB695B07FBD408E02268536803213B
:1075000029400904024803401943516070BDC04638
:10751000FFFFFCFF03681868C006400F04384342B1
:107520005841C0B270470368588B8006800F0138FD
:1075300043425841C0B270470368588B8006800FA1
:10754000023843425841C0B270470368588B8007E5
:10755000C00F70470368588B8006800F0338434282
:107560005841C0B27047F8B50400170049001143F4
:10757000CDB2FFF7E1FF061E0ED12000FFF7EAFFB4
:10758000002835D12000FFF7E0FF002804D02000BC
:10759000FFF7C9FF061E2BD02268536ADB0ADB0205
:1075A0002B435362002F0ED123681B7EDB07FBD5D4
:1075B0002000FFF7C1FF002813D169083A0020001E
:1075C000FFF7D1FF0DE023681A7E920709D41A7ED7
:1075D000D207F8D55968C02292020A435A600026A1
:1075E00006E023685B8B5B0701D5002600E00126DF
:1075F0003000F8BD0368187E4007C00F704703686D
:10760000187EC007C00F70470368588BC006C00FB4
:1076100070470368187E8007C00F70470368588B57
:107620000007C00F704710B50400FFF720FF0028C7
:107630000AD023681A7E920702D41A7ED207F8D5A0
:107640002822985CC0B203E022682823D05CC0B234
:1076500010BD000030B50368204A934211D0204A83
:10766000934211D01F4A934211D01F4A934211D026
:107670001E4A934211D01E4A93422DD10E24192541
:107680000DE0092414250AE00A24152507E00B243F
:10769000162504E00C24172501E00D2418250123EC
:1076A000A34014480360A308C0339B001958032269
:1076B0002240D200FF249440A143C02494402200E1
:1076C0000A431A508023DB012B430B4A53800A4B99
:1076D0005B785BB2002BFADB30BDC046000800428D
:1076E000000C00420010004200140042001800424A
:1076F000001C004200E100E0000C0040F8B505006D
:107700000E0017001C00FFF7A5FF2800FFF7F9FD8A
:10771000B2001C2313407A07120C296813430B6034
:1077200084232A689375012E1CD1012F01D11021C9
:1077300000E008210C4B1868C000614304F040FED3
:107740002968072202408B895203DB04DB0C1343B8
:107750008B81C0082A689389C004C00C5B0B5B0353
:1077600018439081F8BDC0462800002070B5040081
:107770000E001500FFF76EFF2000FFF724FE2168C2
:107780000A681C239A430C3B13430B607600236862
:10779000FF2131405962002D04D02268536A012133
:1077A0000B4353620723226893752368DB695B07E9
:1077B000FBD470BD70B505000C00FFF74BFF28002F
:1077C000FFF701FE2B6814221A600E4B1E68610041
:1077D000300004F0F5FD04000B49300004F0F0FD2A
:1077E00043011B1A9B001818FA21C90004F0E8FD98
:1077F0002A68201A0538D368FF2108408B431843B4
:10780000D06070BD2800002040420F00002070476B
:1078100008B4024B9C46103808BC60470D78000045
:1078200010B50022072A0CDC0F2303400009092BA6
:1078300001DD373300E030330724A41A0B55013241
:10784000F0E710BD10B50C000B4B1868FFF7E8FF10
:107850000A4B186821000831FFF7E2FF084B18684F
:1078600021001031FFF7DCFF064B186821001831AA
:10787000FFF7D6FF202010BD0CA0800040A08000A4
:1078800044A0800048A0800008B4024B9C461038F9
:1078900008BC604745780000704770473F2070473C
:1078A00010B5064B1B685A1C05D103685B699847E5
:1078B0000300024A1060180010BDC04624000020DA
:1078C00010B582B06B46D971073302685468012243
:1078D0001900A04702B010BDF0B5CE46474680B5AE
:1078E00093B006000B7802330B7001AC02254022E6
:1078F00000216B46981D07F071FD082323700333A8
:107900006370E57025716571023B9946237204200E
:107910006072012121736573A573052363742422AA
:10792000A2741027BC4627756175A075E27525768F
:1079300006276776A376E2762777E3772027E25556
:107940000137E1550137E1550137E1550631A154C1
:107950000132A3540232203FA754624622852A22D4
:107960006746A75401324F46A7540132A054033250
:10797000A55401320630A0540432A1540132A3545C
:107980000232A55409322287053AA1540132A35488
:107990003933E55405336B4404321A7000225A70AF
:1079A000337DA370A37263770133DBB2A377727D5B
:1079B00087390D0015431C30255407302354501CC3
:1079C0003623E054023252B20A430733E2544222D1
:1079D0002100044800F096FC13B00CBC9046994678
:1079E000F0BDC046100D002008B4024B9C46103874
:1079F00008BC6047D978000070B505000C00097814
:107A000066782379027D9A423FD1A12909D1212E9E
:107A100007D10100343107221F4800F073FC012018
:107A200038E0212933D1202E05D129003431072215
:107A3000194800F089FB222E02D1A2783B23EA5498
:107A4000202E01D0222E12D16A6B9623DB009A429F
:107A500007D13B23EB5CDB0703D4FA2003F03AF8B1
:107A600001E003F041F800210B4800F087FD232ED0
:107A70000FD1E3781B02A2781343084A1360002158
:107A8000054800F07BFD012004E0002002E000201A
:107A900000E0012070BDC046100D00202000002035
:107AA00008B4024B9C46103808BC6047F9790000C6
:107AB00010B534300822002107F090FC10BD000002
:107AC00010B50300006A597D013100F053FA034BF1
:107AD0001B6801335A1E9341C01810BD24000020BA
:107AE00010B50200074B1868431C04D0054B012257
:107AF00052421A6004E0106A517D013100F0DAFA56
:107B000010BDC0462400002010B50300006A597D56
:107B1000023100F047FA10BD10B50300006A597D2C
:107B2000023100F0FFF910BD10B504000800130089
:107B3000617D02310200206A00F01AFB002801D1A9
:107B40000123636010BD10B5040002F00DFBF423A7
:107B5000FF3398420BD9B93BFF3BE35C002B01D1CB
:107B6000002400E001240A2002F048FB00E0002489
:107B7000200010BD7047704770B5040000224260BD
:107B8000FA239B008360050010350300283303208F
:107B9000A0750138E075A361E2610D4B1E00083647
:107BA00026605033236121622423E254094A2300D2
:107BB000343342CA42C38323A362E062013B23639E
:107BC00001F0A6FF290001F071FF200070BDC04642
:107BD000441F01003C1F010010B5012806D1044BD1
:107BE000994203D103490448FFF7C6FF10BDC046C0
:107BF000FFFF0000100D0020AC0C002010B5437DED
:107C00000A4A12685B01D3180933FF3359780224FA
:107C100021435970437D0133DBB25B01D318093333
:107C2000FF335A7801210A435A7010BDCC1100204D
:107C300010B502490120FFF7CFFF10BDFFFF000084
:107C4000704782B0836D002B1FD1A833C25CD2B2C3
:107C5000EFF3108300930123019372B6019B591E29
:107C60000191002B03D0A823C25CD2B2F6E70099A1
:107C7000002902D162B6BFF36F8F002A22D0A4235D
:107C8000C358A02280581B1A1CE0EFF31083009306
:107C90000123019372B60022019B591E0191002B12
:107CA00003D0F423C25CD2B2F6E70099002902D1D6
:107CB00062B6BFF36F8F002A04D0F023C358EC22C2
:107CC00080581B1A180002B07047000030B583B00E
:107CD00041680C68FF23426D13401A0008325201BC
:107CE000A218D279D20700D4A5E05A018A18926866
:107CF0009204920C14D15A0189188D684F4A15408C
:107D0000802252032A438A608A68920B95038D6011
:107D100008335B01E418237940221343237180E088
:107D2000C46D002C3ED1A4340251A33CC4650200B2
:107D3000AC325B01C9184A60EFF3108300930194E1
:107D400072B6019B5A1E0192002B24D0A823012257
:107D5000C2544C33C35CDBB2F4328354835C002BDB
:107D6000EFD14568FF33426D13405A01AA18946859
:107D700032490C4080214903214391609168890B6D
:107D80008C0394602A6808335B01D3181A79402168
:107D90000A431A71D5E7009B002B42D162B6BFF3AC
:107DA0006F8F3EE0F02402510022C2650200603273
:107DB0005B01CB185A60EFF310830093012301930A
:107DC00072B6019B5A1E0192002B24D0F42301228B
:107DD000C2544C3BC35CDBB2F4328354835C002B53
:107DE000EFD14568FF33426D13405A01AA189468D9
:107DF00012490C4080214903214391609168890B0D
:107E00008C0394602A6808335B01D3181A794021E7
:107E10000A431A71D5E7009B002B02D162B6BFF36B
:107E20006F8F4368416D1A68FF230B4008335B0175
:107E3000D3187F22DA7103B030BDC046FF3F00F097
:107E400001280AD1054B994207D1054B054A1A6012
:107E50000723002B01DB013BFBE77047FFFF00001E
:107E6000CC1100200050004110B5040002F0ACFA23
:107E7000200010BD30B583B00D006B46DC1D002323
:107E8000237001F045FE210001F0CCFD2B689C46DB
:107E900060442860207803B030BD000000780028DE
:107EA00010D0094B1B681A8901218A431A811A8B49
:107EB00008210A431A831A8B04210A431A83034BAD
:107EC00000221A607047C046CC110020C411002067
:107ED00010B5124A93699B0B9803906112680823AE
:107EE000FF330220D0540624FF34105D883BFF3B53
:107EF000034313550823FF33D35C9B07FAD5084A85
:107F0000937A7F2008407F218B43190001439172AF
:107F1000917A80235B420B43937210BDCC110020F9
:107F20000050004110B58A010B4BD218FF231940B5
:107F30000A484B01C3185A619A69920B94039C61D9
:107F400003680831490159180223CB714A79823BF1
:107F500013434B7110BDC0463C0D0020CC110020D6
:107F600008314901024B9C46614420234B71704704
:107F70000050004110B58A00084BD058002803D0AB
:107F800003689B68984707E0FF2319404901044BA9
:107F9000591888688004800C10BDC046140D00205C
:107FA000CC11002010B50C00FFF7E4FF00280DD025
:107FB000074B1B68FF2121400831490159184A79B4
:107FC00080235B4213434B710223CB7110BDC0462B
:107FD000CC110020F0B583B001900F0000921C007E
:107FE0002F4B1B68002B55D02E4B1B78002B03D139
:107FF00000211E2002F0B4FC2A4B64221A70BB0040
:10800000294A9858002806D003685B682200009926
:108010009847040040E039000198FFF7ABFFA04209
:1080200004D239000198FFF7A5FF0400FF263E4067
:108030001E4B710158188268920B950385601B686E
:108040005B180933FF331A7801210A431A70BB0108
:10805000174959182200009807F0A4F9002C1BD0EA
:1080600039000198FFF786FF002815D10F4B1A68D9
:10807000330008335B01D31819794020014319718B
:108080000121D9717301D3180933FF335A780A4398
:108090005A7001E001246442200003B0F0BDC046E4
:1080A000C4110020300D0020140D0020CC11002040
:1080B000FC0E002000B583B001236A460732FFF7AB
:1080C00089FF012802D16B46D87901E001204042A6
:1080D00003B000BD10B58A01184BD218FF23194018
:1080E000174C4B01E3185A609868164A10408022DA
:1080F000520302439A609A68920B90039860226838
:108100000B0008335B01D318187940242043187101
:108110000B0008335B01D3189B795B06F8D50B0085
:1081200008335B01D318DB79DB07F8D54901044B31
:10813000591888688004800CC0B210BDFC0E002065
:10814000CC110020FF3F00F070B50D00140000219D
:10815000FFF7C0FFA04200D920000023A34204D2B1
:10816000024AD25CEA540133F8E770BDFC0E0020ED
:10817000F8B5DE4657464E464546E0B50E009146F8
:108180001F00464B1B68002B7AD08023DB019F42E7
:108190007AD8434B1B78002B03D100211F2002F01B
:1081A000DFFB3F4B64221A7000239846002F6ED0ED
:1081B0003C4B1D68FF243440230008335B01EB185F
:1081C0009B79DB0927D0384B1868384904F0F8F858
:1081D000374B5843172104F0F3F800E01800230050
:1081E00008335B01EB18DB799B0714D4314B9B5DA3
:1081F000002B02D1431E0028F0D12E4B01229A55AC
:108200006401284B1C19A3699B0B9A03A2610123EB
:108210005B4298463BE0274B00229A553F2F0AD9F4
:108220006201204B9B189969802212060A439A61C9
:1082300040239A4600E0BA46B3011F4A9B46934446
:1082400052464946584607F0ADF86201154B9B1857
:108250005A465A61996952469204920C890B8903D5
:108260000A439A61083464012D190223EB716A797B
:10827000823B13436B71D0445346FF1AD14495E7B8
:1082800001235B42984602E001235B429846404648
:108290003CBC90469946A246AB46F8BDC4110020AE
:1082A000310D0020CC1100202800002040420F009A
:1082B00070110100340D00203C0D002070B50E003F
:1082C00011001C00B5010C4BED182200280007F02E
:1082D00069F8FF2131404B010849C9184D618A698D
:1082E000074B13408B618A69A3049B0C920B92038A
:1082F00013438B61200070BD3C0D0020CC11002089
:10830000FF3F00F0F0B583B001900E001700104B56
:108310001B78002B19D10F4B1B78002B08D00E4D6A
:108320002C880E48201807F03DF8E4192C800CE04A
:1083300014000025002C08D0721923000021019898
:10834000FFF7BCFF2D18241AF4E7380003B0F0BD86
:10835000BC100020C0110020C2110020C01000205D
:1083600070B50C001500012A29D9100006F0F4FFA1
:108370000600200007F07CFD013040003070032330
:1083800073700222AA420FD2217800290CD0013446
:10839000531CDBB2B154AB4205D0F3180021197065
:1083A0000232D2B2EEE71A0031000648FFF7AAFF08
:1083B000441EA041C4B2300006F0D8FF00E0002403
:1083C000200070BD100D002010B5002906D0084B0C
:1083D00001221A70074B00221A8007E0044B00228A
:1083E0001A70044B1A880449FFF78CFF10BDC04671
:1083F000C0110020C2110020C0100020F0B587B0CD
:1084000001900C00002505951B4E0127377005A92A
:10841000FFF730FD02AB9D71092302AA1370073BE1
:1084200053705771A023D3715A331372059B0933CC
:108430005380130010713570092C05D109221900E1
:108440000198FFF75FFF13E0002305930121019CD2
:108450002000FFF7B9FF092202A92000FFF752FF11
:1084600005A92000FFF706FD00212000FFF7ACFF63
:10847000012007B0F0BDC046BC10002070B592B01E
:1084800006000C00CD78022D0AD18B79C97909023A
:1084900019433548FFF7B2FF431E9841C0B261E06F
:1084A00001F036FB210001F0D1FA002803D0C317F8
:1084B000181AC00F56E0012D08D1A379E2791202F3
:1084C0001A43112A3DD8D2B228493CE0032D44D1A9
:1084D000A278002A07D1A179E3791B020B43032B71
:1084E0002CD923492FE0022A08D1A379E27912027C
:1084F0001A4320493000FFF733FF33E0012A08D147
:10850000A379E27912021A431B493000FFF728FFD2
:1085100028E0032A23D13E32002101A806F05EFFA5
:1085200001F0F6FA01A901F0A1FAA379E2791202A9
:108530001A4301A93000FFF713FF13E0DAB20C4928
:1085400001E00A49002200290BD0002A00D10A7854
:108550003000FFF7D7FE012004E0002002E00020F9
:1085600000E0002012B070BD100D002010200100AE
:1085700004200100F81F010008200100FF230B4028
:108580005B010349C9188B699B0B9A038A61704789
:10859000CC11002070B505000C0001F0B9FA2100E3
:1085A00001F074FA041E03D100212800FFF7E6FF52
:1085B000200070BD00230370012242704360073326
:1085C0000372704783000148C0187047E80C002010
:1085D000836C4020C01A7047806C7047836C002BFE
:1085E00002D0436CC05C01E0012040427047002390
:1085F000036443648364704710B504004022002183
:1086000006F0ECFE2000FFF7F2FF200010BD000096
:10861000F8B50C00832A19D1FF230B40714E5A0183
:10862000B218906970490840C021890501439161E1
:10863000A4016E4964185461316808335B015A5CC7
:1086400070208243402002435A54CAE0022A6FD16C
:108650008B00674A9858002802D003685B699847E6
:10866000F82001F0ADFE0500624B03605D4B4360F6
:108670000830FFF7C1FF6C650023AB65EB65A022F6
:10868000AB500432AB500432AB544432AB500432E2
:10869000AB500432AB540132AB54FF331A002240CA
:1086A000520169688C46624490684F490840C02175
:1086B0008905014391606A6810686A6D1A40083242
:1086C0005201115C0726B14303263143115429009E
:1086D00060316A6D1A405201686884466244516094
:1086E0006A681268696D1940490152180932FF32EF
:1086F00051780120014351706E686A6D13405A0130
:10870000B21890683C4908408021490301439160B8
:108710009168890B88039060326808335B01D31835
:108720001A7940210A431A71A400314BE55058E0F0
:10873000822A19D1FF230B402A4D5A01AA189069A9
:1087400029490840C021890501439161A4012749B5
:1087500064185461296808335B015A5C70208243B5
:10876000302002435A543CE0002A3AD1FF320A40FA
:108770001C48510141188B681B4F3B40C026B60571
:1087800033438B60A4011D4BE3184B60006813005A
:1087900008335B011D5C07229543012215431D54DC
:1087A000102294468C44624695683D402E43966064
:1087B0000E4AA4184C611A5C7024A2431024224370
:1087C0001A548C680C4A14408022520322438A6057
:1087D0008A68920B94038C60C3181A7940210A436B
:1087E0001A71F8BDCC110020FFFFFF8F3C0D002057
:1087F000140D0020DC1F0100FF3F00F0FC0E0020E4
:1088000070B505000124092C0BD8A300054A9A581D
:10881000002A06D021002800FFF7FAFE0134E4B256
:10882000F1E770BDE80C002030B583B005000C0006
:108830004B780B2B00D98AE09B00484AD3589F46BF
:10884000002089E00B78002B08D101AA1370537027
:1088500002330021FFF732FD01207DE001AB002251
:108860001A705A703E4B1B78012B02D101AB0132BA
:108870001A70022301AA00212800FFF71FFD012022
:108880006AE08B78012B12D101AB00221A705A706A
:10889000344B1B78012B02D101AB01321A70022339
:1088A00001AA00212800FFF709FD012054E02C4B0C
:1088B00000221A700021FFF761FE01204CE08B7846
:1088C000012B0BD1274B01221A7001AA0023137030
:1088D00001330021FFF7F2FC01203DE0002B38D1ED
:1088E0001F4B01221A700021FFF748FE012033E0E0
:1088F0008978FFF7EDFA01202EE0FFF7BFFD2BE0AE
:108900000123194A0021FFF7D9FC012024E00B784C
:10891000DB0620D1FFF774FFA278134B1A601348CF
:10892000FFF76CF900212800FFF728FE012013E073
:1089300001230F4A0021FFF7C1FC01200CE08A78D7
:108940000B4B1A600021FFF719FE012004E0012003
:1089500002E0012000E0002003B030BDA41F0100B0
:10896000320D00203B0D0020C4110020AC0C002073
:10897000C811002070B582B004005D4B1B78002B3D
:1089800000D0B2E05B4B1B689A8B120710D508220F
:108990009A8300220021FFF73BFE564B19680A22FA
:1089A000FF328B5C102003438B54534B00221A6020
:1089B000504B1B689A8B520721D504229A834F4B48
:1089C0001B78002B0BD04D4A1378013BDBB21370A0
:1089D0001378002B03D101211F2001F0C1FF484B68
:1089E0001B78002B0BD0464A1378013BDBB2137087
:1089F0001378002B03D101211E2001F0B1FF3D4B64
:108A00001B680822FF329A5C920605D58421490032
:108A10005A5C202002435A540822FF329A5CD20644
:108A200039D56A463749100060C960C0314881684D
:108A3000890B8D03856082204000195C4025294305
:108A40001954137860221A4204D169462000FFF7B6
:108A5000EBFE03E069462000FFF79CFD002809D0EB
:108A6000244B19680622FF32885C80235B42034353
:108A70008B5403E000212000FFF772FA1D4B1B68A6
:108A80000822FF329A5C520605D5842149005A5CBF
:108A9000402002435A54174B1A680823FF337F21A2
:108AA000D1540124072C20DC124B1B68FF252540E4
:108AB0002A00083252019B18DB79002B13D0A30047
:108AC000114A9858002803D003681B6898470AE0A9
:108AD00021000E48FFF74FF8064B1B6808356D0163
:108AE0005D197F23EB710134DCE702B070BDC04635
:108AF000C0110020CC110020C4110020310D002035
:108B0000300D0020FC0E0020140D0020AC0C0020C5
:108B100010B50248FFF72EFF10BDC046100D002013
:108B2000806C403843425841C0B2704701313F2009
:108B30000840704770B504000D00FFF7F1FF0028F2
:108B400009D1236CE554216C2000FFF7EFFF20646E
:108B5000A36C0133A36470BD70B582B00400EFF361
:108B6000108300930123019372B60025019B5A1EC6
:108B70000192002B05D020000830FFF729FD0500E9
:108B8000F4E7009B002B02D162B6BFF36F8FA36D99
:108B9000002B72D1EFF3108300930123019372B67F
:108BA000019B5A1E0192002B0BD0A823E35C002BE3
:108BB000F6D1009B002B00D0D0E062B6BFF36F8FE0
:108BC000CCE0009B002B02D162B6BFF36F8F002672
:108BD000AE4212D2A023E358A422A25893420CD250
:108BE000591CA022A150E31860331978C9B22000A3
:108BF0000830FFF79FFF0136EAE7A023E25804336D
:108C0000E3589A4200D0A9E0A0230022E2509F3B03
:108C1000A365EFF310820092019372B6019B5A1E76
:108C20000192002B22D0A8230022E2544D33E35CB2
:108C3000002BF3D0F523E25465680A33626D1340CC
:108C40005A01AA1890684849084080214903014305
:108C500091609168890B880390602A6808335B01F2
:108C6000D3181A7940210A431A71D7E7009B002BC9
:108C700074D162B6BFF36F8F70E0EFF3108300938F
:108C80000123019372B6019B5A1E0192002B0AD058
:108C9000F423E35C002BF6D1009B002B5ED162B67F
:108CA000BFF36F8F5AE0009B002B02D162B6BFF377
:108CB0006F8F0026B54205D9EC23E358F022A25865
:108CC000934206D3EC23E2580433E3589A4245D149
:108CD0000CE0591CEC22A150E318AC331978C9B24E
:108CE00020000830FFF726FF0136E3E70023EC22DF
:108CF000A350A365EFF3108300930123019372B691
:108D0000019B5A1E0192002B22D0F4230022E25430
:108D10000133E35C002BF3D0F523E25465680A339A
:108D2000626D13405A01AA1890680F4908408021CB
:108D30004903014391609168890B880390602A6818
:108D400008335B01D3181A7940210A431A71D7E717
:108D5000009B002B02D162B6BFF36F8F200008305A
:108D6000FFF73AFC02B070BDFF3F00F070B582B073
:108D70000400EFF3108300930123019372B60025E2
:108D8000019B5A1E0192002B05D020000830FFF7EE
:108D90001FFC0500F4E7009B002B02D162B6BFF375
:108DA0006F8FA36D002B72D1EFF31083009301231B
:108DB000019372B6019B5A1E0192002B0BD0A8237F
:108DC000E35C002BF6D1009B002B00D0D0E062B614
:108DD000BFF36F8FCCE0009B002B02D162B6BFF3D4
:108DE0006F8F0026AE4212D2A023E358A422A258CD
:108DF00093420CD2591CA022A150E3186033197879
:108E0000C9B220000830FFF795FE0136EAE7A0233B
:108E1000E2580433E3589A4200D0A9E0A02300228C
:108E2000E2509F3BA365EFF310820092019372B66C
:108E3000019B5A1E0192002B22D0A8230022E2544B
:108E40004D33E35C002BF3D0F523E25465680A331D
:108E5000626D13405A01AA18906848490840802161
:108E60004903014391609168890B880390602A68E7
:108E700008335B01D3181A7940210A431A71D7E7E6
:108E8000009B002B74D162B6BFF36F8F70E0EFF3DD
:108E9000108300930123019372B6019B5A1E019225
:108EA000002B0AD0F423E35C002BF6D1009B002BAF
:108EB0005ED162B6BFF36F8F5AE0009B002B02D1E8
:108EC00062B6BFF36F8F0026B54205D9EC23E35895
:108ED000F022A258934206D3EC23E2580433E3581D
:108EE0009A4245D10CE0591CEC22A150E318AC3356
:108EF0001978C9B220000830FFF71CFE0136E3E7FD
:108F00000023EC22A350A365EFF310830093012309
:108F1000019372B6019B5A1E0192002B22D0F423BA
:108F20000022E2540133E35C002BF3D0F523E2543A
:108F300065680A33626D13405A01AA1890680F4998
:108F4000084080214903014391609168890B88039F
:108F500090602A6808335B01D3181A7940210A43CC
:108F60001A71D7E7009B002B02D162B6BFF36F8F57
:108F700020000830FFF732FB02B070BDFF3F00F069
:108F800070B50400836C002B0AD0436CC55C416C47
:108F9000FFF7CCFD6064A36C013BA364280001E0F3
:108FA0000120404270BD0000F0B5C64600B582B059
:108FB000060088461700EFF3108300930123019306
:108FC00072B60024019B5A1E0192002B05D030007E
:108FD0000830FFF7FDFA0400F4E7009B002B02D1F4
:108FE00062B6BFF36F8FB36D002B72D1EFF31083B6
:108FF00000930123019372B6019B5A1E0192002B2C
:109000000BD0A823F35C002BF6D1009B002B00D0E3
:10901000D0E062B6BFF36F8FCCE0009B002B02D193
:1090200062B6BFF36F8F0025A54212D2A023F3587A
:10903000A422B25893420CD2591CA022B150F3186A
:1090400060331978C9B230000830FFF773FD01357D
:10905000EAE7A023F2580433F3589A4200D0A9E07B
:10906000A0230022F2509F3BB365EFF310820092E1
:10907000019372B6019B5A1E0192002B22D0A823A5
:109080000022F2544D33F35C002BF3D0F523F2545D
:1090900074680A33726D13405A01A21890685949D6
:1090A000084080214903014391609168890B88033E
:1090B0009060226808335B01D3181A7940210A4373
:1090C0001A71D7E7009B002B74D162B6BFF36F8F84
:1090D00070E0EFF3108300930123019372B6019BBC
:1090E0005A1E0192002B0AD0F423F35C002BF6D118
:1090F000009B002B5ED162B6BFF36F8F5AE0009BDE
:10910000002B02D162B6BFF36F8F0025AC4205D9A8
:10911000EC23F358F022B258934206D3EC23F258D2
:109120000433F3589A4245D10CE0591CEC22B1505B
:10913000F318AC331978C9B230000830FFF7FAFCE5
:109140000135E3E70023EC22B350B365EFF310835E
:1091500000930123019372B6019B5A1E0192002BCA
:1091600022D0F4230022F2540133F35C002BF3D01D
:10917000F523F25474680A33726D13405A01A21831
:10918000906820490840802149030143916091681B
:10919000890B88039060226808335B01D3181A7921
:1091A00040210A431A71D7E7009B002B02D162B617
:1091B000BFF36F8FEFF3108300930123019372B617
:1091C0000024019B5A1E0192002B0FD0BC42F8D202
:1091D000350008352800FFF7FFF90028F1D02800F6
:1091E000FFF7CEFE434618550134EFE7009B002BF6
:1091F00002D162B6BFF36F8F200002B004BC90466C
:10920000F0BDC046FF3F00F010B502490120FEF757
:1092100017FE10BDFFFF0000F8B504000025564BF7
:109220001D7001211F2001F01DFB01211F2001F0F5
:1092300097FB524B1D7001211E2001F013FB0121F1
:109240001E2001F08DFB4E4AD36920210B43D361D0
:109250004C4B38315A5C01252A435A543C22985CC5
:10926000493988439854985C0621084398545920FA
:10927000195C29431954995C4A3801409954995C06
:10928000602001439954404B404A5A803E4B5B78E2
:10929000DB09FBD13E4800F061FF3E4804C813786B
:1092A00001210B43137080225200002106F096F832
:1092B000384B1B689A78D207FAD4374A5A62374B30
:1092C00019684A0B1F2002408B0C1840C90D072358
:1092D00019401F2A00D11A3A1F2800D10238072945
:1092E00000D104392B4B1F273A401D682E8D920167
:1092F0002B4D2E4032431D682A851D682A8D07405C
:109300001F2082431000384328851D682A8D0803DA
:1093100024491140014329851868C2780C218A43E9
:1093200008252A43C2701D68EA7803208243022080
:109330000243EA701D682E787F2232402A701D6831
:109340002A78042632432A701D682A898A432A8192
:109350001549C125AD004A591202120A4A5180220C
:109360000A601A68137803431370012323700021E5
:109370000E48FEF791FAF8BD310D0020300D0020A7
:109380000004004000440041000C00400640000082
:10939000118B0000CC110020D0110020246080002F
:1093A0003FF8FFFFFF8FFFFF00E100E0AC0C002063
:1093B0000120704710B503681B6A014A984710BD29
:1093C00013040000F0231940302901D0002000E0F0
:1093D00001207047F0231B01194080239B00994214
:1093E0000DD00133FF33994205D080235B009942B1
:1093F00003D1052004E0072002E0002000E0062061
:1094000070470F231940012905D0022901D00220FD
:1094100002E0012000E0002070470000F0B585B0B8
:109420000400039116008B239B00C05C394D420061
:109430001218D300EB180821595601F0CBFA364B1D
:10944000E05C43001B18DA00AD180821695601F0F2
:10945000C1FA324BE35C022B0DD190239B00E05C00
:10946000FF2808D043001B18DA002A4B9B1808215C
:10947000595601F0AFFA8C239B00E05CFF2820D006
:10948000012101F0EFF98C239B00E05C21494200AF
:109490001518EB005B56DB01214D5F198D25AD00E2
:1094A0006751204DAC4663448E25AD0063511218C0
:1094B000D0000918496801228A408F218900625032
:1094C0001A60039B012201212069FEF717F9256923
:1094D00031002000FFF77EFF039031002000FFF7EE
:1094E00090FF070031002000FFF76CFF00903B0069
:1094F000012203992800FDF7D3FE0B4BE25C074BDA
:10950000E15C2069FDF7EAFE2069FDF707FF05B081
:10951000F0BDC046BC1A01002D0200002F02000061
:1095200018440041144400412E020000F8B5DE4604
:1095300057464E464546E0B504008B46924699464E
:109540000AAB1B7898460BAB1F780CAB1E780DABA3
:109550001D7800234360FA239B008360114B08337E
:1095600003601430FCF77CFB20002130FF30FCF757
:1095700077FB5B4623618B239B005246E2540A4BE8
:109580004A46E254094B4246E254094BE754013340
:10959000E6541033E55420003CBC90469946A24660
:1095A000AB46F8BD242001002D0200002E02000071
:1095B0002F02000070B584B0040008A8057809A83F
:1095C0000678FF2003900290019600952000FFF797
:1095D000ADFF200004B070BD10B504000069FDF7B8
:1095E00090FE20001430FCF732FB20002130FF30C9
:1095F000FCF72DFB10BD10B5040020002130FF301A
:10960000FCF77CFB0028F8D12069FDF791FE10BD26
:1096100010B51430FCF772FB10BD84235B00C358F7
:1096200080204000C01A704710B52130FF30FFF78E
:10963000F4FF10BD10B51430FCF772FB10BD30B54F
:1096400083B005000C00EFF3108300930123019316
:1096500072B6019B5A1E0192002B04D021002800F3
:10966000FCF774FBF5E7009B002B02D162B6BFF359
:109670006F8F03B030BD00B583B0EFF3108300935C
:109680000123019372B6019B002B08D0FCF7D5FB98
:10969000009B002B0BD162B6BFF36F8F07E0009BDE
:1096A000002B02D162B6BFF36F8F0120404203B09E
:1096B00000BD10B504000069FDF758FE002805D074
:1096C0002069FDF763FE2069FDF755FE2069FDF76F
:1096D0003DFE00281AD02069FDF758FE0100230046
:1096E00014331800FFF7ABFF8C239B00E35CFF2BC8
:1096F0000CD020001430FFF790FF092806DC8D23E2
:109700009B00E3588F229200A2581A602069FDF74F
:1097100038FE002813D020002130FF30FCF7EEFA8D
:10972000002809D020002130FF30FFF7A4FFC1B28C
:109730002069FDF731FE02E02069FDF740FE206957
:10974000FDF709FE002805D02069FDF708FE206915
:10975000FDF7F8FD10BD000070B505000C000069B4
:10976000FDF70FFE00280BD028002130FF30FCF75A
:10977000C5FA002804D128692100FDF70DFE45E057
:1097800028002130FF30FCF7C2FA002835D0EFF373
:109790001083DB0728D41E4B5B68DB05DB0DEFD0A5
:1097A000103B5BB2002B11DA0F221A40083A9208E4
:1097B0000632920016498C466244526803210B40DF
:1097C000DB00DA409209032313400BE09A08C03211
:1097D00092001049525803210B40DB00DA409309F4
:1097E00003221340032BCBD82869FDF7CAFD0028BC
:1097F000C6D02800FFF75DFFC2E728002130FF3008
:109800002100FFF71CFF2869FDF7D5FD012070BD81
:1098100000ED00E000E100E070B504001430FFF757
:109820002AFF05008C239B00E35CFF2B0CD020005B
:109830001430FFF7F2FE0A2806DD8E239B00E35862
:109840008F229200A2581A60280070BD10B54422E1
:109850000021134805F0C2FD44220021114805F003
:10986000BDFD114B00221A60104B103280215A505E
:109870000131FF315A50C12080001958FF24A14303
:1098800019501A600A4B0B4A5A800B4A137802216E
:109890000B431370084B5B78DB09012BFAD010BD2A
:1098A00014130020D01200205C13002000E100E01F
:1098B000000C00400540000000180040F0B583B0E7
:1098C00004000F00019243001B18DA003E4B9B1866
:1098D00016269E57731C74D0102E72D03B4B1B68FB
:1098E000002B04D1FFF7B2FF384B01221A6001258B
:1098F000B540374A53692B4353610021200001F0E2
:1099000069F8002F07D158E09A0032481258AA424D
:1099100006D0013300E000232F4A11689942F3D8A2
:10992000994202D101312C4A11609B00294A9D5075
:109930002A4A9F50072E03DD083EB600012301E0AE
:10994000B6000023224F9A1D9200D1590720B04043
:109950008143D151019A042A2FD89400204A1259E8
:1099600097461B4806339B001A580521B1400A430D
:109970001A5022E0164806339B001A580421B140C1
:109980000A431A5019E0124806339B001A58032163
:10999000B1400A431A5010E00D4806339B001A5894
:1099A0000221B1400A431A5007E0094806339B00E0
:1099B0001A580121B1400A431A502D042D0C044BB2
:1099C000DD6003B0F0BDC046BC1A01005813002092
:1099D00000180040141300205C130020D012002057
:1099E0005820010070B500240FE00A4B1A69A3004B
:1099F00009495B58134207D0A500084BEB5898471C
:109A0000054BEA58034B1A610134054B1B68A3420E
:109A1000EBD870BD0018004014130020D0120020B5
:109A20005C13002070B50E0044680025002C0BD09C
:109A300023685B68310020009847002802DB2D185E
:109A4000E468F3E701256D42280070BD70B50D0094
:109A50004468002C08D023689B68290020009847A0
:109A6000002802D1E468F4E7002070BD70B50D0055
:109A70004468002C07D02368DB6829002000984741
:109A80002D18E468F5E700232B7070BD70B50D004C
:109A90004468002C08D023681B68290020009847E0
:109AA000002802D1E468F4E7002070BDF8B5050095
:109AB0000F0043788A799B18027A934224DC42682B
:109AC000002A02D1696004E01A00D368002BFBD1A0
:109AD000D7602B783B716B787B71FB792A789B1868
