:1040000000800020759D00005D9D0000155B000094
:1040100000000000000000000000000000000000A0
:104020000000000000000000000000005D9D000096
:1040300000000000000000005D9D0000D99D000010
:104040005D9D00005D9D00005D9D00005D9D000088
:10405000A19600005D9D00005D9D0000619D000037
:104060005D9D0000E56F00005D9D00002157000090
:10407000996000005D9D0000F56F0000A147000001
:104080005D9D00005D9D00005D9D00005D9D000048
:10409000000000005D9D00005D9D00005D9D000032
:1040A000F54400005D9D00005D9D00005D9D0000E9
:1040B0000000000010B5064C2378002B07D1054BFB
:1040C000002B02D0044800E000BF0123237010BD84
:1040D0004C0200200000000088220100044B10B5B3
:1040E000002B03D00349044800E000BF10BDC046C8
:1040F000000000005002002088220100014B012234
:104100005A707047680200200023037043707047A4
:1041100010B5012809D1054B994206D14821044820
:1041200002F0B4F90348FFF7EFFF10BDFFFF0000F6
:104130006C0200206802002010B5114C200002F033
:104140001BFB8021C900200002F072FA8021C90106
:10415000200002F0A1FB0021200002F02FFAE02154
:10416000200002F03BFA200002F0EBF902210820C7
:1041700006F0BEF903220349082005F0FDF910BD41
:104180006C020020FD40000070B5040004310903FA
:1041900089B2084D280002F07FFB280002F09AFB4C
:1041A0006378002BFCD000236370024802F0F4FB1C
:1041B00070BDC0466C020020F0B583B005000378E6
:1041C000002B57D0002303702B4C2C49200005F006
:1041D0002BFB01212800FFF7D7FF0AF021FE020088
:1041E0000B0005270097200005F05CFC244E3100F1
:1041F000200005F019FB2349200005F015FB0021E4
:104200002800FFF7C1FF0AF00BFE02000B00009729
:10421000200005F047FC3100200005F005FB1A499D
:10422000200005F001FB03212800FFF7ADFF0AF095
:10423000F7FD02000B000097200005F033FC310071
:10424000200005F0F1FA1149200005F0EDFA0221F5
:104250002800FFF799FF0AF0E3FD02000B0000972A
:10426000200005F01FFC3100200005F0DDFA2000E1
:1042700005F0F0FA03B0F0BD9C0900201412010013
:104280001C120100201201002C1201003412010046
:1042900010B502490120FFF73BFF10BDFFFF0000F2
:1042A000002303707047000010B5012805D1034BAF
:1042B000994202D10248FFF7F3FF10BDFFFF000053
:1042C0007C02002010B50F4A137802218B43137033
:1042D0000C4B5B7EDB09FBD10A4B8022D2009A801B
:1042E00000229A70DA701A7802210A431A70054B7C
:1042F0005B7EDB09FBD10C2005F0F6FF052006F004
:1043000021F810BD00400042F0B583B00191161EA7
:104310000CD010000AF052FD02000B0000201E49D4
:1043200006F0A2FD08F0E2F887B200E001270024C1
:104330000025A74206D9019806F050F82D1801343F
:10434000A4B2F6E7F54030000C300AF0FDFC0200A4
:104350000B0000208021C90506F086FD00220F4BCE
:104360000AF058F908F0C2F8060028000AF026FD05
:104370000B4A0C4B09F0DCFE04000D0030000AF083
:104380001DFD02000B002000290009F0C7FA0AF009
:1043900099FD03B0F0BDC046000010400000F03FA2
:1043A000D7A3703D0AD70140F0B583B0050003786C
:1043B000002B70D000230370384C3949200005F0E1
:1043C00033FA022218212800FFF79EFF0AF028FD89
:1043D00002000B0005270097200005F063FB314E1B
:1043E0003100200005F020FA2F49200005F01CFACA
:1043F000022219212800FFF787FF0AF011FD0200B1
:104400000B000097200005F04DFB3100200005F067
:104410000BFA2649200005F007FA02221C21280089
:10442000FFF772FF0AF0FCFC02000B00009720006F
:1044300005F038FB3100200005F0F6F91C4920009A
:1044400005F0F2F902221D212800FFF75DFF0AF0B6
:10445000E7FC02000B000097200005F023FB310071
:10446000200005F0E1F91349200005F0DDF90222F2
:104470001A212800FFF748FF0AF0D2FC02000B00C7
:104480000097200005F00EFB3100200005F0CCF96C
:10449000200005F0DFF903B0F0BDC0469C09002004
:1044A000141201001C120100201201002C12010044
:1044B000341201004812010010B502490120FFF733
:1044C000F3FE10BDFFFF00000023037070470000E3
:1044D00010B5012805D1034B994202D10248FFF7DC
:1044E000F3FF10BDFFFF00008002002001230370D6
:1044F0007047000010B5054B9B79DB0705D5034BD2
:1045000001229A710248FFF7F1FF10BD00440042FA
:10451000800200200378002B01D0002202701800D6
:104520007047000010B5214B0121322299544420DC
:104530001A5C032422431A541D4A106A80239B02EA
:10454000034313621B4B1C4A5A801C4A5A801C4B63
:1045500019701B4B1B78DB07FBD4194B80225200D0
:104560005A80174B5B7ADB09FBD1154B154A1A6150
:10457000134B5B7ADB09FBD1114A20332821D1543C
:104580000F4B5B7ADB09FBD10D4B5A7901210A43B2
:104590005A710D4A8021490411601A7802210A4398
:1045A0001A70074B5B7ADB09FBD110BD0044004158
:1045B00000040040000C0040204000001F400000AC
:1045C000004400422505090000E100E010B5FFF7B6
:1045D000A1FF002803D0024A13880133138010BDC5
:1045E0008202002010B502490120FFF771FF10BDC3
:1045F000FFFF000000B585B0012819D10D4B99428D
:1046000016D10D4802F0FBFB0C4802F027FC0023FA
:1046100003930B4B1B6802930A4B1B6801930A4BD5
:104620001B680093094B0A4A0A490B4802F0C2FB77
:1046300005B000BDFFFF0000F40200201C030020B5
:1046400004000020080000200C00002014030020BB
:1046500090020020180300209C02002030B583B097
:10466000FE24A4053C4D221C0021280002F0EEFA95
:104670000121280002F03AFB384B9A69384B01932C
:10468000384B0093384B3949394802F0B9FB394B64
:104690001968394808F0E2F8211C08F0E9FB07F036
:1046A0000DFF80235B04984200D91800334B1A6831
:1046B00053009B181A01324B1A60801A314B186054
:1046C000314B324A5A60304B5B78DB09FBD12E4BC1
:1046D000822252009A602C4B5B78DB09FBD12A4B7B
:1046E0002B4A5A80284B5B78DB09FBD1294B1A688F
:1046F0001A600222DA63274B9B685B06FBD4214BCE
:104700001A68244B1A64234B9B681B06FBD4214B6D
:104710000022DA641F4B9B685B05FBD41E4B802292
:1047200052029A605A6150215A5C012002435A5445
:1047300038224B399954174B343A9A62174A8021E0
:10474000090211601A6802210A431A60114B9B6822
:104750009B07FBD403B030BD9C0200203003002037
:1047600000E076453313954300401C4633335340F5
:10477000F402002010000020001B374C180000201D
:104780000C03002008030020000C00400407030075
:104790001A440000002000420044004100E100E013
:1047A00010B5384BDB6A5B076BD5364AD16A0423F8
:1047B0000B43D362344B1B78002B1DD1334B1B684A
:1047C000002B02D0324B01221A702F4B01221A709B
:1047D0000121092005F00AFF2E4B1A68294BDA66E1
:1047E000284B9B685B03FBD4264B00229A67254B22
:1047F0009B689B02FBD444E0274B01221A70224B9A
:1048000000221A700021092005F0F0FE234B1C68DD
:104810001C4BDC66224B1868FE21890507F03AFE26
:10482000002803D01E4BFE2292051A601C4B18680C
:10483000002107F01BFE002802D0194B00221A604D
:10484000184B1B78012B02D0154B00221A60164B17
:104850001A6853009B181801201A08F003FD104B2A
:10486000196808F0D3F907F029FE084B1860054BCA
:104870009B685B03FBD4034B9867024B9B689B02CE
:10488000FBD410BD002000428C02002088020020D2
:104890008E0200200C0300208D020020080300205F
:1048A00090020020300300201400002010B50021E9
:1048B0000548FFF769FC054CE16807F0CFFF216A66
:1048C00008F0D6FA10BDC046680200203003002070
:1048D00010B503210348FFF757FC034B996807F015
:1048E000BDFF10BD6802002030030020F0B5DE4699
:1048F0004F464646C0B5394CA544394B1B78002B72
:104900001BD0FA20400005F0E5FA354B00221A7062
:10491000FFF7DEFF334B186002213348FFF734FC0A
:10492000324C216907F09AFF616907F097FF304B1D
:1049300018601D212F4800F0E2FE2F4B1B78002B42
:1049400000D1E8E32C4B00221A7005F053FA83469D
:10495000254D01212800FFF717FC041CFFF7B8FFC5
:10496000264B186002212800FFF70EFC1F4E31690C
:1049700007F074FF716907F071FF214B1860002286
:104980001A212048FFF7C0FC0390FFF78FFF071C98
:1049900005F030FA8046391C1B4802F061FA02909B
:1049A000211C1A4802F034FA051C194B18601949E9
:1049B000029808F02BF9011C281C07F0B5FD164BD6
:1049C00018601E210B4800F09AFE3378012B27D186
:1049D000064B5A68114B1A6025E0C04690FCFFFF59
:1049E0008E020020240300206802002030030020F3
:1049F00098020020680300208D0200202003002080
:104A0000940200207C0200201C030020F4020020FD
:104A10001003002085EB513F1803002014030020F1
:104A2000FE4B00221A60FE4801F0C0FFFD4D290038
:104A300007A805F090F807A904A805F0AFF803222D
:104A4000211C0AA805F02EF90AA904A805F002F90C
:104A50000400F5490DA805F07EF80DA9200005F029
:104A6000F9F80100F14C200004F0FEFE0DA805F05D
:104A700021F80AA805F01EF804A805F01BF807A8FD
:104A800005F018F8290013A805F065F813A910A877
:104A900005F084F8E64E0322316816A805F002F905
:104AA00016A910A805F0D6F80290E24919AB180033
:104AB00005F051F819A9029805F0CCF80100200082
:104AC00004F0D2FE19A804F0F5FF16A804F0F2FFD6
:104AD00010A804F0EFFF13A804F0ECFF29001FA8B2
:104AE00005F039F81FA91CA805F058F830680AF03D
:104AF00097F9D14AD14B09F08DFD02000B0003213B
:104B0000009122A805F0F4F822A91CA805F0A2F84B
:104B10000600CB4925A805F01EF825A9300005F0B0
:104B200099F80100200004F09FFE25A804F0C2FFC0
:104B300022A804F0BFFF1CA804F0BCFF1FA804F0CB
:104B4000B9FFC0492BA805F006F82BA928A805F045
:104B500025F8BD4DBD49286A08F058F8011C03220C
:104B60002EA805F09FF82EA928A805F073F802904A
:104B7000B74E310031AB180004F0EDFF31A90298B7
:104B800005F068F80100200004F06EFE31A804F082
:104B900091FF2EA804F08EFF28A804F08BFF2BA80D
:104BA00004F088FFAB4937A804F0D5FF37A934A833
:104BB00004F0F4FFA549381C08F028F8011C032272
:104BC0003AA805F06FF83AA934A805F043F80700B1
:104BD00031003DA804F0BFFF3DA9380005F03AF8C8
:104BE0000100200004F040FE3DA804F063FF3AA855
:104BF00004F060FF34A804F05DFF37A804F05AFF0A
:104C0000954943A804F0A7FF43A940A804F0C6FFB4
:104C1000924B18680AF004F9874A884B09F0FAFCAD
:104C200002000B000227009746A805F061F846A98C
:104C300040A805F00FF80600814949A804F08BFF51
:104C400049A9300005F006F80100200004F00CFE30
:104C500049A804F02FFF46A804F02CFF40A804F058
:104C600029FF43A804F026FF7D494FA804F073FFF5
:104C70004FA94CA804F092FF68680AF0D1F86E4A78
:104C80006E4B09F0C7FC02000B00009752A805F01C
:104C90002FF852A94CA804F0DDFF0600684955A87A
:104CA00004F059FF55A9300004F0D4FF01002000A2
:104CB00004F0DAFD55A804F0FDFE52A804F0FAFE57
:104CC0004CA804F0F7FE4FA804F0F4FE65495BA879
:104CD00004F041FF5BA958A804F060FF624E012276
:104CE00031685EA804F0DEFF5EA958A804F0B2FFA8
:104CF00005004D4961A804F02EFF61A9280004F0C9
:104D0000A9FF0100200004F0AFFD61A804F0D2FE6D
:104D10005EA804F0CFFE58A804F0CCFE5BA804F017
:104D2000C9FE524967A804F016FF67A964A804F0F9
:104D300035FF4F4B9946012219686AA804F0B2FF6B
:104D40006AA964A804F086FF050037496DA804F03D
:104D500002FF6DA9280004F07DFF0100200004F08F
:104D600083FD6DA804F0A6FE6AA804F0A3FE64A863
:104D700004F0A0FE67A804F09DFE3E4973A804F06D
:104D8000EAFE73A970A804F009FF3B4B19680222E0
:104D900076A804F087FF76A970A804F05BFF0700EF
:104DA000364D290079A804F0D6FE79A9380004F020
:104DB00051FF0100200004F057FD79A804F07AFEAD
:104DC00076A804F077FE70A804F074FE73A804F0CF
:104DD00071FE2B497FA804F0BEFE7FA97CA804F0D9
:104DE000DDFE284F0222396882A804F05BFF82A909
:104DF0007CA804F02FFF0290290085AB180004F076
:104E0000AAFE85A9029804F025FF0100200004F005
:104E10002BFD85A804F04EFE36E0C04614030020AA
:104E20009C020020141201001C1201009C090020A9
:104E30001003002058120100666666666612714013
:104E40005C120100601201003003002000007A446F
:104E5000781201007C1201008C120100180300205E
:104E6000A0120100B812010020030020C8120100A6
:104E700024030020D812010094020020EC1201004B
:104E8000F01201009802002082A804F013FE7CA812
:104E900004F010FE7FA804F00DFEA3498BA804F0D7
:104EA0005AFE8BA988A804F079FE032203998EA8E4
:104EB00004F0F8FE8EA988A804F0CCFE05009B49FA
:104EC00091A804F048FE91A9280004F0C3FE010057
:104ED000200004F0C9FC91A804F0ECFD8EA804F0B9
:104EE000E9FD88A804F0E6FD8BA804F0E3FD9049F5
:104EF00097A804F030FE97A994A804F04FFE3968F3
:104F00004B46186807F0AAFC011C02229AA804F07C
:104F1000C9FE9AA994A804F09DFE0290854D29002F
:104F20009DAB180004F017FE9DA9029804F092FEB4
:104F30000100200004F098FC9DA804F0BBFD9AA895
:104F400004F0B8FD94A804F0B5FD97A804F0B2FDF4
:104F50007949A3A804F0FFFDA3A9A0A804F01EFEB0
:104F60004B461968306807F083FF396807F076FC14
:104F7000011C0222A6A804F095FEA6A9A0A804F090
:104F800069FE06002900A9A804F0E5FDA9A93000E2
:104F900004F060FE0100200004F066FCA9A804F003
:104FA00089FDA6A804F086FDA0A804F083FDA3A8AF
:104FB00004F080FD6149AFA804F0CDFDAFA9ACA815
:104FC00004F0ECFD43465A46991A0A22B2A804F0AE
:104FD00012FEB2A9ACA804F03DFE05005849B5A8E0
:104FE00004F0B9FDB5A9280004F034FE010020004A
:104FF00004F03AFCB5A804F05DFDB2A804F05AFD37
:10500000ACA804F057FDAFA804F054FD4D49BBA86F
:1050100004F0A1FD4C4B19680522BEA804F042FE25
:10502000BEA9BBA804F016FE0100B8A804F0B6FDA6
:10503000B8A9200004F018FCB8A804F03BFDBEA8F5
:1050400004F038FDBBA804F035FD4049C4A804F0C5
:1050500082FDC4A9C1A804F0A1FD3D4801F0C9FE2C
:10506000011C0522C7A804F01DFEC7A9C1A804F0B1
:10507000F1FD0100200004F0F7FBC7A804F01AFDC1
:10508000C1A804F017FDC4A804F014FD3149CDA84F
:1050900004F061FDCDA9CAA804F080FD2C4801F000
:1050A000AAFE011C0522D0A804F0FCFDD0A9CAA8C4
:1050B00004F0D0FD0100200004F0D6FBD0A804F0DD
:1050C000F9FCCAA804F0F6FCCDA804F0F3FC2249D0
:1050D000D6A804F040FDD6A9D3A804F05FFD1C4873
:1050E00001F08BFE011C0522D9A804F0DBFDD9A933
:1050F000D3A804F0AFFD0100200004F0B5FBD9A84F
:1051000004F0D8FCD3A804F0D5FCD6A804F0D2FC57
:10511000200004F09FFBDC239B009D441CBC9046B8
:105120009946A346F0BDC046041301001C120100BD
:105130000C130100141301001813010024130100C3
:10514000381301003C130100900200204C130100B1
:105150009C020020541301005C13010010B50249A9
:105160000120FFF747FA10BDFFFF000070B50500F2
:105170000C1E08D00021072005F0BAF900210720F5
:1051800005F034FA07E00121072005F0B1F900210C
:10519000072005F02BFA2C7070BD0078704770B5B1
:1051A00005000C00032911D0042902D0022923D1C3
:1051B00019E00021052005F09BF90121062005F0EA
:1051C00097F90021062005F011FA21E001210520C0
:1051D00005F08EF90021062005F08AF9002105204E
:1051E00005F004FA14E00021052005F081F9002102
:1051F000062005F07DF90BE00121052005F078F986
:105200000021062005F074F90121052005F0EEF9D2
:105210006C7070BD10B504000021FFF7A7FF034BB1
:10522000197F2000FFF7BBFF10BDC04630030020F0
:105230004078704710B50548FFF744F80448FEF77A
:105240007BFF0448FFF76EF910BDC0467C020020CA
:10525000680200208002002010B50548FFF7A4F87E
:105260000448FEF7A9FF0448FFF7B0F910BDC04697
:105270007C0200206802002080020020704742105B
:105280005523134040005522904340B20343DBB204
:105290009A10332010409B00332293435BB20343A8
:1052A000DBB218011B091843C0B2704742080F4B0C
:1052B0001A4040000E4B1840104382080D4B1A4014
:1052C00080000D4B1840024313090C4803401201A3
:1052D0000B4802401343180A0A4A10401B020A4AAC
:1052E000134018431022D0417047C04655555555BC
:1052F000AAAAAAAA33333333CCCCCCCC0F0F0F0FCE
:10530000F0F0F0F0FF00FF0000FF00FFF8B5DE4610
:1053100057464E464546E0B5070016001C000AAB4E
:1053200004CB92461B7898460CAB1B78994601E05B
:1053300029005F464D1EADB200291AD0FF232B4233
:1053400001D104F0D4FD7B1C9B4638784346002BEA
:1053500001D0FFF794FF000644400822002AE7D05E
:10536000002C02DA6400744000E06400013AD2B21A
:10537000F4E7504660404B46002B01D0FFF796FF04
:105380003CBC90469946A246AB46F8BD002303704C
:10539000242283547047000010B5012812D10A4B13
:1053A00099420FD1094C0A4B1B6820225021200042
:1053B00000F088FE074A0849200005F0ACFC0748C9
:1053C000FFF7E4FF10BDC046FFFF00005C030020B4
:1053D0001C000020000000207D520000300300204F
:1053E00024230122C254704730B595B0050005ACA6
:1053F00023220021200009F081FE2B2169446B68E3
:1054000000220B70180A4870180C88701B0ECB70A5
:1054100027216944AB680B70180A4870180C887013
:105420001B0ECB7023216944EB680B70180A48707F
:10543000180C88701B0ECB701E2068442B69190451
:10544000090C01801B0C43802F2169446B690B7090
:10545000180A4870180C88701B0ECB701A2068440C
:10546000AB691904090C01801B0C43802B7FA373CB
:10547000232323800292019200920023174A2321C2
:105480002000FFF743FF16226A4403041B0C13801D
:10549000000C5080237880212200C900104800F0C1
:1054A0004EFF10490EA804F056FB21880A2211A8CD
:1054B00004F08FFB11A90EA804F0CCFB0A4904F0FC
:1054C000D7FB0100094804F0CFF911A804F0F2FA63
:1054D0000EA804F0EFFA15B030BDC046B71DC104E8
:1054E0005C030020641301006C1301009C09002080
:1054F00010B504002423C35C002B08D02423002211
:10550000C25404F077FCF530FF30094B1860084BAB
:105510001B68002B0BD004F06DFC054B1B689842F8
:1055200005D9034B00221A602000FFF75DFF10BD74
:105530005803002033223321C175603101762731B1
:105540004176773981769421C1744A310175A73942
:10555000417506318175C2730274D4224274923A45
:1055600082749A228272013AC272503A02734222C3
:1055700042730A22C276CD320277343A4277683AD1
:105580008277002282714032C271243A02722A323A
:1055900042720223837303001F33AC22C277193295
:1055A0005A709E3A9A701132DA707047F0B599B01D
:1055B00004000E00010004A8FFF7BCFF232204A989
:1055C0000FA809F07FFD8021C9002B4800F0D1FD14
:1055D00040BA85B2002E26D1232D24D8EBB28022EA
:1055E0000FAFD2003900244800F073FE7B88BE88DC
:1055F00036041E433E226A4400230021118051805C
:105600000293019300931D4A29003800FFF77EFEA4
:10561000864208D0210004A8FFF78CFF232204A9AA
:105620000FA809F04FFD0FABD97D159A12020A435E
:105630006260D97C149A12020A43A260D97B139A41
:1056400012020A43E26059899A8912040A432261CC
:10565000D97E169A12020A436261D9881A89120405
:105660000A43A2619A7B2277DA7F179B1B021343BE
:10567000236219B0F0BDC0465C030020B71DC10411
:1056800010B50021FFF792FF10BD10B5040004F023
:10569000E1FC200010BD000010B502490120FFF719
:1056A0007BFE10BDFFFF000010B504000023037057
:1056B00043708372C36003741430033302220249BF
:1056C00000F02AFB200010BD8C09002010B5012835
:1056D00005D1034B994202D10248FFF7E5FF10BD07
:1056E000FFFF00006803002010B5037C002B05D0ED
:1056F000002303740121042004F078FF10BD4B1E29
:10570000DBB21E2B06D8012213008B40C1680B436D
:10571000C3600274704710B5143000F032FC10BD45
:1057200010B50248FFF7F7FF10BDC0466803002020
:1057300010B502490120FFF7C9FF10BDFFFF0000AF
:1057400070B505000400143400222A21200000F066
:10575000ABFA0C49200000F06DFA0B49200000F074
:1057600065FA0321022004F07BFF0321032004F0EB
:1057700077FF0121042004F0BBFE1F212800FFF762
:10578000BEFF70BD3D590000055B000070B58CB0D8
:1057900005004378102B16D1C36803930893002BA0
:1057A00004D101210D2004F021FF03E000210D2090
:1057B00004F01CFF0023EB602B740021042004F094
:1057C00015FF042696E0012B15D1514B1B6804935D
:1057D000504B1B68019305934F4B1B680193069335
:1057E0004E4B1B6801930793102204A908A809F0E7
:1057F00069FC10267EE0802B05D1494B5B68039342
:105800000893042676E0402B05D1464B1B68039392
:10581000089304266EE0412B05D1434B1B6803938C
:105820000893042666E0F12B06D14048FFF7B5FC4B
:1058300008AB187001265DE0F02B06D13B48FFF75E
:10584000F7FC08AB1870012654E0002B11D104AA14
:105850001388DB0ADB0213803549049B194080233F
:105860001B010B4304930823D370049B0893042665
:1058700040E0F82B06D12F4B02AA138008AA138010
:10588000022637E0F92B04D12B4B0393089304260F
:1058900030E0112B05D1224B1A7808AB1A70012683
:1058A00028E0A02B05D11E4B9B6803930893042688
:1058B00020E0A12B05D11A4BDB6803930893042643
:1058C00018E0A22B05D1164B1B69039308930426FD
:1058D00010E0902B05D1124B9B690393089304268B
:1058E00008E0912B05D10E4B5B69039308930426C6
:1058F00000E004260024A64208D908AB195D280060
:10590000143000F0D4FA0134E4B2F4E70CB070BD06
:105910000CA0800040A0800044A0800048A080002F
:10592000300300201803002010030020280300206B
:10593000FF0700FC34120000DB0F494010B502489D
:10594000FFF724FF10BDC0466803002070B50600B5
:1059500004001434200000F025FA002803D02000B1
:1059600000F00AFB70700023B3720725200000F0DE
:1059700019FA00280DD0200000F0FEFAC0B2002D68
:10598000F4D073199870013DEDB2B37A0133B3725C
:10599000ECE7B17A002900D1ACE0002D14D000234F
:1059A000994208D9EA180132B2189078F21890702A
:1059B0000133DBB2F4E70B00072B05D8F218002007
:1059C00090700133DBB2F7E77378112B05D1012911
:1059D00003D1B278484B1A708CE0802B17D1042980
:1059E00015D1B078F3781B020343307900040343E8
:1059F0007079000618430400404906F04BFD00286A
:105A000000D03E4C3C484460FFF7EAFC72E0A02B1B
:105A100010D104290ED1B378F27812021A433379E7
:105A20001B041A4373791B06134333488360FFF743
:105A3000D7FC5FE0A12B10D104290ED1B378F27806
:105A400012021A4333791B041A4373791B0613435A
:105A50002948C360FFF7C4FC4CE0A22B10D10429F5
:105A60000ED1B378F27812021A4333791B041A4329
:105A700073791B06134320480361FFF7B1FC39E03B
:105A8000902B10D104290ED1B378F27812021A4368
:105A900033791B041A4373791B0613431648836139
:105AA000FFF79EFC26E0912B10D104290ED1B3788C
:105AB000F27812021A4333791B041A4373791B06D6
:105AC00013430D484361FFF78BFC13E0F02B06D125
:105AD000012904D1B1780A48FFF761FB0AE0F12BF4
:105AE00008D1012906D1B1784B1E9941C9B20448A9
:105AF000FFF73CFB70BDC04630030020004035443A
:105B00002803002010B501000148FFF71FFF10BD5A
:105B100068030020BFF34F8F034B044ADA60BFF3E2
:105B20004F8FC046FDE7C04600ED00E00400FA05D7
:105B300010B50648FEF7DAFE0548FFF78DFB05486D
:105B4000FFF7D6FC0448FFF7CFFD10BD840200200C
:105B50002C030020300300206803002010B5012131
:105B6000002004F0C5FC0121012004F0C1FC01214A
:105B7000092004F0BDFC01210A2004F0B9FC012138
:105B80000D2004F0B5FC00210D2004F02FFDE121D3
:105B900049020D4801F0D4FE0C4C200000F04EF8F4
:105BA0000B49200000F06CF80A48FFF7C9FD0A48CD
:105BB000FFF766FD0948FFF72DFB0948FFF73AFBA1
:105BC0000848FEF74BFD10BD9C090020B8050020D9
:105BD000A086010068030020300300202803002075
:105BE0002C030020840200200020704710B50368B9
:105BF0009C6B0123A04710BD10B503681B6B0121EE
:105C0000984710BDF8B505000F0016000024B442F7
:105C100009D22B681B68395D28009847002801D0FD
:105C20000134F4E726003000F8BD70478E239B0056
:105C3000C15070478D239B00C150704770B505005F
:105C40000D49006901F066FC286901F07EFA287DA3
:105C50000A4C42001218D300E3180821595604F0E8
:105C6000FFFC687D43001B18DA00A4180821615668
:105C700004F0F6FC70BDC046A08601009C17010030
:105C800070B504000D00006901F073FA2900206965
:105C900001F040FC206901F058FA70BD10B50069B0
:105CA00001F067FA10BD000070B50500006901F051
:105CB0000DFC286901F049FA287D094C42001218B0
:105CC000D300E3180821595604F0CAFC687D43004C
:105CD0001B18DA00A4180821615604F0C1FC70BD3D
:105CE0009C17010010B50022FFF7DEFF10BD002356
:105CF0008022520083500432835004328350704714
:105D000010B5040080225200002109F0F7F92000AC
:105D1000FFF7EDFF200010BDF0B5C64600B504004A
:105D2000884617001E0000254560FA239B0083600B
:105D3000094B083303601830FFF7E2FF20002530DD
:105D4000FF30FFF7DDFF4346236127756675A575B4
:105D5000200004BC9046F0BD8013010010B501285E
:105D600008D1054B994205D111231022034904485B
:105D7000FFF7D2FF10BDC046FFFF000090090020D2
:105D8000B805002010B504008C239B00C1542530B9
:105D9000FF30FFF7ACFF0123A37510BD84235B0028
:105DA000C058704710B51830FFF7F8FF10BD8423B6
:105DB0005B00C0580138FF3843425841C0B27047B9
:105DC00084235B00C358002B04D082235B00C3589C
:105DD000C05C01E001204042704710B51830FFF769
:105DE000EFFF10BD0131FF200840704770B504007F
:105DF0000E00FFF7DCFF00280DD180256D006359F0
:105E0000E65461592000FFF7EDFF605184225200F3
:105E1000A3580133A35070BDF0B583B004000E0049
:105E2000171E019340D018239C4684446346009378
:105E30006046FFF75CFF01223100206901F043FA60
:105E400000282ED0206901F09EFA01000098FFF78B
:105E5000CDFF0126BE4214D2206901F01DFA051EB5
:105E60000FD0206901F0D0F90221206901F0E0F99A
:105E7000206901F088FA01000098FFF7B7FF0136AA
:105E8000E8E7206901F0ACF9019B002B05D0002D5B
:105E900003D02069032101F0CBF9002D03D1771E37
:105EA00002E0002700E03700380003B0F0BD70B515
:105EB0000D00837D002B0CD02530FF300400FFF750
:105EC00076FF002807D129002000FFF78FFF01206F
:105ED00002E0002000E0002070BD70B504008423C3
:105EE0005B00C358002B0ED0822676008359C55C18
:105EF0008159FFF777FFA05184225200A358013B3C
:105F0000A350280001E00120404270BDF8B5060012
:105F10000D00002383758C239B00C15C0022006967
:105F200001F0D1F9002805D13069032101F080F991
:105F3000022020E034002534FF342000FFF72EFF3C
:105F400000280FD037692000FFF7C7FFC1B2380023
:105F500001F019F90028EDD13069032101F068F949
:105F6000032008E0002D05D03069032101F060F91D
:105F7000002000E00020F8BD10B51830FFF7ADFF9D
:105F800010BD70B50400006901F074F9002800D15B
:105F900080E0206901F0E3F900280ED1206901F0CA
:105FA000E8F9002816D0206901F0DEF9002811D0A8
:105FB000206901F0E3F900280CD1206901F024F9EF
:105FC0000321206901F034F98E239B00E558002D50
:105FD00006D10AE0206901F0CCF900280AD123E0BB
:105FE00023681B6920009847A84720001830FFF756
:105FF0007EFE4FE0206901F007F90321206901F0DE
:1060000017F9206901F0BAF9002843D020002530A3
:10601000FF30FFF76CFE0123A3758D239B00E3582F
:10602000002B37D0984735E0206901F093F900281C
:1060300030D0206901F0A2F9002812D025002535C2
:10604000FF352800FFF7AAFE002804D02800FFF73C
:1060500044FFC1B200E0FF21206901F0A8F8A0755B
:1060600018E0250018352800FFF7A1FE002803D00E
:10607000206901F0B5F809E0206901F084F9010018
:106080002800FFF7B3FE206901F0BEF82069032164
:1060900001F0CEF870BD000010B50248FFF771FFA7
:1060A00010BDC046B805002010B502490120FFF719
:1060B00055FE10BDFFFF00000300807A00229A7297
:1060C0007047000010B5044C08340460436001724E
:1060D00042720023837210BDD013010070B58CB0E2
:1060E000050010001C00202B02DD0123AB721EE016
:1060F0000A1203AB1A705970002807D0002C05DD76
:10610000220001000E20684408F0DCFFAE7A002E69
:106110000CD1297AA31C012201926332009203AAB6
:10612000686800F071F9002800D10136AE720CB039
:1061300070BD30B583B0040000230022FFF7CEFF0E
:106140006B460022DA71A57A002D09D1217A01234C
:106150006A460732606800F02BF9002800D101354B
:10616000A5726B46D87903B030BD10B5FFF7E1FFDB
:1061700010BD70B505004E1CB6B2FFF7DAFF80B255
:10618000000284B231002800FFF7D3FF204380B221
:1061900070BDF0B583B00C004D1CADB20190FFF79F
:1061A000C8FF0606A71CBFB22900019D2800FFF703
:1061B000C0FF000406430334A4B239002800FFF7EF
:1061C000B8FF0002064321002800FFF7B2FF30436A
:1061D00003B0F0BD00B583B0130001AA1370012312
:1061E000FFF77CFF03B000BD70B504000D00160082
:1061F0000368DB689847B04204D0320029002000D1
:10620000FFF7E8FF70BD70B506000C0015000368CD
:106210005B699847A8420BD02A0AEDB221003000F2
:10622000FFF7D8FF0134A1B22A003000FFF7D2FFF8
:1062300070BDF0B5C64600B506000C001500036839
:10624000DB699847A8421CD0631C9BB298462A0E73
:1062500021003000FFF7BEFFA71CBFB22A0CD2B24C
:1062600041463000FFF7B6FF0334A4B22A0AD2B287
:1062700039003000FFF7AEFFEAB221003000FFF72F
:10628000A9FF04BC9046F0BD0A8803889A4200D258
:106290000800704770B582B00B001500467A3100D7
:1062A000180006F08DF88CB26B46981C06806519B4
:1062B00001A90D80FFF7E8FF01880C1B6B461C80CD
:1062C000991D1E230B806846FFF7DEFF007802B0A1
:1062D00070BDF0B5D6464F464646C0B504008A4666
:1062E00091461F0000239846002F23D0A37A002B4D
:1062F00020D14E464644B6B23A0031002000FFF7A6
:10630000C9FF05000023002231002000FFF7E6FE50
:10631000A67A002E09D1217A524642442B006068A9
:1063200000F046F8002800D10136A672A8447F1B71
:10633000FFB2D9E71CBC90469946A246F0BDF0B525
:10634000D6464F4680B583B007008A4691461D0069
:106350000026002D16DDBB7A002B13D153469C1965
:10636000A3B2EAB2019319003800FFF793FF0400CB
:106370004A469219030001993800FFF7AFFE2D1B22
:106380003619E6E703B00CBC91469A46F0BD000012
:10639000012807D1044B994204D1044B00221A6012
:1063A0001A715A717047C046FFFF0000F4070020C1
:1063B000F8B5050017001E000368DB6BC9B2320098
:1063C0009847002815D000242B681B69280098479F
:1063D000002809D0B44207D22B685B69280098478F
:1063E00038550134E4B2EFE7A41B60426041C0B20B
:1063F00000E00020F8BD000010B502490120FFF7C1
:10640000C7FF10BDFFFF0000F0B585B00600019189
:10641000029203930AAB20CB1F786C426C41E4B22A
:106420000123002D17D0002C15D1002B03D13221D0
:10643000154804F093FB3368DB6A6A461179300033
:10644000984733685B6B3000984743425841013DA1
:1064500023000400E5E7002C13D03368DB6A6A46AA
:1064600011793000984733685B68039A02993000CD
:10647000984733681B6B39003000984744424441C9
:10648000E4B2200005B0F0BD64100020014B0360B1
:1064900081607047B805002010B560291ED006D86D
:1064A000202913D0402915D000292AD10AE0A0299B
:1064B0001CD002D8802915D023E0C0291AD0E029A9
:1064C0001CD01EE0822003F0DFFC1AE0412003F024
:1064D000DBFC16E0202003F0D7FC12E0102003F0D4
:1064E000D3FC0EE0082003F0CFFC0AE0042003F008
:1064F000CBFC06E0032003F0C7FC02E0022003F01F
:10650000C3FC10BDF8B504000E0015000068036858
:10651000DB6A217A9847EFB22D0A206803681B686E
:1065200031009847206803681B6829009847206855
:1065300003681B6839009847206803685B6B9847BD
:10654000F8BD10B5040000220221FFF7DBFF802216
:10655000120203212000FFF7D5FF10BD70B5040023
:106560000D0000680368DB6A217A98472068036899
:106570001B6829009847206803681B6B0021984717
:1065800020680368DB6B217A022298472068036841
:106590001B69984700280AD0206803685B69984700
:1065A000C5B2206803685B699847C0B201E000206B
:1065B00000252D02401980B270BD000070B50400A6
:1065C0000D000121FFF7CAFF034A02402A430121BF
:1065D0002000FFF797FF70BDFC7F000070B504003E
:1065E0000D000121FFF7BAFF034A02402A430121AF
:1065F0002000FFF787FF70BD1F7F000010B501214D
:10660000FFF7ACFFC0B21F23984310BD70B5050063
:106610000C000121FFF7A2FFEC80044A0240224354
:1066200001212800FFF76EFF70BDC046FF7E00000D
:10663000F0B5CE46474680B585B004000D0083888E
:1066400098460121FFF78AFF0700461207231E40E4
:10665000043B03409946802149002000FFF7D6FF04
:106660008023DB009D421CD006D8002D11D0802352
:106670009B009D4211D023E080231B019D4218D036
:10668000A0231B019D4218D0C023DB009D4217D1DF
:106690000BE0C0235B01A38012E080235B01A38099
:1066A0000EE080231B01A3800AE08023DB00A3808F
:1066B00006E080239B00A38002E080235B00A38090
:1066C000AE4243D04B46032B40D003212000FFF7BE
:1066D00045FF06B2404608F037FB00900191A088C4
:1066E00008F032FB02000B000098019907F016F940
:1066F00002900391300008F027FB029A039B07F0F9
:1067000017FD08F0EBFA82B203212000FFF7FAFE32
:1067100002212000FFF722FF06B2A08808F014FB38
:1067200002000B000098019907F0F8F80090019121
:10673000300008F009FB009A019B07F0F9FC08F013
:10674000CDFA82B202212000FFF7DCFE094A3A406E
:106750002A4301212000FFF7D5FE2000FFF74EFF5E
:1067600001002000FFF798FE05B00CBC904699464A
:10677000F0BDC046FF71000010B50400006803685A
:10678000DB6A217A9847206803685B6B984700288A
:106790001BD10F4A01212000FFF7B4FE8021C90060
:1067A0002000FFF745FF8022120202212000FFF7A0
:1067B000A9FE084A03212000FFF7A4FE80235B0006
:1067C000E38000232373012000E0002010BDC046B9
:1067D00083850000FF7F000070B504000121FFF7F2
:1067E000BDFE050000212000FFF722FFE288802384
:1067F0005B009A420AD100212000FFF707FF20002A
:10680000FFF7FCFE01002000FFF746FE00212000FC
:10681000FFF7A4FE002805D000212000FFF79EFE10
:1068200000B205E000212000FFF798FE404200B2D0
:10683000144B98420DDD144B98420DDD134B9842DA
:106840000DDD134B98420DDD124B98420DDD0026F5
:106850000DE0A02636010AE08026360107E0C026BA
:10686000F60004E08026F60001E08026B6002A004B
:1068700001212000FFF746FE31002000FFF7D8FE7F
:1068800070BDC046440400008808000011110000DB
:10689000212200004344000070B505000E000121D4
:1068A000FFF75CFE0405240D34432200012128007B
:1068B000FFF728FEE3050BD42800FFF79FFE040036
:1068C00001002800FFF7E8FD21002800FFF7E4FDA4
:1068D00070BD000010B504000121FFF73FFE044A1F
:1068E000024392B201212000FFF70CFE10BDC0460A
:1068F0000080FFFF10B504000021FFF72FFE03000A
:1069000000B2227B002A27D0C11742184A401349FF
:106910008A420DDDA188C0225201914208D0200098
:10692000FFF75AFF00212000FFF718FE00B213E026
:106930000B4A944663449BB20A4A93420CD8A288FD
:1069400080235B009A4207D02000FFF745FF00211B
:106950002000FFF703FE00B210BDC04666660000CF
:10696000472600008E4C0000D0B50400FFF7C2FFA0
:1069700008F0EAF90022FC239B0507F0D9FB06008A
:106980000F00A08808F0E0F932003B0007F0D0FBD0
:1069900008F098FAD0BD000010B5FFF7E5FF0249F6
:1069A00005F05CFF10BDC04600007A44F0B5D64645
:1069B0004F4680B587B007003023C35C002B00D161
:1069C000F5E003F01DFA8246FA6B831A3022BA5CB6
:1069D000022A03D0BA6B9A4200D9EAE07B6A1B68AC
:1069E0009946796D181C06F043FA051C3123FC5CAE
:1069F000012C03D180231B069C466544FB6A186862
:106A0000494606F035FAF864012C04D180231B06B0
:106A10009C466044F864FC6C396D201C06F028FA32
:106A20000390BE69311C201C06F0F0F80190291C6F
:106A3000301C06F0EBF8061C02903223FB5C002BA6
:106A40000ED0012B0FD0FC218905019806F0DEF84D
:106A50000190FC218905301C06F0D8F8029004E072
:106A60000023029301E0002301930299019806F0AC
:106A7000FFF90490F860FE69311C201C06F0C6F88E
:106A8000059038613323FB5C002B05D10399386AEC
:106A900006F0BCF8786109E03B6A80221206944651
:106AA00063441800291C06F0B1F878613423FD5CBA
:106AB000002D3DD10599201C05F036FD011C301C30
:106AC00006F0A4F8011C049805F02EFD011C0490AA
:106AD000BC6C201C05F0CAFC002805D000210398DE
:106AE00005F0D8FC00280BD10499786C05F0D2FC95
:106AF00000281DD00021039805F0B8FC002817D00D
:106B00000021301C05F0ACFC002811D180231B06AD
:106B1000E6180499301C05F0BDFC002807D1049E3E
:106B2000311C201C05F0A2FC002800D0261C3E6170
:106B3000396C386905F0F8FC3864022D04D10299EB
:106B400006F096F9386412E0029906F091F9041CF7
:106B50007E6C311C05F08AFC002807D1BE6C311C0C
:106B6000201C05F097FC002800D1261C3E640199EA
:106B7000386C05F0D9FC796905F0D6FC041C7D6CF5
:106B8000291C05F073FC002807D1BD6C291C201CB2
:106B900005F080FC002800D1251CBB6A1D60FB6C41
:106BA0003B654B467B655346FB63012002E00020BA
:106BB00000E0002007B00CBC91469A46F0BD0000F2
:106BC000F0B5CE4600B582B006000C1C01920093D1
:106BD00008AB1F7809AB197889460AAB1D780021EC
:106BE000201C05F043FC002829D10021019805F064
:106BF0003DFC002823D10021009805F037FC002837
:106C00001DD13223F75401334A46F2540133F5546F
:106C10003460019D7560009BB360B06B06F022FB91
:106C2000094905F01BFE071CB461011C281C05F076
:106C3000EDFFF061391C009805F010FE306202B0E3
:106C400004BC9146F0BDC04600247449F0B583B041
:106C500004000D1C161C111C281C05F025FC002826
:106C600029D16564A6643023E35C002B23D0A76A96
:106C70003B68291C0193181C05F0F8FB002808D17B
:106C8000311C019805F006FC002801D0351C00E0FD
:106C9000019D3D60266C656C291C301C05F0E6FBEF
:106CA000002807D1A56C291C301C05F0F3FB002837
:106CB00000D1351C256403B0F0BD70B50400836AB3
:106CC0001E680664436A1B684365456C291C301CBA
:106CD00005F0CCFB002807D1A56C291C301C05F061
:106CE000D9FB002800D1351C256470BD70B50400A7
:106CF0000D003023C35C002B03D1002901D0FFF726
:106D0000DCFF3023E55470BD3123C15470470000CF
:106D1000F0B5DE4657464E464546E0B587B004001E
:106D20008C469346059313A90D7814A90E7815A9DE
:106D30000F7816A9097888460021016041608160BA
:106D400000203023E0540133E0540133E054013398
:106D50009946323B9A464B465246E2540133E05440
:106D60005A46A26263466362059BE3620F4A2000B3
:106D7000FFF76CFF0E4BA36341462000FFF7C4FFF3
:106D8000029701960095129B119A10992000FFF727
:106D900017FF03F035F8A36BC01AE063200007B0BB
:106DA0003CBC90469946A246AB46F0BD00007F43EE
:106DB000A0860100F0B589B0040011A80678002073
:106DC00032256055313D3327E5550137E055033F06
:106DD000E6550696059004950390109802900F983A
:106DE00001900E9800902000FFF792FF200009B05C
:106DF000F0BDC068704700697047406970477047D0
:106E0000016042608360009BC360019B0361704727
:106E100070B504000E1C006806F02AF86568291C8D
:106E200005F01CFD011C301C05F018FD291C05F0A7
:106E300015FD03F077FF216905F010FD051CE168E1
:106E4000FE20800505F00AFD011C281C05F06CFBE6
:106E5000011CFE20800505F001FD70BD704700009B
:106E6000F0B58BB00C1C3249201C05F0CFFE06900B
:106E70000021201C05F004FB002852D1002700252A
:106E800000230893722F15D8FB002A4A9C580699B4
:106E9000201C05F0FFFA002804D0FE00254B9E19A7
:106EA000B68809E0FA00234B9B189D880137BFB2D2
:106EB0000894E7E700260024211C089F381C05F0F1
:106EC000E9FA00282FD10021201C05F0C9FA00287A
:106ED00005D00021381C05F0C3FA002825D10898F8
:106EE00007F09EFF08900991069807F099FF069019
:106EF0000791300007F062FF04900591280007F029
:106F00005DFF02900391201C07F08AFF0090019121
:106F1000089A099B0698079903F0D7FE07F0D2FF5D
:106F200004E0002002E0044800E003480BB0F0BD9C
:106F300000007A4404140100F0237449F0B583B0D2
:106F400001282ED1184B99422BD1184F18493800DF
:106F500000F060F81749184800F05CF81749184825
:106F600000F058F81749184800F054F81749184825
:106F700000F050F8174D1849280000F04BF8012494
:106F8000019403260096230000223900134802F0E2
:106F900085F901940096232324222900104802F049
:106FA0007DF903B0F0BDC046FFFF0000840900205A
:106FB00000080042000C0042880900200010004236
:106FC0008C090020001400429009002000180042A3
:106FD0009409002098090020001C0042C0080020ED
:106FE000FC07002010B5024802F0CBF910BDC046E6
:106FF000C008002010B5024802F0C3F910BDC04619
:10700000FC07002010B502490120FFF797FF10BDD3
:10701000FFFF000001607047F0B5944605AC25788D
:1070200007683E689C1E621E9441240662469207D1
:10703000224332433A600468606807221140AD0180
:107040002943022B01D05B0300E000230B430343E1
:107050006360F0BD70B505682C680904C0239B020D
:1070600019401205C026B60332401143214329605E
:10707000026851680B43536070BD026811680123B8
:107080000B43136003681A68D207FBD4DB69DB0784
:10709000F8D470470268116802230B431360036839
:1070A000DB699B07FBD4704703681B7E9B07FBD5FE
:1070B0007047036800225A8370470368187E4007B0
:1070C000C00F70470368187EC00970470268117EC0
:1070D00080235B420B43137670470368588B80070D
:1070E000C00F70470268538B02210B4353837047D4
:1070F0000368187EC007C00F70470368188DC0056D
:10710000C00DC0B2704770B504000D002000FFF73D
:10711000EFFF0028FAD02368ADB21D85012070BDB5
:10712000036801229A757047036801221A75704737
:107130000268116801230B43136003681A68D207C1
:10714000FBD4DB69DB07F8D47047026811680223BF
:107150000B4313600368DA699207FBD45A8B302122
:107160008A4310210A435A830368DB695B07FBD417
:107170007047036819680222914319600368DB694C
:107180009B07FBD4704728230268D15403681A7EFA
:10719000D20703D45B8BDB07F8D504E05B8B5B077E
:1071A00003D5002002E0002000E0012070472823E2
:1071B0000268D15403681A7E520704D55B8B5B07C3
:1071C00003D5002002E0002000E0012070470368A2
:1071D0001868C006400F053843425841C0B2704796
:1071E00010B50400FFF7F3FF002806D022685168AD
:1071F0008023DB020B43536005E022685168802343
:10720000DB020B43536010BD10B50400FFF7DFFF36
:10721000002805D022685168044B0B40536004E0FD
:1072200022685168014B0B40536010BDFFFFFBFF0C
:1072300070B504000D00FFF7CAFF00280DD02268CA
:107240005368032129400904094803401943516048
:107250002368DB695B07FBD408E0226853680321DD
:1072600029400904024803401943516070BDC046DB
:10727000FFFFFCFF03681868C006400F0438434254
:107280005841C0B270470368588B8006800F0138A0
:1072900043425841C0B270470368588B8006800F44
:1072A000023843425841C0B270470368588B800788
:1072B000C00F70470368588B8006800F0338434225
:1072C0005841C0B27047F8B5040017004900114397
:1072D000CDB2FFF7E1FF061E0ED12000FFF7EAFF57
:1072E000002835D12000FFF7E0FF002804D020005F
:1072F000FFF7C9FF061E2BD02268536ADB0ADB02A8
:107300002B435362002F0ED123681B7EDB07FBD576
:107310002000FFF7C1FF002813D169083A002000C0
:10732000FFF7D1FF0DE023681A7E920709D41A7E79
:10733000D207F8D55968C02292020A435A60002643
:1073400006E023685B8B5B0701D5002600E0012681
:107350003000F8BD0368187E4007C00F704703680F
:10736000187EC007C00F70470368588BC006C00F57
:1073700070470368187E8007C00F70470368588BFA
:107380000007C00F704710B50400FFF720FF00286A
:107390000AD023681A7E920702D41A7ED207F8D543
:1073A0002822985CC0B203E022682823D05CC0B2D7
:1073B00010BD000030B50368204A934211D0204A26
:1073C000934211D01F4A934211D01F4A934211D0C9
:1073D0001E4A934211D01E4A93422DD10E241925E4
:1073E0000DE0092414250AE00A24152507E00B24E2
:1073F000162504E00C24172501E00D24182501238F
:10740000A34014480360A308C0339B00195803220B
:107410002240D200FF249440A143C0249440220083
:107420000A431A508023DB012B430B4A53800A4B3B
:107430005B785BB2002BFADB30BDC046000800422F
:10744000000C0042001000420014004200180042EC
:10745000001C004200E100E0000C0040F8B505000F
:107460000E0017001C00FFF7A5FF2800FFF705FE20
:10747000B2001C2313407A07120C296813430B60D7
:1074800084232A689375012E1CD1012F01D110216C
:1074900000E008210C4B1868C000614304F020FE96
:1074A0002968072202408B895203DB04DB0C13435B
:1074B0008B81C0082A689389C004C00C5B0B5B03F6
:1074C00018439081F8BDC0463000002070B504001C
:1074D0000E001500FFF76EFF2000FFF729FE216860
:1074E0000A681C239A430C3B13430B607600236805
:1074F000FF2131405962002D04D02268536A0121D6
:107500000B4353620723226893752368DB695B078B
:10751000FBD470BD70B505000C00FFF74BFF2800D1
:10752000FFF706FE2B6814221A600E4B1E686100DE
:10753000300004F0D5FD04000B49300004F0D0FD0C
:1075400043011B1A9B001818FA21C90004F0C8FD5A
:107550002A68201A0538D368FF2108408B43184356
:10756000D06070BD3000002040420F000020704706
:1075700008B4024B9C46103808BC60476D7500008B
:1075800010B50022072A0CDC0F2303400009092B49
:1075900001DD373300E030330724A41A0B550132E4
:1075A000F0E710BD10B50C000B4B1868FFF7E8FFB3
:1075B0000A4B186821000831FFF7E2FF084B1868F2
:1075C00021001031FFF7DCFF064B1868210018314D
:1075D000FFF7D6FF202010BD0CA0800040A0800047
:1075E00044A0800048A0800008B4024B9C4610389C
:1075F00008BC6047A57500003F20704710B5064BDA
:107600001B685A1C05D103685B6998470300024A4E
:107610001060180010BDC0462C00002010B582B0CC
:107620006B46D97107330268546801221900A047DC
:1076300002B010BDF0B5CE46474680B593B0060007
:107640000B7802330B7001AC0225402200216B46FF
:10765000981D07F053FD0823237003336370E57012
:1076600025716571023B99462372042060720121E5
:1076700021736573A573052363742422A2741027F4
:10768000BC4627756175A075E27525760627677675
:10769000A376E2762777E3772027E2550137E15595
:1076A0000137E1550137E1550631A1540132A354A8
:1076B0000232203FA754624622852A226746A754F9
:1076C00001324F46A7540132A0540332A55401326F
:1076D0000630A0540432A1540132A3540232A554FE
:1076E00009322287053AA1540132A3543933E554B3
:1076F00005336B4404321A7000225A70337DA37034
:10770000A37263770133DBB2A377727D87390D00F3
:1077100015431C30255407302354501C3623E054A5
:10772000023252B20A430733E25442222100044893
:1077300000F03EFD13B00CBC90469946F0BDC0462B
:10774000F809002008B4024B9C46103808BC60477A
:107750003576000070B50C00097865782379027DD4
:107760009A423ED1A12908D1212D06D107222049D4
:10777000204800F01DFD012038E0212933D1202DC3
:1077800004D107221A491B4800F034FC222D02D1F3
:10779000A278174BDA71202D01D0222D13D1144B72
:1077A0001A689623DB009A4207D1114BDB79DB077D
:1077B00003D4FA2002F0D4FF01E002F0DBFF002145
:1077C0000C4800F031FE232D0FD1E3781B02A27884
:1077D0001343094A13600021064800F025FE0120EA
:1077E00004E0002002E0002000E0012070BDC0465F
:1077F00024000020F80900202000002008B4024BDB
:107800009C46103808BC60475577000010B503004F
:10781000006A597D013100F003FB034B1B68013303
:107820005A1E9341C01810BD2C00002010B5020054
:10783000074B1868431C04D0054B012252421A60C2
:1078400004E0106A517D013100F08AFB10BDC04692
:107850002C00002010B50300006A597D023100F0B1
:10786000F7FA10BD10B50300006A597D023100F02F
:10787000AFFA10BD10B5040008001300617D02319D
:107880000200206A00F0CAFB002801D101236360D6
:1078900010BD70477047000070B5040000224260C0
:1078A000FA239B0083600500103503002833032072
:1078B000A0750138E075A361E2610A4B1E0008362D
:1078C00026604033236121622423E2545F33A362A4
:1078D000E062013B236301F079FF290001F044FFDE
:1078E000200070BD1C1C010010B5012806D1044BFE
:1078F000994203D103490448FFF7CEFF10BDC046AB
:10790000FFFF0000F80900209C09002010B5437D0E
:107910000A4A12685B01D3180933FF3359780224ED
:1079200021435970437D0133DBB25B01D318093326
:10793000FF335A7801210A435A7010BDB40E00205B
:107940007047000010B502490120FFF7CDFF10BDC0
:10795000FFFF0000704782B0836D002B1FD1A8335A
:10796000C25CD2B2EFF3108300930123019372B68D
:10797000019B591E0191002B03D0A823C25CD2B2F7
:10798000F6E70099002902D162B6BFF36F8F002A93
:1079900022D0A423C358A02280581B1A1CE0EFF366
:1079A000108300930123019372B60022019B591E9C
:1079B0000191002B03D0F423C25CD2B2F6E7009908
:1079C000002902D162B6BFF36F8F002A04D0F023E2
:1079D000C358EC2280581B1A180002B070470000F0
:1079E00030B583B041680C68FF23426D13401A0024
:1079F00008325201A218D279D20700D4A5E05A0168
:107A00008A1892689204920C14D15A0189188D68D0
:107A10004F4A1540802252032A438A608A68920B9B
:107A200095038D6008335B01E418237940221343EA
:107A3000237180E0C46D002C3ED1A4340251A33CDC
:107A4000C4650200AC325B01C9184A60EFF31083D1
:107A50000093019472B6019B5A1E0192002B24D010
:107A6000A8230122C2544C33C35CDBB2F4328354EA
:107A7000835C002BEFD14568FF33426D13405A0100
:107A8000AA18946832490C4080214903214391602F
:107A90009168890B8C0394602A6808335B01D318C2
:107AA0001A7940210A431A71D5E7009B002B42D175
:107AB00062B6BFF36F8F3EE0F02402510022C26530
:107AC000020060325B01CB185A60EFF31083009321
:107AD0000123019372B6019B5A1E0192002B24D000
:107AE000F4230122C2544C3BC35CDBB2F432835416
:107AF000835C002BEFD14568FF33426D13405A0180
:107B0000AA18946812490C408021490321439160CE
:107B10009168890B8C0394602A6808335B01D31841
:107B20001A7940210A431A71D5E7009B002B02D134
:107B300062B6BFF36F8F4368416D1A68FF230B4035
:107B400008335B01D3187F22DA7103B030BDC04621
:107B5000FF3F00F001280AD1054B994207D1054BA0
:107B6000054A1A600723002B01DB013BFBE7704746
:107B7000FFFF0000B40E00200050004110B50400CB
:107B800002F068FA200010BD30B583B00D006B46DE
:107B9000DC1D0023237001F019FE210001F0A0FD7F
:107BA0002B689C4660442860207803B030BD0000FC
:107BB000F8B504000025564B1D7001211F2002F06E
:107BC00097FC01211F2002F011FD524B1D70012175
:107BD0001E2002F08DFC01211E2002F007FD4E4AFE
:107BE000D36920210B43D3614C4B38315A5C0125BA
:107BF0002A435A543C22985C493988439854985CEB
:107C00000621084398545920195C29431954995C5A
:107C10004A3801409954995C602001439954404B83
:107C2000404A5A803E4B5B78DB09FBD13E4802F06C
:107C3000DBF83E4804C8137801210B4313708022FF
:107C40005200002107F05AFA384B1B689A78D20785
:107C5000FAD4374A5A62374B19684A0B1F20024040
:107C60008B0C1840C90D072319401F2A00D11A3A5E
:107C70001F2800D10238072900D104392B4B1F27B8
:107C80003A401D682E8D92012B4D2E4032431D68C7
:107C90002A851D682A8D07401F2082431000384323
:107CA00028851D682A8D0803244911400143298530
:107CB0001868C2780C218A4308252A43C2701D68BF
:107CC000EA780320824302200243EA701D682E787E
:107CD0007F2232402A701D682A78042632432A7097
:107CE0001D682A898A432A811549C125AD004A5950
:107CF0001202120A4A5180220A601A68137803435A
:107D000013700123237000210E48FFF719FEF8BD00
:107D1000190A0020180A0020000400400044004115
:107D2000000C004006400000BD890000B40E002099
:107D3000B80E0020246080003FF8FFFFFF8FFFFF98
:107D400000E100E09C0900200078002810D0094BD9
:107D50001B681A8901218A431A811A8B08210A4358
:107D60001A831A8B04210A431A83034B00221A60D8
:107D70007047C046B40E0020AC0E002010B5124A69
:107D800093699B0B9803906112680823FF330220CC
:107D9000D0540624FF34105D883BFF3B034313554A
:107DA0000823FF33D35C9B07FAD5084A937A7F20D8
:107DB00008407F218B43190001439172917A8023FF
:107DC0005B420B43937210BDB40E00200050004183
:107DD00010B58A010B4BD218FF2319400A484B01FA
:107DE000C3185A619A69920B94039C610368083125
:107DF000490159180223CB714A79823B13434B71D5
:107E000010BDC046240A0020B40E002008314901EC
:107E1000024B9C46614420234B7170470050004147
:107E200010B58A00084BD058002803D003689B681F
:107E3000984707E0FF2319404901044B5918886807
:107E40008004800C10BDC046FC090020B40E002048
:107E500010B50C00FFF7E4FF00280DD0074B1B689E
:107E6000FF2121400831490159184A7980235B429A
:107E700013434B710223CB7110BDC046B40E0020DA
:107E8000F0B583B001900F0000921C002F4B1B68CF
:107E9000002B55D02E4B1B78002B03D100211E2028
:107EA00002F0A4FB2A4B64221A70BB00294A98589E
:107EB000002806D003685B682200009998470400F8
:107EC00040E039000198FFF7ABFFA04204D239002F
:107ED0000198FFF7A5FF0400FF263E401E4B7101ED
:107EE00058188268920B950385601B685B180933EC
:107EF000FF331A7801210A431A70BB011749591838
:107F00002200009807F0DEF8002C1BD03900019801
:107F1000FFF786FF002815D10F4B1A68330008338E
:107F20005B01D31819794020014319710121D971DE
:107F30007301D3180933FF335A780A435A7001E0AA
:107F400001246442200003B0F0BDC046AC0E002006
:107F5000180A0020FC090020B40E0020E40B0020C9
:107F600000B583B001236A460732FFF789FF012875
:107F700002D16B46D87901E00120404203B000BD38
:107F800010B58A01184BD218FF231940174C4B012A
:107F9000E3185A609868164A104080225203024340
:107FA0009A609A68920B9003986022680B000833DD
:107FB0005B01D31818794024204318710B00083353
:107FC0005B01D3189B795B06F8D50B0008335B0186
:107FD000D318DB79DB07F8D54901044B59188868B9
:107FE0008004800CC0B210BDE40B0020B40E002051
:107FF000FF3F00F070B50D0014000021FFF7C0FF37
:10800000A04200D920000023A34204D2024AD25C3D
:10801000EA540133F8E770BDE40B0020F8B5DE4602
:1080200057464E464546E0B50E0091461F00464B6A
:108030001B68002B7AD08023DB019F427AD8434B08
:108040001B78002B03D100211F2002F0CFFA3F4BF9
:1080500064221A7000239846002F6ED03C4B1D6896
:10806000FF243440230008335B01EB189B79DB09C4
:1080700027D0384B1868384904F032F8374B58434A
:10808000172104F02DF800E01800230008335B01ED
:10809000EB18DB799B0714D4314B9B5D002B02D18D
:1080A000431E0028F0D12E4B01229A556401284B23
:1080B0001C19A3699B0B9A03A26101235B4298469A
:1080C0003BE0274B00229A553F2F0AD96201204BF3
:1080D0009B189969802212060A439A6140239A46A6
:1080E00000E0BA46B3011F4A9B46934452464946B4
:1080F000584606F0E7FF6201154B9B185A465A6135
:10810000996952469204920C890B89030A439A6139
:10811000083464012D190223EB716A79823B134301
:108120006B71D0445346FF1AD14495E701235B425B
:10813000984602E001235B42984640463CBC90468C
:108140009946A246AB46F8BDAC0E0020190A0020A5
:10815000B40E00203000002040420F0070110100DA
:108160001C0A0020240A002070B50E0011001C001B
:10817000B5010C4BED182200280006F0A3FFFF21EB
:1081800031404B010849C9184D618A69074B1340BA
:108190008B618A69A3049B0C920B920313438B613E
:1081A000200070BD240A0020B40E0020FF3F00F024
:1081B000F0B583B001900E001700104B1B78002B18
:1081C00019D10F4B1B78002B08D00E4D2C880E4870
:1081D000201806F077FFE4192C800CE0140000252D
:1081E000002C08D07219230000210198FFF7BCFF72
:1081F0002D18241AF4E7380003B0F0BDA40D0020B8
:10820000A80E0020AA0E0020A80D002070B50C00BA
:108210001500012A29D9100006F02EFF06002000C3
:1082200007F0BEFC0130400030700323737002225F
:10823000AA420FD2217800290CD00134531CDBB2A2
:10824000B154AB4205D0F318002119700232D2B2FA
:10825000EEE71A0031000648FFF7AAFF441EA041CE
:10826000C4B2300006F012FF00E00024200070BD10
:10827000F809002010B5002906D0084B01221A7019
:10828000074B00221A8007E0044B00221A70044BAF
:108290001A880449FFF78CFF10BDC046A80E0020C5
:1082A000AA0E0020A80D0020F0B587B001900C00A8
:1082B000002505951B4E0127377005A9FFF764FCC3
:1082C00002AB9D71092302AA1370073B53705771CB
:1082D000A023D3715A331372059B093353801300C3
:1082E00010713570092C05D1092219000198FFF78A
:1082F0005FFF13E0002305930121019C2000FFF79D
:10830000B9FF092202A92000FFF752FF05A92000AA
:10831000FFF73AFC00212000FFF7ACFF012007B077
:10832000F0BDC046A40D002070B592B006000C0050
:10833000CD78022D0AD18B79C979090219433548C4
:10834000FFF7B2FF431E9841C0B261E001F03EFA70
:10835000210001F0D9F9002803D0C317181AC00F63
:1083600056E0012D08D1A379E27912021A43112AAD
:108370003DD8D2B228493CE0032D44D1A278002A4E
:1083800007D1A179E3791B020B43032B2CD9234995
:108390002FE0022A08D1A379E27912021A43204978
:1083A0003000FFF733FF33E0012A08D1A379E279E7
:1083B00012021A431B493000FFF728FF28E0032A66
:1083C00023D13E32002101A806F098FE01F0FEF90B
:1083D00001A901F0A9F9A379E27912021A4301A9CE
:1083E0003000FFF713FF13E0DAB20C4901E00A494D
:1083F000002200290BD0002A00D10A783000FFF7B4
:10840000D7FE012004E0002002E0002000E0002070
:1084100012B070BDF8090020D81C0100CC1C01006E
:10842000C01C0100D01C0100FF230B405B0103496D
:10843000C9188B699B0B9A038A617047B40E0020A0
:1084400070B505000C0001F0C1F9210001F07CF9C4
:10845000041E03D100212800FFF7E6FF200070BDB5
:108460000023037001224270436007330372704798
:1084700083000148C0187047D0090020836C402059
:10848000C01A7047806C7047836C002B02D0436C1D
:10849000C05C01E001204042704700230364436454
:1084A0008364704710B504004022002106F026FEC8
:1084B0002000FFF7F2FF200010BD0000F8B50C000F
:1084C000832A19D1FF230B40714E5A01B2189069CB
:1084D00070490840C021890501439161A4016E499A
:1084E00064185461316808335B015A5C7020824320
:1084F000402002435A54CAE0022A6FD18B00674AD7
:108500009858002802D003685B699847F82001F06A
:108510009DFD0500624B03605D4B43600830FFF733
:10852000C1FF6C650023AB65EB65A022AB50043244
:10853000AB500432AB544432AB500432AB50043233
:10854000AB540132AB54FF331A0022405201696828
:108550008C46624490684F490840C0218905014318
:1085600091606A6810686A6D1A4008325201115CA5
:108570000726B143032631431154290060316A6D47
:108580001A40520168688446624451606A68126801
:10859000696D1940490152180932FF3251780120A2
:1085A000014351706E686A6D13405A01B2189068A9
:1085B0003C49084080214903014391609168890B3F
:1085C00088039060326808335B01D3181A79402120
:1085D0000A431A71A400314BE55058E0822A19D1A0
:1085E000FF230B402A4D5A01AA18906929490840D7
:1085F000C021890501439161A40127496418546190
:10860000296808335B015A5C7020824330200243A2
:108610005A543CE0002A3AD1FF320A401C4851012A
:1086200041188B681B4F3B40C026B60533438B6017
:10863000A4011D4BE3184B600068130008335B0175
:108640001D5C07229543012215431D5410229446B8
:108650008C44624695683D402E4396600E4AA418AD
:108660004C611A5C7024A243102422431A548C6873
:108670000C4A14408022520322438A608A68920B7B
:1086800094038C60C3181A7940210A431A71F8BD0B
:10869000B40E0020FFFFFF8F240A0020FC090020F9
:1086A000A41C0100FF3F00F0E40B002070B50500A2
:1086B0000124092C0BD8A300054A9A58002A06D099
:1086C00021002800FFF7FAFE0134E4B2F1E770BDA3
:1086D000D009002030B583B005000C004B780B2B7F
:1086E00000D98AE09B00484AD3589F46002089E081
:1086F0000B78002B08D101AA1370537002330021AC
:10870000FFF732FD01207DE001AB00221A705A70A4
:108710003E4B1B78012B02D101AB01321A700223B0
:1087200001AA00212800FFF71FFD01206AE08B78D5
:10873000012B12D101AB00221A705A70344B1B78F6
:10874000012B02D101AB01321A70022301AA0021D0
:108750002800FFF709FD012054E02C4B00221A707D
:108760000021FFF761FE01204CE08B78012B0BD13B
:10877000274B01221A7001AA002313700133002134
:10878000FFF7F2FC01203DE0002B38D11F4B012206
:108790001A700021FFF748FE012033E08978FFF7C7
:1087A000EDFA01202EE0FFF7BFFD2BE00123194A6F
:1087B0000021FFF7D9FC012024E00B78DB0620D153
:1087C000FFF774FFA278134B1A601348FFF79EF867
:1087D00000212800FFF728FE012013E001230F4AA3
:1087E0000021FFF7C1FC01200CE08A780B4B1A60D6
:1087F0000021FFF719FE012004E0012002E0012022
:1088000000E0002003B030BD6C1C01001A0A0020FB
:10881000230A0020AC0E00209C090020B00E00208E
:1088200070B582B004005D4B1B78002B00D0B2E025
:108830005B4B1B689A8B120710D508229A83002283
:108840000021FFF73BFE564B19680A22FF328B5C72
:10885000102003438B54534B00221A60504B1B686B
:108860009A8B520721D504229A834F4B1B78002BF9
:108870000BD04D4A1378013BDBB213701378002BF9
:1088800003D101211F2001F0B1FE484B1B78002BC2
:108890000BD0464A1378013BDBB213701378002BE0
:1088A00003D101211E2001F0A1FE3D4B1B680822CF
:1088B000FF329A5C920605D5842149005A5C20203B
:1088C00002435A540822FF329A5CD20639D56A46CE
:1088D0003749100060C960C031488168890B8D0339
:1088E000856082204000195C402529431954137883
:1088F00060221A4204D169462000FFF7EBFE03E034
:1089000069462000FFF79CFD002809D0244B196818
:108910000622FF32885C80235B4203438B5403E0D2
:1089200000212000FFF772FA1D4B1B680822FF325E
:108930009A5C520605D5842149005A5C40200243C6
:108940005A54174B1A680823FF337F21D15401244E
:10895000072C20DC124B1B68FF2525402A0008321B
:1089600052019B18DB79002B13D0A300114A9858B1
:10897000002803D003681B6898470AE021000E48CE
:10898000FEF788FF064B1B6808356D015D197F23D4
:10899000EB710134DCE702B070BDC046A80E0020C8
:1089A000B40E0020AC0E0020190A0020180A002086
:1089B000E40B0020FC0900209C09002010B50248AF
:1089C000FFF72EFF10BDC046F8090020806C40382C
:1089D00043425841C0B2704701313F2008407047C0
:1089E00070B504000D00FFF7F1FF002809D1236CDA
:1089F000E554216C2000FFF7EFFF2064A36C0133E6
:108A0000A36470BD70B582B00400EFF310830093CF
:108A10000123019372B60025019B5A1E0192002B7F
:108A200005D020000830FFF729FD0500F4E7009B82
:108A3000002B02D162B6BFF36F8FA36D002B72D1F2
:108A4000EFF3108300930123019372B6019B5A1E2A
:108A50000192002B0BD0A823E35C002BF6D1009BE6
:108A6000002B00D0D0E062B6BFF36F8FCCE0009B4C
:108A7000002B02D162B6BFF36F8F0026AE4212D236
:108A8000A023E358A422A25893420CD2591CA0223E
:108A9000A150E31860331978C9B220000830FFF7FD
:108AA0009FFF0136EAE7A023E2580433E3589A42D5
:108AB00000D0A9E0A0230022E2509F3BA365EFF382
:108AC00010820092019372B6019B5A1E0192002BF4
:108AD00022D0A8230022E2544D33E35C002BF3D0D4
:108AE000F523E25465680A33626D13405A01AA18EF
:108AF000906848490840802149030143916091688A
:108B0000890B880390602A6808335B01D3181A79AF
:108B100040210A431A71D7E7009B002B74D162B63B
:108B2000BFF36F8F70E0EFF3108300930123019385
:108B300072B6019B5A1E0192002B0AD0F423E35C0B
:108B4000002BF6D1009B002B5ED162B6BFF36F8F76
:108B50005AE0009B002B02D162B6BFF36F8F002654
:108B6000B54205D9EC23E358F022A258934206D32C
:108B7000EC23E2580433E3589A4245D10CE0591CE7
:108B8000EC22A150E318AC331978C9B220000830A8
:108B9000FFF726FF0136E3E70023EC22A350A3658D
:108BA000EFF3108300930123019372B6019B5A1EC9
:108BB0000192002B22D0F4230022E2540133E35C23
:108BC000002BF3D0F523E25465680A33626D13403D
:108BD0005A01AA1890680F490840802149030143AF
:108BE00091609168890B880390602A6808335B0163
:108BF000D3181A7940210A431A71D7E7009B002B3A
:108C000002D162B6BFF36F8F20000830FFF73AFC45
:108C100002B070BDFF3F00F070B582B00400EFF30A
:108C2000108300930123019372B60025019B5A1E05
:108C30000192002B05D020000830FFF71FFC050033
:108C4000F4E7009B002B02D162B6BFF36F8FA36DD8
:108C5000002B72D1EFF3108300930123019372B6BE
:108C6000019B5A1E0192002B0BD0A823E35C002B22
:108C7000F6D1009B002B00D0D0E062B6BFF36F8F1F
:108C8000CCE0009B002B02D162B6BFF36F8F0026B1
:108C9000AE4212D2A023E358A422A25893420CD28F
:108CA000591CA022A150E31860331978C9B22000E2
:108CB0000830FFF795FE0136EAE7A023E2580433B7
:108CC000E3589A4200D0A9E0A0230022E2509F3B43
:108CD000A365EFF310820092019372B6019B5A1EB6
:108CE0000192002B22D0A8230022E2544D33E35CF2
:108CF000002BF3D0F523E25465680A33626D13400C
:108D00005A01AA1890684849084080214903014344
:108D100091609168890B880390602A6808335B0131
:108D2000D3181A7940210A431A71D7E7009B002B08
:108D300074D162B6BFF36F8F70E0EFF310830093CE
:108D40000123019372B6019B5A1E0192002B0AD097
:108D5000F423E35C002BF6D1009B002B5ED162B6BE
:108D6000BFF36F8F5AE0009B002B02D162B6BFF3B6
:108D70006F8F0026B54205D9EC23E358F022A258A4
:108D8000934206D3EC23E2580433E3589A4245D188
:108D90000CE0591CEC22A150E318AC331978C9B28D
:108DA00020000830FFF71CFE0136E3E70023EC2229
:108DB000A350A365EFF3108300930123019372B6D0
:108DC000019B5A1E0192002B22D0F4230022E25470
:108DD0000133E35C002BF3D0F523E25465680A33DA
:108DE000626D13405A01AA1890680F49084080210B
:108DF0004903014391609168890B880390602A6858
:108E000008335B01D3181A7940210A431A71D7E756
:108E1000009B002B02D162B6BFF36F8F2000083099
:108E2000FFF732FB02B070BDFF3F00F070B50400E9
:108E3000836C002B0AD0436CC55C416CFFF7CCFD02
:108E40006064A36C013BA364280001E00120404260
:108E500070BD0000F0B5C64600B582B00600884679
:108E60001700EFF3108300930123019372B60024DF
:108E7000019B5A1E0192002B05D030000830FFF7ED
:108E8000FDFA0400F4E7009B002B02D162B6BFF3A9
:108E90006F8FB36D002B72D1EFF31083009301231A
:108EA000019372B6019B5A1E0192002B0BD0A8238E
:108EB000F35C002BF6D1009B002B00D0D0E062B613
:108EC000BFF36F8FCCE0009B002B02D162B6BFF3E3
:108ED0006F8F0025A54212D2A023F358A422B258C6
:108EE00093420CD2591CA022B150F3186033197868
:108EF000C9B230000830FFF773FD0135EAE7A0235F
:108F0000F2580433F3589A4200D0A9E0A02300227B
:108F1000F2509F3BB365EFF310820092019372B65B
:108F2000019B5A1E0192002B22D0A8230022F2544A
:108F30004D33F35C002BF3D0F523F25474680A33FD
:108F4000726D13405A01A218906859490840802157
:108F50004903014391609168890B880390602268FE
:108F600008335B01D3181A7940210A431A71D7E7F5
:108F7000009B002B74D162B6BFF36F8F70E0EFF3EC
:108F8000108300930123019372B6019B5A1E019234
:108F9000002B0AD0F423F35C002BF6D1009B002BAE
:108FA0005ED162B6BFF36F8F5AE0009B002B02D1F7
:108FB00062B6BFF36F8F0025AC4205D9EC23F3589E
:108FC000F022B258934206D3EC23F2580433F358FC
:108FD0009A4245D10CE0591CEC22B150F318AC3345
:108FE0001978C9B230000830FFF7FAFC0135E3E721
:108FF0000023EC22B350B365EFF3108300930123F9
:10900000019372B6019B5A1E0192002B22D0F423C9
:109010000022F2540133F35C002BF3D0F523F25419
:1090200074680A33726D13405A01A218906820497F
:10903000084080214903014391609168890B8803AE
:109040009060226808335B01D3181A7940210A43E3
:109050001A71D7E7009B002B02D162B6BFF36F8F66
:10906000EFF3108300930123019372B60024019B58
:109070005A1E0192002B0FD0BC42F8D235000835A1
:109080002800FFF7FFF90028F1D02800FFF7CEFEF7
:10909000434618550134EFE7009B002B02D162B61E
:1090A000BFF36F8F200002B004BC9046F0BDC046F5
:1090B000FF3F00F010B502490120FEF74BFD10BD47
:1090C000FFFF00000120704710B503681B6A014ACA
:1090D000984710BD13040000F0231940302901D037
:1090E000002000E001207047F0231B01194080237D
:1090F0009B0099420DD00133FF33994205D0802364
:109100005B00994203D1052004E0072002E0002023
:1091100000E0062070470F231940012905D00229DD
:1091200001D0022002E0012000E000207047000092
:10913000F0B585B0040003911600AC23C05C364D39
:1091400042001218D300EB180821595601F088FA92
:10915000AD23E05C43001B18DA00AD180821695606
:1091600001F07EFAAF23E35C022B0CD1BE33E05C4E
:10917000FF2808D043001B18DA00274B9B18082152
:10918000595601F06DFAB023E05CFF281CD0012194
:1091900001F0AEF9B023E05C1F4942001518EB0066
:1091A0005B56DB011D4D5F19B42567511C4DAC4664
:1091B0006344B82563511218D00009184968012288
:1091C0008A40BC2162501A60039B01220121206960
:1091D000FEF744F9256931002000FFF785FF039071
:1091E00031002000FFF797FF070031002000FFF754
:1091F00073FF00903B00012203992800FDF70CFF4C
:10920000AE23E25C0133E15C2069FDF723FF2069B6
:10921000FDF740FF05B0F0BD9C1701001844004168
:1092200014440041F8B5DE4657464E464546E0B583
:1092300004008B46924699460AAB1B7898460BABC6
:109240001F780CAB1E780DAB1D7800234360FA230A
:109250009B008360104B083303601430FFF722F942
:1092600020006030FFF71EF95B462361AC235246B5
:10927000E25401334A46E25401334246E254013398
:10928000E7540133E6541033E55420003CBC9046CB
:109290009946A246AB46F8BDEC1C010070B584B0FF
:1092A000040008A8057809A80678FF20039002901A
:1092B000019600952000FFF7B5FF200004B070BDB7
:1092C00010B504000069FDF7D8FE20001430FFF748
:1092D000E4F820006030FFF7E0F810BD10B504009E
:1092E00020006030FFF7CEF80028F9D12069FDF7A3
:1092F000DBFE10BD10B51430FFF7C4F810BD10B57B
:109300006030FFF7BBF810BD10B51430FFF7BCF8A4
:1093100010BD30B583B005000C00EFF3108300934F
:109320000123019372B6019B5A1E0192002B04D0B7
:1093300021002800FFF754FBF5E7009B002B02D12A
:1093400062B6BFF36F8F03B030BD00B583B0EFF3EB
:10935000108300930123019372B6019B002B08D068
:10936000FFF764FD009B002B09D162B6BFF36F8F3E
:1093700005E0009B002B02D162B6BFF36F8F03B0F4
:1093800000BD10B504000069FDF7A7FE002805D058
:109390002069FDF7B2FE2069FDF7A4FE2069FDF704
:1093A0008CFE002817D02069FDF7A7FE01002300DE
:1093B00014331800FFF7ADFFB023E35CFF2B0AD096
:1093C00020001430FFF75AF8092804DCB423E358CE
:1093D000BC22A2581A602069FDF78AFE002811D02D
:1093E00020006030FFF74EF8002808D020006030E1
:1093F000FFF7ABFFC1B22069FDF785FE02E02069EF
:10940000FDF792FE2069FDF75DFE002805D020697A
:10941000FDF75CFE2069FDF74CFE10BD70B5050040
:109420000C000069FDF764FE00280AD028006030B7
:10943000FFF728F8002804D128692100FDF763FE12
:1094400043E028006030FFF7C1FA002835D0EFF381
:109450001083DB0728D41E4B5B68DB05DB0DF0D0E7
:10946000103B5BB2002B11DA0F221A40083A920827
:109470000632920016498C466244526803210B4022
:10948000DB00DA409209032313400BE09A08C03254
:1094900092001049525803210B40DB00DA40930937
:1094A00003221340032BCCD82869FDF721FE0028A6
:1094B000C7D02800FFF765FFC3E728006030210010
:1094C000FFF727FF2869FDF72BFE012070BDC0467E
:1094D00000ED00E000E100E070B504001430FFF79B
:1094E00034FF0500B023E35CFF2B0AD020001430CA
:1094F000FEF7C4FF0A2804DDB823E358BC22A258B3
:109500001A60280070BD000010B5442200211348E5
:1095100005F0F4FD44220021114805F0EFFD114B48
:1095200000221A60104B103280215A500131FF3155
:109530005A50C12080001958FF24A14319501A60C5
:109540000A4B0B4A5A800B4A137802210B431370C3
:10955000084B5B78DB09012BFAD010BDFC0F002013
:10956000B80F00204410002000E100E0000C004093
:109570000540000000180040F0B583B004000F0063
:10958000019243001B18DA003E4B9B1816269E578B
:10959000731C74D0102E72D03B4B1B68002B04D16F
:1095A000FFF7B2FF384B01221A600125B540374A58
:1095B00053692B4353610021200001F051F8002F23
:1095C00007D158E09A0032481258AA4206D0013317
:1095D00000E000232F4A11689942F3D8994202D142
:1095E00001312C4A11609B00294A9D502A4A9F5004
:1095F000072E03DD083EB600012301E0B60000237C
:10960000224F9A1D9200D1590720B0408143D15179
:10961000019A042A2FD89400204A125997461B48D1
:1096200006339B001A580521B1400A431A5022E024
:10963000164806339B001A580421B1400A431A50B9
:1096400019E0124806339B001A580321B1400A431F
:109650001A5010E00D4806339B001A580221B14001
:109660000A431A5007E0094806339B001A580121A3
:10967000B1400A431A502D042D0C044BDD6003B099
:10968000F0BDC0469C1701004010002000180040AB
:10969000FC0F002044100020B80F0020201D010006
:1096A00070B500240FE00A4B1A69A30009495B5802
:1096B000134207D0A500084BEB589847054BEA58D2
:1096C000034B1A610134054B1B68A342EBD870BDF4
:1096D00000180040FC0F0020B80F002044100020AC
:1096E00070B50E0044680025002C0BD023685B6821
:1096F000310020009847002802DB2D18E468F3E7CA
:1097000001256D42280070BD70B50D004468002C25
:1097100008D023689B68290020009847002802D1C0
:10972000E468F4E7002070BD70B50D004468002CBB
:1097300007D02368DB682900200098472D18E468CB
:10974000F5E700232B7070BD70B50D004468002C48
:1097500008D023681B68290020009847002802D100
:10976000E468F4E7002070BDF8B505000F00437809
:109770008A799B18027A934224DC4268002A02D13B
:10978000696004E01A00D368002BFBD1D7602B7806
:109790003B716B787B71FB792A789B182B700024C6
:1097A000BB79A34210D9A600BB689C466644687882
:1097B000FEF75EFE336803606B7801336B70013433
:1097C000E4B2EDE7002000E00120F8BD10B5064B43
:1097D0001B68DB0705D40548FEF742FE024B012259
:1097E0001A60024810BDC046481000204C100020EE
:1097F000F8B505000024561E002A0BD02B681B6804
:109800004F1C097828009847002803D00134320003
:109810003900F0E72000F8BD10B50B0009689A6820
:1098200003685B68984710BD70B505000C1E09D031
:10983000080006F0B5F902002B685B6821002800DB
:10984000984700E0002070BD10B503681B6898477A
:1098500010BD000010B503685B68022201499847FB
:1098600010BDC046401D010070B50500FFF7D4FFD4
:1098700004002800FFF7EEFF201870BDF0B5C646C3
:1098800000B58AB080460D00160001AA20230021F1
:10989000D154012E00D80A2609AF3100280002F069
:1098A000A5FCCCB23100280002F01AFC0500092CFE
:1098B00002D83034E4B201E03734E4B2013F3C7006
:1098C000002DEAD1002F0AD0380006F069F9020015
:1098D00043461B685B6839004046984700E000201B
:1098E0000AB004BC9046F0BD10B5002A04D1C9B23C
:1098F00003681B68984702E0D2B2FFF7BFFF10BDB4
:1099000010B5FFF7F1FF10BDF0B5C64600B584B045
:10991000039016001D000A9C002C00DA022432007D
:109920002B003000290005F0BDF9002805D054496E
:109930000398FFF779FF06009CE06F007F08012283
:109940005242504B3000390005F0ACF900280ED1DE
:10995000012252424B4B3000390002F057FD0028E3
:1099600005D149490398FFF75FFF060082E0E02236
:109970001206464B3000290002F052FD002805D0A7
:1099800043490398FFF750FF060073E0E0221206F8
:10999000404B3000290002F02FFD002805D03C4943
:1099A0000398FFF741FF060064E000220023300027
:1099B000290002F021FD002809D02D210398FFF78E
:1099C00043FF804680231B069C46654401E000233C
:1099D0009846002700203049A74206DA00222F4B84
:1099E00003F09CFF0137FFB2F6E702000B003000E6
:1099F000290003F077FC05000E0002F077FD070058
:109A000005F0DCF902000B002800310004F002FE32
:109A1000009001910A223900039D2800FFF764FF9E
:109A200040440600002C04DD1D492800FFF7FCFE21
:109A30003618651E002C1DDD0022184B0098019978
:109A400004F076FB0090019102F050FD07000A221D
:109A500001000398FFF754FF3618380005F0AEF9FF
:109A600002000B000098019904F0D4FD00900191D0
:109A70002C00DEE7300004B004BC9046F0BDC046C8
:109A8000341D0100FFFFEF7F381D0100FFFFEF4194
:109A90003C1D0100FFFFEFC10000E03F000024403B
:109AA0007C13010000B583B004990091FFF72CFFEF
:109AB00003B000BD10B504000068002801D005F017
:109AC000E5FA200010BD10B504000068002801D0A0
:109AD00005F0DCFA00232360A360636010BD70B55D
